{
	"TokenV2_Flattened.sol": {
		"TokenV2": {
			"abi": [
				{
					"inputs": [],
					"stateMutability": "nonpayable",
					"type": "constructor"
				},
				{
					"anonymous": false,
					"inputs": [
						{
							"indexed": true,
							"internalType": "address",
							"name": "owner",
							"type": "address"
						},
						{
							"indexed": true,
							"internalType": "address",
							"name": "spender",
							"type": "address"
						},
						{
							"indexed": false,
							"internalType": "uint256",
							"name": "value",
							"type": "uint256"
						}
					],
					"name": "Approval",
					"type": "event"
				},
				{
					"anonymous": false,
					"inputs": [],
					"name": "EIP712DomainChanged",
					"type": "event"
				},
				{
					"anonymous": false,
					"inputs": [
						{
							"indexed": false,
							"internalType": "uint8",
							"name": "version",
							"type": "uint8"
						}
					],
					"name": "Initialized",
					"type": "event"
				},
				{
					"anonymous": false,
					"inputs": [
						{
							"indexed": true,
							"internalType": "address",
							"name": "previousOwner",
							"type": "address"
						},
						{
							"indexed": true,
							"internalType": "address",
							"name": "newOwner",
							"type": "address"
						}
					],
					"name": "OwnershipTransferred",
					"type": "event"
				},
				{
					"anonymous": false,
					"inputs": [
						{
							"indexed": true,
							"internalType": "address",
							"name": "from",
							"type": "address"
						},
						{
							"indexed": true,
							"internalType": "address",
							"name": "to",
							"type": "address"
						},
						{
							"indexed": false,
							"internalType": "uint256",
							"name": "value",
							"type": "uint256"
						}
					],
					"name": "Transfer",
					"type": "event"
				},
				{
					"anonymous": false,
					"inputs": [
						{
							"indexed": false,
							"internalType": "address",
							"name": "from",
							"type": "address"
						},
						{
							"indexed": false,
							"internalType": "address",
							"name": "to",
							"type": "address"
						},
						{
							"indexed": false,
							"internalType": "uint256",
							"name": "value",
							"type": "uint256"
						}
					],
					"name": "TransferFlapToken",
					"type": "event"
				},
				{
					"inputs": [],
					"name": "DOMAIN_SEPARATOR",
					"outputs": [
						{
							"internalType": "bytes32",
							"name": "",
							"type": "bytes32"
						}
					],
					"stateMutability": "view",
					"type": "function"
				},
				{
					"inputs": [
						{
							"internalType": "address",
							"name": "owner",
							"type": "address"
						},
						{
							"internalType": "address",
							"name": "spender",
							"type": "address"
						}
					],
					"name": "allowance",
					"outputs": [
						{
							"internalType": "uint256",
							"name": "",
							"type": "uint256"
						}
					],
					"stateMutability": "view",
					"type": "function"
				},
				{
					"inputs": [
						{
							"internalType": "address",
							"name": "spender",
							"type": "address"
						},
						{
							"internalType": "uint256",
							"name": "amount",
							"type": "uint256"
						}
					],
					"name": "approve",
					"outputs": [
						{
							"internalType": "bool",
							"name": "",
							"type": "bool"
						}
					],
					"stateMutability": "nonpayable",
					"type": "function"
				},
				{
					"inputs": [
						{
							"internalType": "address",
							"name": "account",
							"type": "address"
						}
					],
					"name": "balanceOf",
					"outputs": [
						{
							"internalType": "uint256",
							"name": "",
							"type": "uint256"
						}
					],
					"stateMutability": "view",
					"type": "function"
				},
				{
					"inputs": [],
					"name": "decimals",
					"outputs": [
						{
							"internalType": "uint8",
							"name": "",
							"type": "uint8"
						}
					],
					"stateMutability": "view",
					"type": "function"
				},
				{
					"inputs": [
						{
							"internalType": "address",
							"name": "spender",
							"type": "address"
						},
						{
							"internalType": "uint256",
							"name": "subtractedValue",
							"type": "uint256"
						}
					],
					"name": "decreaseAllowance",
					"outputs": [
						{
							"internalType": "bool",
							"name": "",
							"type": "bool"
						}
					],
					"stateMutability": "nonpayable",
					"type": "function"
				},
				{
					"inputs": [],
					"name": "eip712Domain",
					"outputs": [
						{
							"internalType": "bytes1",
							"name": "fields",
							"type": "bytes1"
						},
						{
							"internalType": "string",
							"name": "name",
							"type": "string"
						},
						{
							"internalType": "string",
							"name": "version",
							"type": "string"
						},
						{
							"internalType": "uint256",
							"name": "chainId",
							"type": "uint256"
						},
						{
							"internalType": "address",
							"name": "verifyingContract",
							"type": "address"
						},
						{
							"internalType": "bytes32",
							"name": "salt",
							"type": "bytes32"
						},
						{
							"internalType": "uint256[]",
							"name": "extensions",
							"type": "uint256[]"
						}
					],
					"stateMutability": "view",
					"type": "function"
				},
				{
					"inputs": [
						{
							"internalType": "address",
							"name": "spender",
							"type": "address"
						},
						{
							"internalType": "uint256",
							"name": "addedValue",
							"type": "uint256"
						}
					],
					"name": "increaseAllowance",
					"outputs": [
						{
							"internalType": "bool",
							"name": "",
							"type": "bool"
						}
					],
					"stateMutability": "nonpayable",
					"type": "function"
				},
				{
					"inputs": [
						{
							"internalType": "address",
							"name": "_v2Pool",
							"type": "address"
						},
						{
							"internalType": "address",
							"name": "_v3Pool",
							"type": "address"
						},
						{
							"internalType": "string",
							"name": "name_",
							"type": "string"
						},
						{
							"internalType": "string",
							"name": "symbol_",
							"type": "string"
						},
						{
							"internalType": "string",
							"name": "meta_",
							"type": "string"
						},
						{
							"internalType": "uint256",
							"name": "maxSupply_",
							"type": "uint256"
						}
					],
					"name": "initialize",
					"outputs": [],
					"stateMutability": "nonpayable",
					"type": "function"
				},
				{
					"inputs": [],
					"name": "maxSupply",
					"outputs": [
						{
							"internalType": "uint256",
							"name": "",
							"type": "uint256"
						}
					],
					"stateMutability": "view",
					"type": "function"
				},
				{
					"inputs": [],
					"name": "metaURI",
					"outputs": [
						{
							"internalType": "string",
							"name": "",
							"type": "string"
						}
					],
					"stateMutability": "view",
					"type": "function"
				},
				{
					"inputs": [],
					"name": "name",
					"outputs": [
						{
							"internalType": "string",
							"name": "",
							"type": "string"
						}
					],
					"stateMutability": "view",
					"type": "function"
				},
				{
					"inputs": [
						{
							"internalType": "address",
							"name": "owner",
							"type": "address"
						}
					],
					"name": "nonces",
					"outputs": [
						{
							"internalType": "uint256",
							"name": "",
							"type": "uint256"
						}
					],
					"stateMutability": "view",
					"type": "function"
				},
				{
					"inputs": [],
					"name": "owner",
					"outputs": [
						{
							"internalType": "address",
							"name": "",
							"type": "address"
						}
					],
					"stateMutability": "view",
					"type": "function"
				},
				{
					"inputs": [
						{
							"internalType": "address",
							"name": "owner",
							"type": "address"
						},
						{
							"internalType": "address",
							"name": "spender",
							"type": "address"
						},
						{
							"internalType": "uint256",
							"name": "value",
							"type": "uint256"
						},
						{
							"internalType": "uint256",
							"name": "deadline",
							"type": "uint256"
						},
						{
							"internalType": "uint8",
							"name": "v",
							"type": "uint8"
						},
						{
							"internalType": "bytes32",
							"name": "r",
							"type": "bytes32"
						},
						{
							"internalType": "bytes32",
							"name": "s",
							"type": "bytes32"
						}
					],
					"name": "permit",
					"outputs": [],
					"stateMutability": "nonpayable",
					"type": "function"
				},
				{
					"inputs": [],
					"name": "pools",
					"outputs": [
						{
							"internalType": "address",
							"name": "v2",
							"type": "address"
						},
						{
							"internalType": "address",
							"name": "v3",
							"type": "address"
						}
					],
					"stateMutability": "view",
					"type": "function"
				},
				{
					"inputs": [],
					"name": "removeTransferConstraints",
					"outputs": [],
					"stateMutability": "nonpayable",
					"type": "function"
				},
				{
					"inputs": [],
					"name": "renounceOwnership",
					"outputs": [],
					"stateMutability": "nonpayable",
					"type": "function"
				},
				{
					"inputs": [],
					"name": "symbol",
					"outputs": [
						{
							"internalType": "string",
							"name": "",
							"type": "string"
						}
					],
					"stateMutability": "view",
					"type": "function"
				},
				{
					"inputs": [],
					"name": "totalSupply",
					"outputs": [
						{
							"internalType": "uint256",
							"name": "",
							"type": "uint256"
						}
					],
					"stateMutability": "view",
					"type": "function"
				},
				{
					"inputs": [
						{
							"internalType": "address",
							"name": "to",
							"type": "address"
						},
						{
							"internalType": "uint256",
							"name": "amount",
							"type": "uint256"
						}
					],
					"name": "transfer",
					"outputs": [
						{
							"internalType": "bool",
							"name": "",
							"type": "bool"
						}
					],
					"stateMutability": "nonpayable",
					"type": "function"
				},
				{
					"inputs": [],
					"name": "transferConstraints",
					"outputs": [
						{
							"internalType": "bool",
							"name": "",
							"type": "bool"
						}
					],
					"stateMutability": "view",
					"type": "function"
				},
				{
					"inputs": [
						{
							"internalType": "address",
							"name": "from",
							"type": "address"
						},
						{
							"internalType": "address",
							"name": "to",
							"type": "address"
						},
						{
							"internalType": "uint256",
							"name": "amount",
							"type": "uint256"
						}
					],
					"name": "transferFrom",
					"outputs": [
						{
							"internalType": "bool",
							"name": "",
							"type": "bool"
						}
					],
					"stateMutability": "nonpayable",
					"type": "function"
				},
				{
					"inputs": [
						{
							"internalType": "address",
							"name": "newOwner",
							"type": "address"
						}
					],
					"name": "transferOwnership",
					"outputs": [],
					"stateMutability": "nonpayable",
					"type": "function"
				}
			],
			"devdoc": {
				"events": {
					"Approval(address,address,uint256)": {
						"details": "Emitted when the allowance of a `spender` for an `owner` is set by a call to {approve}. `value` is the new allowance."
					},
					"EIP712DomainChanged()": {
						"details": "MAY be emitted to signal that the domain could have changed."
					},
					"Initialized(uint8)": {
						"details": "Triggered when the contract has been initialized or reinitialized."
					},
					"Transfer(address,address,uint256)": {
						"details": "Emitted when `value` tokens are moved from one account (`from`) to another (`to`). Note that `value` may be zero."
					}
				},
				"kind": "dev",
				"methods": {
					"DOMAIN_SEPARATOR()": {
						"details": "Returns the domain separator used in the encoding of the signature for {permit}, as defined by {EIP712}."
					},
					"allowance(address,address)": {
						"details": "See {IERC20-allowance}."
					},
					"approve(address,uint256)": {
						"details": "See {IERC20-approve}. NOTE: If `amount` is the maximum `uint256`, the allowance is not updated on `transferFrom`. This is semantically equivalent to an infinite approval. Requirements: - `spender` cannot be the zero address."
					},
					"balanceOf(address)": {
						"details": "See {IERC20-balanceOf}."
					},
					"decimals()": {
						"details": "Returns the number of decimals used to get its user representation. For example, if `decimals` equals `2`, a balance of `505` tokens should be displayed to a user as `5.05` (`505 / 10 ** 2`). Tokens usually opt for a value of 18, imitating the relationship between Ether and Wei. This is the default value returned by this function, unless it's overridden. NOTE: This information is only used for _display_ purposes: it in no way affects any of the arithmetic of the contract, including {IERC20-balanceOf} and {IERC20-transfer}."
					},
					"decreaseAllowance(address,uint256)": {
						"details": "Atomically decreases the allowance granted to `spender` by the caller. This is an alternative to {approve} that can be used as a mitigation for problems described in {IERC20-approve}. Emits an {Approval} event indicating the updated allowance. Requirements: - `spender` cannot be the zero address. - `spender` must have allowance for the caller of at least `subtractedValue`."
					},
					"eip712Domain()": {
						"details": "See {EIP-5267}. _Available since v4.9._"
					},
					"increaseAllowance(address,uint256)": {
						"details": "Atomically increases the allowance granted to `spender` by the caller. This is an alternative to {approve} that can be used as a mitigation for problems described in {IERC20-approve}. Emits an {Approval} event indicating the updated allowance. Requirements: - `spender` cannot be the zero address."
					},
					"name()": {
						"details": "Returns the name of the token."
					},
					"nonces(address)": {
						"details": "Returns the current nonce for `owner`. This value must be included whenever a signature is generated for {permit}. Every successful call to {permit} increases ``owner``'s nonce by one. This prevents a signature from being used multiple times."
					},
					"owner()": {
						"details": "Returns the address of the current owner."
					},
					"permit(address,address,uint256,uint256,uint8,bytes32,bytes32)": {
						"details": "Sets `value` as the allowance of `spender` over ``owner``'s tokens, given ``owner``'s signed approval. IMPORTANT: The same issues {IERC20-approve} has related to transaction ordering also apply here. Emits an {Approval} event. Requirements: - `spender` cannot be the zero address. - `deadline` must be a timestamp in the future. - `v`, `r` and `s` must be a valid `secp256k1` signature from `owner` over the EIP712-formatted function arguments. - the signature must use ``owner``'s current nonce (see {nonces}). For more information on the signature format, see the https://eips.ethereum.org/EIPS/eip-2612#specification[relevant EIP section]. CAUTION: See Security Considerations above."
					},
					"removeTransferConstraints()": {
						"details": "This can only be called by the owner of the contract"
					},
					"renounceOwnership()": {
						"details": "Leaves the contract without owner. It will not be possible to call `onlyOwner` functions. Can only be called by the current owner. NOTE: Renouncing ownership will leave the contract without an owner, thereby disabling any functionality that is only available to the owner."
					},
					"symbol()": {
						"details": "Returns the symbol of the token, usually a shorter version of the name."
					},
					"totalSupply()": {
						"details": "See {IERC20-totalSupply}."
					},
					"transfer(address,uint256)": {
						"details": "See {IERC20-transfer}. Requirements: - `to` cannot be the zero address. - the caller must have a balance of at least `amount`."
					},
					"transferFrom(address,address,uint256)": {
						"details": "See {IERC20-transferFrom}. Emits an {Approval} event indicating the updated allowance. This is not required by the EIP. See the note at the beginning of {ERC20}. NOTE: Does not update the allowance if the current allowance is the maximum `uint256`. Requirements: - `from` and `to` cannot be the zero address. - `from` must have a balance of at least `amount`. - the caller must have allowance for ``from``'s tokens of at least `amount`."
					},
					"transferOwnership(address)": {
						"details": "Transfers ownership of the contract to a new account (`newOwner`). Can only be called by the current owner."
					}
				},
				"stateVariables": {
					"uniswapV2Pool": {
						"details": "uniswap v2 pool"
					},
					"uniswapV3Pool": {
						"details": "uni v3 pool"
					}
				},
				"version": 1
			},
			"evm": {
				"assembly": "    /* \"TokenV2_Flattened.sol\":85268:87433  contract TokenV2 is ITokenV2, ERC20PermitUpgradeable, OwnableUpgradeable {... */\n  mstore(0x40, 0x80)\n    /* \"TokenV2_Flattened.sol\":85750:85766  constructor() {} */\n  callvalue\n  dup1\n  iszero\n  tag_1\n  jumpi\n  0x00\n  dup1\n  revert\ntag_1:\n  pop\n    /* \"TokenV2_Flattened.sol\":85268:87433  contract TokenV2 is ITokenV2, ERC20PermitUpgradeable, OwnableUpgradeable {... */\n  dataSize(sub_0)\n  dup1\n  dataOffset(sub_0)\n  0x00\n  codecopy\n  0x00\n  return\nstop\n\nsub_0: assembly {\n        /* \"TokenV2_Flattened.sol\":85268:87433  contract TokenV2 is ITokenV2, ERC20PermitUpgradeable, OwnableUpgradeable {... */\n      mstore(0x40, 0x80)\n      callvalue\n      dup1\n      iszero\n      tag_1\n      jumpi\n      0x00\n      dup1\n      revert\n    tag_1:\n      pop\n      jumpi(tag_2, lt(calldatasize, 0x04))\n      shr(0xe0, calldataload(0x00))\n      dup1\n      0x87c82823\n      gt\n      tag_27\n      jumpi\n      dup1\n      0xc5c51dca\n      gt\n      tag_28\n      jumpi\n      dup1\n      0xdd62ed3e\n      gt\n      tag_29\n      jumpi\n      dup1\n      0xdd62ed3e\n      eq\n      tag_24\n      jumpi\n      dup1\n      0xded96d48\n      eq\n      tag_25\n      jumpi\n      dup1\n      0xf2fde38b\n      eq\n      tag_26\n      jumpi\n      0x00\n      dup1\n      revert\n    tag_29:\n      dup1\n      0xc5c51dca\n      eq\n      tag_21\n      jumpi\n      dup1\n      0xd505accf\n      eq\n      tag_22\n      jumpi\n      dup1\n      0xd5abeb01\n      eq\n      tag_23\n      jumpi\n      0x00\n      dup1\n      revert\n    tag_28:\n      dup1\n      0xa457c2d7\n      gt\n      tag_30\n      jumpi\n      dup1\n      0xa457c2d7\n      eq\n      tag_18\n      jumpi\n      dup1\n      0xa9059cbb\n      eq\n      tag_19\n      jumpi\n      dup1\n      0xaa755fdc\n      eq\n      tag_20\n      jumpi\n      0x00\n      dup1\n      revert\n    tag_30:\n      dup1\n      0x87c82823\n      eq\n      tag_15\n      jumpi\n      dup1\n      0x8da5cb5b\n      eq\n      tag_16\n      jumpi\n      dup1\n      0x95d89b41\n      eq\n      tag_17\n      jumpi\n      0x00\n      dup1\n      revert\n    tag_27:\n      dup1\n      0x39509351\n      gt\n      tag_31\n      jumpi\n      dup1\n      0x715018a6\n      gt\n      tag_32\n      jumpi\n      dup1\n      0x715018a6\n      eq\n      tag_12\n      jumpi\n      dup1\n      0x7ecebe00\n      eq\n      tag_13\n      jumpi\n      dup1\n      0x84b0196e\n      eq\n      tag_14\n      jumpi\n      0x00\n      dup1\n      revert\n    tag_32:\n      dup1\n      0x39509351\n      eq\n      tag_9\n      jumpi\n      dup1\n      0x67605787\n      eq\n      tag_10\n      jumpi\n      dup1\n      0x70a08231\n      eq\n      tag_11\n      jumpi\n      0x00\n      dup1\n      revert\n    tag_31:\n      dup1\n      0x23b872dd\n      gt\n      tag_33\n      jumpi\n      dup1\n      0x23b872dd\n      eq\n      tag_6\n      jumpi\n      dup1\n      0x313ce567\n      eq\n      tag_7\n      jumpi\n      dup1\n      0x3644e515\n      eq\n      tag_8\n      jumpi\n      0x00\n      dup1\n      revert\n    tag_33:\n      dup1\n      0x06fdde03\n      eq\n      tag_3\n      jumpi\n      dup1\n      0x095ea7b3\n      eq\n      tag_4\n      jumpi\n      dup1\n      0x18160ddd\n      eq\n      tag_5\n      jumpi\n    tag_2:\n      0x00\n      dup1\n      revert\n        /* \"TokenV2_Flattened.sol\":51957:52057  function name() public view virtual override returns (string memory) {... */\n    tag_3:\n      tag_34\n      tag_35\n      jump\t// in\n    tag_34:\n      mload(0x40)\n      tag_36\n      swap2\n      swap1\n      tag_37\n      jump\t// in\n    tag_36:\n      mload(0x40)\n      dup1\n      swap2\n      sub\n      swap1\n      return\n        /* \"TokenV2_Flattened.sol\":54317:54518  function approve(address spender, uint256 amount) public virtual override returns (bool) {... */\n    tag_4:\n      tag_38\n      tag_39\n      calldatasize\n      0x04\n      tag_40\n      jump\t// in\n    tag_39:\n      tag_41\n      jump\t// in\n    tag_38:\n      mload(0x40)\n        /* \"#utility.yul\":1351:1365   */\n      swap1\n      iszero\n        /* \"#utility.yul\":1344:1366   */\n      iszero\n        /* \"#utility.yul\":1326:1367   */\n      dup2\n      mstore\n        /* \"#utility.yul\":1314:1316   */\n      0x20\n        /* \"#utility.yul\":1299:1317   */\n      add\n        /* \"TokenV2_Flattened.sol\":54317:54518  function approve(address spender, uint256 amount) public virtual override returns (bool) {... */\n      tag_36\n        /* \"#utility.yul\":1186:1373   */\n      jump\n        /* \"TokenV2_Flattened.sol\":53086:53194  function totalSupply() public view virtual override returns (uint256) {... */\n    tag_5:\n        /* \"TokenV2_Flattened.sol\":53174:53186  _totalSupply */\n      sload(0x35)\n        /* \"TokenV2_Flattened.sol\":53086:53194  function totalSupply() public view virtual override returns (uint256) {... */\n    tag_44:\n      mload(0x40)\n        /* \"#utility.yul\":1524:1549   */\n      swap1\n      dup2\n      mstore\n        /* \"#utility.yul\":1512:1514   */\n      0x20\n        /* \"#utility.yul\":1497:1515   */\n      add\n        /* \"TokenV2_Flattened.sol\":53086:53194  function totalSupply() public view virtual override returns (uint256) {... */\n      tag_36\n        /* \"#utility.yul\":1378:1555   */\n      jump\n        /* \"TokenV2_Flattened.sol\":55098:55359  function transferFrom(address from, address to, uint256 amount) public virtual override returns (bool) {... */\n    tag_6:\n      tag_38\n      tag_49\n      calldatasize\n      0x04\n      tag_50\n      jump\t// in\n    tag_49:\n      tag_51\n      jump\t// in\n        /* \"TokenV2_Flattened.sol\":52928:53021  function decimals() public view virtual override returns (uint8) {... */\n    tag_7:\n      mload(0x40)\n        /* \"TokenV2_Flattened.sol\":53011:53013  18 */\n      0x12\n        /* \"#utility.yul\":2035:2071   */\n      dup2\n      mstore\n        /* \"#utility.yul\":2023:2025   */\n      0x20\n        /* \"#utility.yul\":2008:2026   */\n      add\n        /* \"TokenV2_Flattened.sol\":52928:53021  function decimals() public view virtual override returns (uint8) {... */\n      tag_36\n        /* \"#utility.yul\":1893:2077   */\n      jump\n        /* \"TokenV2_Flattened.sol\":79975:80090  function DOMAIN_SEPARATOR() external view override returns (bytes32) {... */\n    tag_8:\n      tag_44\n      tag_58\n      jump\t// in\n        /* \"TokenV2_Flattened.sol\":55768:56006  function increaseAllowance(address spender, uint256 addedValue) public virtual returns (bool) {... */\n    tag_9:\n      tag_38\n      tag_62\n      calldatasize\n      0x04\n      tag_40\n      jump\t// in\n    tag_62:\n      tag_63\n      jump\t// in\n        /* \"TokenV2_Flattened.sol\":85470:85491  string public metaURI */\n    tag_10:\n      tag_34\n      tag_66\n      jump\t// in\n        /* \"TokenV2_Flattened.sol\":53257:53384  function balanceOf(address account) public view virtual override returns (uint256) {... */\n    tag_11:\n      tag_44\n      tag_69\n      calldatasize\n      0x04\n      tag_70\n      jump\t// in\n    tag_69:\n        /* \"TokenV2_Flattened.sol\":53358:53376  _balances[account] */\n      0xffffffffffffffffffffffffffffffffffffffff\n      and\n        /* \"TokenV2_Flattened.sol\":53331:53338  uint256 */\n      0x00\n        /* \"TokenV2_Flattened.sol\":53358:53376  _balances[account] */\n      swap1\n      dup2\n      mstore\n        /* \"TokenV2_Flattened.sol\":53358:53367  _balances */\n      0x33\n        /* \"TokenV2_Flattened.sol\":53358:53376  _balances[account] */\n      0x20\n      mstore\n      0x40\n      swap1\n      keccak256\n      sload\n      swap1\n        /* \"TokenV2_Flattened.sol\":53257:53384  function balanceOf(address account) public view virtual override returns (uint256) {... */\n      jump\n        /* \"TokenV2_Flattened.sol\":82830:82933  function renounceOwnership() public virtual onlyOwner {... */\n    tag_12:\n      tag_73\n      tag_74\n      jump\t// in\n    tag_73:\n      stop\n        /* \"TokenV2_Flattened.sol\":79723:79851  function nonces(address owner) public view virtual override returns (uint256) {... */\n    tag_13:\n      tag_44\n      tag_76\n      calldatasize\n      0x04\n      tag_70\n      jump\t// in\n    tag_76:\n      tag_77\n      jump\t// in\n        /* \"TokenV2_Flattened.sol\":73221:74110  function eip712Domain()... */\n    tag_14:\n      tag_79\n      tag_80\n      jump\t// in\n    tag_79:\n      mload(0x40)\n      tag_36\n      swap8\n      swap7\n      swap6\n      swap5\n      swap4\n      swap3\n      swap2\n      swap1\n      tag_82\n      jump\t// in\n        /* \"TokenV2_Flattened.sol\":85576:85607  bool public transferConstraints */\n    tag_15:\n      sload(0x0100)\n      tag_38\n      swap1\n      0xff\n      and\n      dup2\n      jump\n        /* \"TokenV2_Flattened.sol\":82189:82276  function owner() public view virtual returns (address) {... */\n    tag_16:\n        /* \"TokenV2_Flattened.sol\":82262:82268  _owner */\n      sload(0xcc)\n        /* \"TokenV2_Flattened.sol\":82189:82276  function owner() public view virtual returns (address) {... */\n      mload(0x40)\n        /* \"TokenV2_Flattened.sol\":82262:82268  _owner */\n      0xffffffffffffffffffffffffffffffffffffffff\n      swap1\n      swap2\n      and\n        /* \"#utility.yul\":3941:4015   */\n      dup2\n      mstore\n        /* \"#utility.yul\":3929:3931   */\n      0x20\n        /* \"#utility.yul\":3914:3932   */\n      add\n        /* \"TokenV2_Flattened.sol\":82189:82276  function owner() public view virtual returns (address) {... */\n      tag_36\n        /* \"#utility.yul\":3795:4021   */\n      jump\n        /* \"TokenV2_Flattened.sol\":52176:52280  function symbol() public view virtual override returns (string memory) {... */\n    tag_17:\n      tag_34\n      tag_91\n      jump\t// in\n        /* \"TokenV2_Flattened.sol\":56509:56945  function decreaseAllowance(address spender, uint256 subtractedValue) public virtual returns (bool) {... */\n    tag_18:\n      tag_38\n      tag_94\n      calldatasize\n      0x04\n      tag_40\n      jump\t// in\n    tag_94:\n      tag_95\n      jump\t// in\n        /* \"TokenV2_Flattened.sol\":53590:53783  function transfer(address to, uint256 amount) public virtual override returns (bool) {... */\n    tag_19:\n      tag_38\n      tag_98\n      calldatasize\n      0x04\n      tag_40\n      jump\t// in\n    tag_98:\n      tag_99\n      jump\t// in\n        /* \"TokenV2_Flattened.sol\":87152:87263  function removeTransferConstraints() external override onlyOwner {... */\n    tag_20:\n      tag_73\n      tag_102\n      jump\t// in\n        /* \"TokenV2_Flattened.sol\":87301:87430  function pools() external view override returns (address v2, address v3) {... */\n    tag_21:\n        /* \"TokenV2_Flattened.sol\":87393:87406  uniswapV2Pool */\n      0x0100\n      dup1\n      sload\n        /* \"TokenV2_Flattened.sol\":87408:87421  uniswapV3Pool */\n      sload(0x0101)\n        /* \"TokenV2_Flattened.sol\":87301:87430  function pools() external view override returns (address v2, address v3) {... */\n      0x40\n      dup1\n      mload\n        /* \"TokenV2_Flattened.sol\":87393:87406  uniswapV2Pool */\n      0xffffffffffffffffffffffffffffffffffffffff\n      swap5\n      swap1\n      swap4\n      div\n      dup5\n      and\n        /* \"#utility.yul\":4261:4295   */\n      dup4\n      mstore\n        /* \"TokenV2_Flattened.sol\":87408:87421  uniswapV3Pool */\n      swap3\n      and\n        /* \"#utility.yul\":4326:4328   */\n      0x20\n        /* \"#utility.yul\":4311:4329   */\n      dup3\n      add\n        /* \"#utility.yul\":4304:4347   */\n      mstore\n        /* \"#utility.yul\":4173:4191   */\n      add\n        /* \"TokenV2_Flattened.sol\":87301:87430  function pools() external view override returns (address v2, address v3) {... */\n      tag_36\n        /* \"#utility.yul\":4026:4353   */\n      jump\n        /* \"TokenV2_Flattened.sol\":78997:79653  function permit(... */\n    tag_22:\n      tag_73\n      tag_108\n      calldatasize\n      0x04\n      tag_109\n      jump\t// in\n    tag_108:\n      tag_110\n      jump\t// in\n        /* \"TokenV2_Flattened.sol\":85393:85417  uint256 public maxSupply */\n    tag_23:\n      tag_44\n      sload(0xfe)\n      dup2\n      jump\n        /* \"TokenV2_Flattened.sol\":53846:53997  function allowance(address owner, address spender) public view virtual override returns (uint256) {... */\n    tag_24:\n      tag_44\n      tag_115\n      calldatasize\n      0x04\n      tag_116\n      jump\t// in\n    tag_115:\n        /* \"TokenV2_Flattened.sol\":53962:53980  _allowances[owner] */\n      0xffffffffffffffffffffffffffffffffffffffff\n      swap2\n      dup3\n      and\n        /* \"TokenV2_Flattened.sol\":53935:53942  uint256 */\n      0x00\n        /* \"TokenV2_Flattened.sol\":53962:53980  _allowances[owner] */\n      swap1\n      dup2\n      mstore\n        /* \"TokenV2_Flattened.sol\":53962:53973  _allowances */\n      0x34\n        /* \"TokenV2_Flattened.sol\":53962:53980  _allowances[owner] */\n      0x20\n      swap1\n      dup2\n      mstore\n      0x40\n      dup1\n      dup4\n      keccak256\n        /* \"TokenV2_Flattened.sol\":53962:53989  _allowances[owner][spender] */\n      swap4\n      swap1\n      swap5\n      and\n      dup3\n      mstore\n      swap2\n      swap1\n      swap2\n      mstore\n      keccak256\n      sload\n      swap1\n        /* \"TokenV2_Flattened.sol\":53846:53997  function allowance(address owner, address spender) public view virtual override returns (uint256) {... */\n      jump\n        /* \"TokenV2_Flattened.sol\":85774:86425  function initialize(... */\n    tag_25:\n      tag_73\n      tag_120\n      calldatasize\n      0x04\n      tag_121\n      jump\t// in\n    tag_120:\n      tag_122\n      jump\t// in\n        /* \"TokenV2_Flattened.sol\":83088:83289  function transferOwnership(address newOwner) public virtual onlyOwner {... */\n    tag_26:\n      tag_73\n      tag_124\n      calldatasize\n      0x04\n      tag_70\n      jump\t// in\n    tag_124:\n      tag_125\n      jump\t// in\n        /* \"TokenV2_Flattened.sol\":51957:52057  function name() public view virtual override returns (string memory) {... */\n    tag_35:\n        /* \"TokenV2_Flattened.sol\":52011:52024  string memory */\n      0x60\n        /* \"TokenV2_Flattened.sol\":52044:52049  _name */\n      0x36\n        /* \"TokenV2_Flattened.sol\":52037:52049  return _name */\n      dup1\n      sload\n      tag_127\n      swap1\n      tag_128\n      jump\t// in\n    tag_127:\n      dup1\n      0x1f\n      add\n      0x20\n      dup1\n      swap2\n      div\n      mul\n      0x20\n      add\n      mload(0x40)\n      swap1\n      dup2\n      add\n      0x40\n      mstore\n      dup1\n      swap3\n      swap2\n      swap1\n      dup2\n      dup2\n      mstore\n      0x20\n      add\n      dup3\n      dup1\n      sload\n      tag_129\n      swap1\n      tag_128\n      jump\t// in\n    tag_129:\n      dup1\n      iszero\n      tag_130\n      jumpi\n      dup1\n      0x1f\n      lt\n      tag_131\n      jumpi\n      0x0100\n      dup1\n      dup4\n      sload\n      div\n      mul\n      dup4\n      mstore\n      swap2\n      0x20\n      add\n      swap2\n      jump(tag_130)\n    tag_131:\n      dup3\n      add\n      swap2\n      swap1\n      0x00\n      mstore\n      keccak256(0x00, 0x20)\n      swap1\n    tag_132:\n      dup2\n      sload\n      dup2\n      mstore\n      swap1\n      0x01\n      add\n      swap1\n      0x20\n      add\n      dup1\n      dup4\n      gt\n      tag_132\n      jumpi\n      dup3\n      swap1\n      sub\n      0x1f\n      and\n      dup3\n      add\n      swap2\n    tag_130:\n      pop\n      pop\n      pop\n      pop\n      pop\n      swap1\n      pop\n        /* \"TokenV2_Flattened.sol\":51957:52057  function name() public view virtual override returns (string memory) {... */\n      swap1\n      jump\t// out\n        /* \"TokenV2_Flattened.sol\":54317:54518  function approve(address spender, uint256 amount) public virtual override returns (bool) {... */\n    tag_41:\n        /* \"TokenV2_Flattened.sol\":54400:54404  bool */\n      0x00\n        /* \"TokenV2_Flattened.sol\":45360:45370  msg.sender */\n      caller\n        /* \"TokenV2_Flattened.sol\":54456:54488  _approve(owner, spender, amount) */\n      tag_136\n        /* \"TokenV2_Flattened.sol\":45360:45370  msg.sender */\n      dup2\n        /* \"TokenV2_Flattened.sol\":54472:54479  spender */\n      dup6\n        /* \"TokenV2_Flattened.sol\":54481:54487  amount */\n      dup6\n        /* \"TokenV2_Flattened.sol\":54456:54464  _approve */\n      tag_137\n        /* \"TokenV2_Flattened.sol\":54456:54488  _approve(owner, spender, amount) */\n      jump\t// in\n    tag_136:\n        /* \"TokenV2_Flattened.sol\":54506:54510  true */\n      0x01\n        /* \"TokenV2_Flattened.sol\":54499:54510  return true */\n      swap2\n      pop\n      pop\n        /* \"TokenV2_Flattened.sol\":54317:54518  function approve(address spender, uint256 amount) public virtual override returns (bool) {... */\n    tag_133:\n      swap3\n      swap2\n      pop\n      pop\n      jump\t// out\n        /* \"TokenV2_Flattened.sol\":55098:55359  function transferFrom(address from, address to, uint256 amount) public virtual override returns (bool) {... */\n    tag_51:\n        /* \"TokenV2_Flattened.sol\":55195:55199  bool */\n      0x00\n        /* \"TokenV2_Flattened.sol\":45360:45370  msg.sender */\n      caller\n        /* \"TokenV2_Flattened.sol\":55253:55291  _spendAllowance(from, spender, amount) */\n      tag_141\n        /* \"TokenV2_Flattened.sol\":55269:55273  from */\n      dup6\n        /* \"TokenV2_Flattened.sol\":45360:45370  msg.sender */\n      dup3\n        /* \"TokenV2_Flattened.sol\":55284:55290  amount */\n      dup6\n        /* \"TokenV2_Flattened.sol\":55253:55268  _spendAllowance */\n      tag_142\n        /* \"TokenV2_Flattened.sol\":55253:55291  _spendAllowance(from, spender, amount) */\n      jump\t// in\n    tag_141:\n        /* \"TokenV2_Flattened.sol\":55302:55329  _transfer(from, to, amount) */\n      tag_143\n        /* \"TokenV2_Flattened.sol\":55312:55316  from */\n      dup6\n        /* \"TokenV2_Flattened.sol\":55318:55320  to */\n      dup6\n        /* \"TokenV2_Flattened.sol\":55322:55328  amount */\n      dup6\n        /* \"TokenV2_Flattened.sol\":55302:55311  _transfer */\n      tag_144\n        /* \"TokenV2_Flattened.sol\":55302:55329  _transfer(from, to, amount) */\n      jump\t// in\n    tag_143:\n      pop\n        /* \"TokenV2_Flattened.sol\":55347:55351  true */\n      0x01\n      swap5\n        /* \"TokenV2_Flattened.sol\":55098:55359  function transferFrom(address from, address to, uint256 amount) public virtual override returns (bool) {... */\n      swap4\n      pop\n      pop\n      pop\n      pop\n      jump\t// out\n        /* \"TokenV2_Flattened.sol\":79975:80090  function DOMAIN_SEPARATOR() external view override returns (bytes32) {... */\n    tag_58:\n        /* \"TokenV2_Flattened.sol\":80035:80042  bytes32 */\n      0x00\n        /* \"TokenV2_Flattened.sol\":80062:80082  _domainSeparatorV4() */\n      tag_147\n        /* \"TokenV2_Flattened.sol\":80062:80080  _domainSeparatorV4 */\n      tag_148\n        /* \"TokenV2_Flattened.sol\":80062:80082  _domainSeparatorV4() */\n      jump\t// in\n    tag_147:\n        /* \"TokenV2_Flattened.sol\":80055:80082  return _domainSeparatorV4() */\n      swap1\n      pop\n        /* \"TokenV2_Flattened.sol\":79975:80090  function DOMAIN_SEPARATOR() external view override returns (bytes32) {... */\n      swap1\n      jump\t// out\n        /* \"TokenV2_Flattened.sol\":55768:56006  function increaseAllowance(address spender, uint256 addedValue) public virtual returns (bool) {... */\n    tag_63:\n        /* \"TokenV2_Flattened.sol\":45360:45370  msg.sender */\n      caller\n        /* \"TokenV2_Flattened.sol\":55856:55860  bool */\n      0x00\n        /* \"TokenV2_Flattened.sol\":53962:53980  _allowances[owner] */\n      dup2\n      dup2\n      mstore\n        /* \"TokenV2_Flattened.sol\":53962:53973  _allowances */\n      0x34\n        /* \"TokenV2_Flattened.sol\":53962:53980  _allowances[owner] */\n      0x20\n      swap1\n      dup2\n      mstore\n      0x40\n      dup1\n      dup4\n      keccak256\n      0xffffffffffffffffffffffffffffffffffffffff\n        /* \"TokenV2_Flattened.sol\":53962:53989  _allowances[owner][spender] */\n      dup8\n      and\n      dup5\n      mstore\n      swap1\n      swap2\n      mstore\n      dup2\n      keccak256\n      sload\n        /* \"TokenV2_Flattened.sol\":55856:55860  bool */\n      swap1\n      swap2\n        /* \"TokenV2_Flattened.sol\":45360:45370  msg.sender */\n      swap1\n        /* \"TokenV2_Flattened.sol\":55912:55976  _approve(owner, spender, allowance(owner, spender) + addedValue) */\n      tag_136\n      swap1\n        /* \"TokenV2_Flattened.sol\":45360:45370  msg.sender */\n      dup3\n      swap1\n        /* \"TokenV2_Flattened.sol\":53962:53989  _allowances[owner][spender] */\n      dup7\n      swap1\n        /* \"TokenV2_Flattened.sol\":55937:55975  allowance(owner, spender) + addedValue */\n      tag_153\n      swap1\n        /* \"TokenV2_Flattened.sol\":55965:55975  addedValue */\n      dup8\n      swap1\n        /* \"TokenV2_Flattened.sol\":55937:55975  allowance(owner, spender) + addedValue */\n      tag_154\n      jump\t// in\n    tag_153:\n        /* \"TokenV2_Flattened.sol\":55912:55920  _approve */\n      tag_137\n        /* \"TokenV2_Flattened.sol\":55912:55976  _approve(owner, spender, allowance(owner, spender) + addedValue) */\n      jump\t// in\n        /* \"TokenV2_Flattened.sol\":85470:85491  string public metaURI */\n    tag_66:\n      0xff\n      dup1\n      sload\n      tag_155\n      swap1\n      tag_128\n      jump\t// in\n    tag_155:\n      dup1\n      0x1f\n      add\n      0x20\n      dup1\n      swap2\n      div\n      mul\n      0x20\n      add\n      mload(0x40)\n      swap1\n      dup2\n      add\n      0x40\n      mstore\n      dup1\n      swap3\n      swap2\n      swap1\n      dup2\n      dup2\n      mstore\n      0x20\n      add\n      dup3\n      dup1\n      sload\n      tag_156\n      swap1\n      tag_128\n      jump\t// in\n    tag_156:\n      dup1\n      iszero\n      tag_157\n      jumpi\n      dup1\n      0x1f\n      lt\n      tag_158\n      jumpi\n      0x0100\n      dup1\n      dup4\n      sload\n      div\n      mul\n      dup4\n      mstore\n      swap2\n      0x20\n      add\n      swap2\n      jump(tag_157)\n    tag_158:\n      dup3\n      add\n      swap2\n      swap1\n      0x00\n      mstore\n      keccak256(0x00, 0x20)\n      swap1\n    tag_159:\n      dup2\n      sload\n      dup2\n      mstore\n      swap1\n      0x01\n      add\n      swap1\n      0x20\n      add\n      dup1\n      dup4\n      gt\n      tag_159\n      jumpi\n      dup3\n      swap1\n      sub\n      0x1f\n      and\n      dup3\n      add\n      swap2\n    tag_157:\n      pop\n      pop\n      pop\n      pop\n      pop\n      dup2\n      jump\t// out\n        /* \"TokenV2_Flattened.sol\":82830:82933  function renounceOwnership() public virtual onlyOwner {... */\n    tag_74:\n        /* \"TokenV2_Flattened.sol\":82075:82088  _checkOwner() */\n      tag_162\n        /* \"TokenV2_Flattened.sol\":82075:82086  _checkOwner */\n      tag_163\n        /* \"TokenV2_Flattened.sol\":82075:82088  _checkOwner() */\n      jump\t// in\n    tag_162:\n        /* \"TokenV2_Flattened.sol\":82895:82925  _transferOwnership(address(0)) */\n      tag_165\n        /* \"TokenV2_Flattened.sol\":82922:82923  0 */\n      0x00\n        /* \"TokenV2_Flattened.sol\":82895:82913  _transferOwnership */\n      tag_166\n        /* \"TokenV2_Flattened.sol\":82895:82925  _transferOwnership(address(0)) */\n      jump\t// in\n    tag_165:\n        /* \"TokenV2_Flattened.sol\":82830:82933  function renounceOwnership() public virtual onlyOwner {... */\n      jump\t// out\n        /* \"TokenV2_Flattened.sol\":79723:79851  function nonces(address owner) public view virtual override returns (uint256) {... */\n    tag_77:\n        /* \"TokenV2_Flattened.sol\":79819:79833  _nonces[owner] */\n      0xffffffffffffffffffffffffffffffffffffffff\n      dup2\n      and\n        /* \"TokenV2_Flattened.sol\":79792:79799  uint256 */\n      0x00\n        /* \"TokenV2_Flattened.sol\":79819:79833  _nonces[owner] */\n      swap1\n      dup2\n      mstore\n        /* \"TokenV2_Flattened.sol\":79819:79826  _nonces */\n      0x99\n        /* \"TokenV2_Flattened.sol\":79819:79833  _nonces[owner] */\n      0x20\n      mstore\n      0x40\n      dup2\n      keccak256\n        /* \"TokenV2_Flattened.sol\":64236:64250  counter._value */\n      sload\n        /* \"TokenV2_Flattened.sol\":79819:79843  _nonces[owner].current() */\n      tag_133\n        /* \"TokenV2_Flattened.sol\":64144:64258  function current(Counter storage counter) internal view returns (uint256) {... */\n      jump\n        /* \"TokenV2_Flattened.sol\":73221:74110  function eip712Domain()... */\n    tag_80:\n        /* \"TokenV2_Flattened.sol\":73342:73355  bytes1 fields */\n      0x00\n        /* \"TokenV2_Flattened.sol\":73370:73388  string memory name */\n      0x60\n        /* \"TokenV2_Flattened.sol\":73403:73424  string memory version */\n      dup1\n        /* \"TokenV2_Flattened.sol\":73439:73454  uint256 chainId */\n      0x00\n        /* \"TokenV2_Flattened.sol\":73469:73494  address verifyingContract */\n      dup1\n        /* \"TokenV2_Flattened.sol\":73509:73521  bytes32 salt */\n      0x00\n        /* \"TokenV2_Flattened.sol\":73536:73563  uint256[] memory extensions */\n      0x60\n        /* \"TokenV2_Flattened.sol\":73804:73815  _hashedName */\n      sload(0x65)\n        /* \"TokenV2_Flattened.sol\":73819:73820  0 */\n      0x00\n        /* \"TokenV2_Flattened.sol\":73804:73820  _hashedName == 0 */\n      dup1\n      shl\n      eq\n        /* \"TokenV2_Flattened.sol\":73804:73843  _hashedName == 0 && _hashedVersion == 0 */\n      dup1\n      iszero\n      tag_171\n      jumpi\n      pop\n        /* \"TokenV2_Flattened.sol\":73824:73838  _hashedVersion */\n      sload(0x66)\n        /* \"TokenV2_Flattened.sol\":73824:73843  _hashedVersion == 0 */\n      iszero\n        /* \"TokenV2_Flattened.sol\":73804:73843  _hashedName == 0 && _hashedVersion == 0 */\n    tag_171:\n        /* \"TokenV2_Flattened.sol\":73796:73869  require(_hashedName == 0 && _hashedVersion == 0, \"EIP712: Uninitialized\") */\n      tag_172\n      jumpi\n      mload(0x40)\n      0x08c379a000000000000000000000000000000000000000000000000000000000\n      dup2\n      mstore\n        /* \"#utility.yul\":8188:8190   */\n      0x20\n        /* \"TokenV2_Flattened.sol\":73796:73869  require(_hashedName == 0 && _hashedVersion == 0, \"EIP712: Uninitialized\") */\n      0x04\n      dup3\n      add\n        /* \"#utility.yul\":8170:8191   */\n      mstore\n        /* \"#utility.yul\":8227:8229   */\n      0x15\n        /* \"#utility.yul\":8207:8225   */\n      0x24\n      dup3\n      add\n        /* \"#utility.yul\":8200:8230   */\n      mstore\n        /* \"#utility.yul\":8266:8289   */\n      0x4549503731323a20556e696e697469616c697a65640000000000000000000000\n        /* \"#utility.yul\":8246:8264   */\n      0x44\n      dup3\n      add\n        /* \"#utility.yul\":8239:8290   */\n      mstore\n        /* \"#utility.yul\":8307:8325   */\n      0x64\n      add\n        /* \"TokenV2_Flattened.sol\":73796:73869  require(_hashedName == 0 && _hashedVersion == 0, \"EIP712: Uninitialized\") */\n    tag_173:\n      mload(0x40)\n      dup1\n      swap2\n      sub\n      swap1\n      revert\n    tag_172:\n        /* \"TokenV2_Flattened.sol\":73935:73948  _EIP712Name() */\n      tag_175\n        /* \"TokenV2_Flattened.sol\":73935:73946  _EIP712Name */\n      tag_176\n        /* \"TokenV2_Flattened.sol\":73935:73948  _EIP712Name() */\n      jump\t// in\n    tag_175:\n        /* \"TokenV2_Flattened.sol\":73963:73979  _EIP712Version() */\n      tag_177\n        /* \"TokenV2_Flattened.sol\":73963:73977  _EIP712Version */\n      tag_178\n        /* \"TokenV2_Flattened.sol\":73963:73979  _EIP712Version() */\n      jump\t// in\n    tag_177:\n        /* \"TokenV2_Flattened.sol\":74075:74091  new uint256[](0) */\n      0x40\n      dup1\n      mload\n        /* \"TokenV2_Flattened.sol\":74058:74059  0 */\n      0x00\n        /* \"TokenV2_Flattened.sol\":74075:74091  new uint256[](0) */\n      dup1\n      dup3\n      mstore\n      0x20\n      dup3\n      add\n      swap1\n      swap3\n      mstore\n        /* \"TokenV2_Flattened.sol\":73882:74102  return (... */\n      0x0f00000000000000000000000000000000000000000000000000000000000000\n      swap12\n      swap4\n      swap11\n      pop\n      swap2\n      swap9\n      pop\n        /* \"TokenV2_Flattened.sol\":73994:74007  block.chainid */\n      chainid\n      swap8\n      pop\n        /* \"TokenV2_Flattened.sol\":74030:74034  this */\n      address\n      swap7\n      pop\n        /* \"TokenV2_Flattened.sol\":74058:74059  0 */\n      swap5\n      pop\n        /* \"TokenV2_Flattened.sol\":74075:74091  new uint256[](0) */\n      swap3\n      pop\n        /* \"TokenV2_Flattened.sol\":73882:74102  return (... */\n      swap1\n      pop\n        /* \"TokenV2_Flattened.sol\":73221:74110  function eip712Domain()... */\n      jump\t// out\n        /* \"TokenV2_Flattened.sol\":52176:52280  function symbol() public view virtual override returns (string memory) {... */\n    tag_91:\n        /* \"TokenV2_Flattened.sol\":52232:52245  string memory */\n      0x60\n        /* \"TokenV2_Flattened.sol\":52265:52272  _symbol */\n      0x37\n        /* \"TokenV2_Flattened.sol\":52258:52272  return _symbol */\n      dup1\n      sload\n      tag_127\n      swap1\n      tag_128\n      jump\t// in\n        /* \"TokenV2_Flattened.sol\":56509:56945  function decreaseAllowance(address spender, uint256 subtractedValue) public virtual returns (bool) {... */\n    tag_95:\n        /* \"TokenV2_Flattened.sol\":45360:45370  msg.sender */\n      caller\n        /* \"TokenV2_Flattened.sol\":56602:56606  bool */\n      0x00\n        /* \"TokenV2_Flattened.sol\":53962:53980  _allowances[owner] */\n      dup2\n      dup2\n      mstore\n        /* \"TokenV2_Flattened.sol\":53962:53973  _allowances */\n      0x34\n        /* \"TokenV2_Flattened.sol\":53962:53980  _allowances[owner] */\n      0x20\n      swap1\n      dup2\n      mstore\n      0x40\n      dup1\n      dup4\n      keccak256\n      0xffffffffffffffffffffffffffffffffffffffff\n        /* \"TokenV2_Flattened.sol\":53962:53989  _allowances[owner][spender] */\n      dup8\n      and\n      dup5\n      mstore\n      swap1\n      swap2\n      mstore\n      dup2\n      keccak256\n      sload\n        /* \"TokenV2_Flattened.sol\":56602:56606  bool */\n      swap1\n      swap2\n        /* \"TokenV2_Flattened.sol\":45360:45370  msg.sender */\n      swap1\n        /* \"TokenV2_Flattened.sol\":56749:56764  subtractedValue */\n      dup4\n        /* \"TokenV2_Flattened.sol\":56729:56745  currentAllowance */\n      dup2\n        /* \"TokenV2_Flattened.sol\":56729:56764  currentAllowance >= subtractedValue */\n      lt\n      iszero\n        /* \"TokenV2_Flattened.sol\":56721:56806  require(currentAllowance >= subtractedValue, \"ERC20: decreased allowance below zero\") */\n      tag_193\n      jumpi\n      mload(0x40)\n      0x08c379a000000000000000000000000000000000000000000000000000000000\n      dup2\n      mstore\n        /* \"#utility.yul\":8538:8540   */\n      0x20\n        /* \"TokenV2_Flattened.sol\":56721:56806  require(currentAllowance >= subtractedValue, \"ERC20: decreased allowance below zero\") */\n      0x04\n      dup3\n      add\n        /* \"#utility.yul\":8520:8541   */\n      mstore\n        /* \"#utility.yul\":8577:8579   */\n      0x25\n        /* \"#utility.yul\":8557:8575   */\n      0x24\n      dup3\n      add\n        /* \"#utility.yul\":8550:8580   */\n      mstore\n        /* \"#utility.yul\":8616:8650   */\n      0x45524332303a2064656372656173656420616c6c6f77616e63652062656c6f77\n        /* \"#utility.yul\":8596:8614   */\n      0x44\n      dup3\n      add\n        /* \"#utility.yul\":8589:8651   */\n      mstore\n        /* \"#utility.yul\":8687:8694   */\n      0x207a65726f000000000000000000000000000000000000000000000000000000\n        /* \"#utility.yul\":8667:8685   */\n      0x64\n      dup3\n      add\n        /* \"#utility.yul\":8660:8695   */\n      mstore\n        /* \"#utility.yul\":8712:8731   */\n      0x84\n      add\n        /* \"TokenV2_Flattened.sol\":56721:56806  require(currentAllowance >= subtractedValue, \"ERC20: decreased allowance below zero\") */\n      tag_173\n        /* \"#utility.yul\":8336:8737   */\n      jump\n        /* \"TokenV2_Flattened.sol\":56721:56806  require(currentAllowance >= subtractedValue, \"ERC20: decreased allowance below zero\") */\n    tag_193:\n        /* \"TokenV2_Flattened.sol\":56842:56902  _approve(owner, spender, currentAllowance - subtractedValue) */\n      tag_143\n        /* \"TokenV2_Flattened.sol\":56851:56856  owner */\n      dup3\n        /* \"TokenV2_Flattened.sol\":56858:56865  spender */\n      dup7\n        /* \"TokenV2_Flattened.sol\":56886:56901  subtractedValue */\n      dup7\n        /* \"TokenV2_Flattened.sol\":56867:56883  currentAllowance */\n      dup5\n        /* \"TokenV2_Flattened.sol\":56867:56901  currentAllowance - subtractedValue */\n      sub\n        /* \"TokenV2_Flattened.sol\":56842:56850  _approve */\n      tag_137\n        /* \"TokenV2_Flattened.sol\":56842:56902  _approve(owner, spender, currentAllowance - subtractedValue) */\n      jump\t// in\n        /* \"TokenV2_Flattened.sol\":53590:53783  function transfer(address to, uint256 amount) public virtual override returns (bool) {... */\n    tag_99:\n        /* \"TokenV2_Flattened.sol\":53669:53673  bool */\n      0x00\n        /* \"TokenV2_Flattened.sol\":45360:45370  msg.sender */\n      caller\n        /* \"TokenV2_Flattened.sol\":53725:53753  _transfer(owner, to, amount) */\n      tag_136\n        /* \"TokenV2_Flattened.sol\":45360:45370  msg.sender */\n      dup2\n        /* \"TokenV2_Flattened.sol\":53742:53744  to */\n      dup6\n        /* \"TokenV2_Flattened.sol\":53746:53752  amount */\n      dup6\n        /* \"TokenV2_Flattened.sol\":53725:53734  _transfer */\n      tag_144\n        /* \"TokenV2_Flattened.sol\":53725:53753  _transfer(owner, to, amount) */\n      jump\t// in\n        /* \"TokenV2_Flattened.sol\":87152:87263  function removeTransferConstraints() external override onlyOwner {... */\n    tag_102:\n        /* \"TokenV2_Flattened.sol\":82075:82088  _checkOwner() */\n      tag_201\n        /* \"TokenV2_Flattened.sol\":82075:82086  _checkOwner */\n      tag_163\n        /* \"TokenV2_Flattened.sol\":82075:82088  _checkOwner() */\n      jump\t// in\n    tag_201:\n        /* \"TokenV2_Flattened.sol\":87228:87247  transferConstraints */\n      0x0100\n        /* \"TokenV2_Flattened.sol\":87228:87255  transferConstraints = false */\n      dup1\n      sload\n      0xffffffffffffffffffffffffffffffffffffffffffffffffffffffffffffff00\n      and\n      swap1\n      sstore\n        /* \"TokenV2_Flattened.sol\":87152:87263  function removeTransferConstraints() external override onlyOwner {... */\n      jump\t// out\n        /* \"TokenV2_Flattened.sol\":78997:79653  function permit(... */\n    tag_110:\n        /* \"TokenV2_Flattened.sol\":79241:79249  deadline */\n      dup4\n        /* \"TokenV2_Flattened.sol\":79222:79237  block.timestamp */\n      timestamp\n        /* \"TokenV2_Flattened.sol\":79222:79249  block.timestamp <= deadline */\n      gt\n      iszero\n        /* \"TokenV2_Flattened.sol\":79214:79283  require(block.timestamp <= deadline, \"ERC20Permit: expired deadline\") */\n      tag_205\n      jumpi\n      mload(0x40)\n      0x08c379a000000000000000000000000000000000000000000000000000000000\n      dup2\n      mstore\n        /* \"#utility.yul\":8944:8946   */\n      0x20\n        /* \"TokenV2_Flattened.sol\":79214:79283  require(block.timestamp <= deadline, \"ERC20Permit: expired deadline\") */\n      0x04\n      dup3\n      add\n        /* \"#utility.yul\":8926:8947   */\n      mstore\n        /* \"#utility.yul\":8983:8985   */\n      0x1d\n        /* \"#utility.yul\":8963:8981   */\n      0x24\n      dup3\n      add\n        /* \"#utility.yul\":8956:8986   */\n      mstore\n        /* \"#utility.yul\":9022:9053   */\n      0x45524332305065726d69743a206578706972656420646561646c696e65000000\n        /* \"#utility.yul\":9002:9020   */\n      0x44\n      dup3\n      add\n        /* \"#utility.yul\":8995:9054   */\n      mstore\n        /* \"#utility.yul\":9071:9089   */\n      0x64\n      add\n        /* \"TokenV2_Flattened.sol\":79214:79283  require(block.timestamp <= deadline, \"ERC20Permit: expired deadline\") */\n      tag_173\n        /* \"#utility.yul\":8742:9095   */\n      jump\n        /* \"TokenV2_Flattened.sol\":79214:79283  require(block.timestamp <= deadline, \"ERC20Permit: expired deadline\") */\n    tag_205:\n        /* \"TokenV2_Flattened.sol\":79296:79314  bytes32 structHash */\n      0x00\n        /* \"TokenV2_Flattened.sol\":78004:78099  keccak256(\"Permit(address owner,address spender,uint256 value,uint256 nonce,uint256 deadline)\") */\n      0x6e71edae12b1b97f4d1f60370fef10105fa2faae0126114a169c64845d6126c9\n        /* \"TokenV2_Flattened.sol\":79356:79361  owner */\n      dup9\n        /* \"TokenV2_Flattened.sol\":79363:79370  spender */\n      dup9\n        /* \"TokenV2_Flattened.sol\":79372:79377  value */\n      dup9\n        /* \"TokenV2_Flattened.sol\":79379:79395  _useNonce(owner) */\n      tag_208\n        /* \"TokenV2_Flattened.sol\":79389:79394  owner */\n      dup13\n        /* \"TokenV2_Flattened.sol\":79379:79388  _useNonce */\n      tag_209\n        /* \"TokenV2_Flattened.sol\":79379:79395  _useNonce(owner) */\n      jump\t// in\n    tag_208:\n        /* \"TokenV2_Flattened.sol\":79327:79406  abi.encode(_PERMIT_TYPEHASH, owner, spender, value, _useNonce(owner), deadline) */\n      0x40\n      dup1\n      mload\n      0x20\n      dup2\n      add\n        /* \"#utility.yul\":9387:9412   */\n      swap7\n      swap1\n      swap7\n      mstore\n        /* \"#utility.yul\":9431:9473   */\n      0xffffffffffffffffffffffffffffffffffffffff\n        /* \"#utility.yul\":9509:9524   */\n      swap5\n      dup6\n      and\n        /* \"#utility.yul\":9489:9507   */\n      swap1\n      dup7\n      add\n        /* \"#utility.yul\":9482:9525   */\n      mstore\n        /* \"#utility.yul\":9561:9576   */\n      swap3\n      swap1\n      swap2\n      and\n        /* \"#utility.yul\":9541:9559   */\n      0x60\n      dup5\n      add\n        /* \"#utility.yul\":9534:9577   */\n      mstore\n        /* \"#utility.yul\":9593:9611   */\n      0x80\n      dup4\n      add\n        /* \"#utility.yul\":9586:9620   */\n      mstore\n        /* \"#utility.yul\":9636:9655   */\n      0xa0\n      dup3\n      add\n        /* \"#utility.yul\":9629:9664   */\n      mstore\n        /* \"#utility.yul\":9680:9699   */\n      0xc0\n      dup2\n      add\n        /* \"#utility.yul\":9673:9708   */\n      dup7\n      swap1\n      mstore\n        /* \"#utility.yul\":9359:9378   */\n      0xe0\n      add\n        /* \"TokenV2_Flattened.sol\":79327:79406  abi.encode(_PERMIT_TYPEHASH, owner, spender, value, _useNonce(owner), deadline) */\n      mload(0x40)\n      0x20\n      dup2\n      dup4\n      sub\n      sub\n      dup2\n      mstore\n      swap1\n      0x40\n      mstore\n        /* \"TokenV2_Flattened.sol\":79317:79407  keccak256(abi.encode(_PERMIT_TYPEHASH, owner, spender, value, _useNonce(owner), deadline)) */\n      dup1\n      mload\n      swap1\n      0x20\n      add\n      keccak256\n        /* \"TokenV2_Flattened.sol\":79296:79407  bytes32 structHash = keccak256(abi.encode(_PERMIT_TYPEHASH, owner, spender, value, _useNonce(owner), deadline)) */\n      swap1\n      pop\n        /* \"TokenV2_Flattened.sol\":79420:79432  bytes32 hash */\n      0x00\n        /* \"TokenV2_Flattened.sol\":79435:79463  _hashTypedDataV4(structHash) */\n      tag_212\n        /* \"TokenV2_Flattened.sol\":79452:79462  structHash */\n      dup3\n        /* \"TokenV2_Flattened.sol\":79435:79451  _hashTypedDataV4 */\n      tag_213\n        /* \"TokenV2_Flattened.sol\":79435:79463  _hashTypedDataV4(structHash) */\n      jump\t// in\n    tag_212:\n        /* \"TokenV2_Flattened.sol\":79420:79463  bytes32 hash = _hashTypedDataV4(structHash) */\n      swap1\n      pop\n        /* \"TokenV2_Flattened.sol\":79476:79490  address signer */\n      0x00\n        /* \"TokenV2_Flattened.sol\":79493:79532  ECDSAUpgradeable.recover(hash, v, r, s) */\n      tag_214\n        /* \"TokenV2_Flattened.sol\":79518:79522  hash */\n      dup3\n        /* \"TokenV2_Flattened.sol\":79524:79525  v */\n      dup8\n        /* \"TokenV2_Flattened.sol\":79527:79528  r */\n      dup8\n        /* \"TokenV2_Flattened.sol\":79530:79531  s */\n      dup8\n        /* \"TokenV2_Flattened.sol\":79493:79517  ECDSAUpgradeable.recover */\n      tag_215\n        /* \"TokenV2_Flattened.sol\":79493:79532  ECDSAUpgradeable.recover(hash, v, r, s) */\n      jump\t// in\n    tag_214:\n        /* \"TokenV2_Flattened.sol\":79476:79532  address signer = ECDSAUpgradeable.recover(hash, v, r, s) */\n      swap1\n      pop\n        /* \"TokenV2_Flattened.sol\":79561:79566  owner */\n      dup10\n        /* \"TokenV2_Flattened.sol\":79551:79566  signer == owner */\n      0xffffffffffffffffffffffffffffffffffffffff\n      and\n        /* \"TokenV2_Flattened.sol\":79551:79557  signer */\n      dup2\n        /* \"TokenV2_Flattened.sol\":79551:79566  signer == owner */\n      0xffffffffffffffffffffffffffffffffffffffff\n      and\n      eq\n        /* \"TokenV2_Flattened.sol\":79543:79601  require(signer == owner, \"ERC20Permit: invalid signature\") */\n      tag_216\n      jumpi\n      mload(0x40)\n      0x08c379a000000000000000000000000000000000000000000000000000000000\n      dup2\n      mstore\n        /* \"#utility.yul\":9921:9923   */\n      0x20\n        /* \"TokenV2_Flattened.sol\":79543:79601  require(signer == owner, \"ERC20Permit: invalid signature\") */\n      0x04\n      dup3\n      add\n        /* \"#utility.yul\":9903:9924   */\n      mstore\n        /* \"#utility.yul\":9960:9962   */\n      0x1e\n        /* \"#utility.yul\":9940:9958   */\n      0x24\n      dup3\n      add\n        /* \"#utility.yul\":9933:9963   */\n      mstore\n        /* \"#utility.yul\":9999:10031   */\n      0x45524332305065726d69743a20696e76616c6964207369676e61747572650000\n        /* \"#utility.yul\":9979:9997   */\n      0x44\n      dup3\n      add\n        /* \"#utility.yul\":9972:10032   */\n      mstore\n        /* \"#utility.yul\":10049:10067   */\n      0x64\n      add\n        /* \"TokenV2_Flattened.sol\":79543:79601  require(signer == owner, \"ERC20Permit: invalid signature\") */\n      tag_173\n        /* \"#utility.yul\":9719:10073   */\n      jump\n        /* \"TokenV2_Flattened.sol\":79543:79601  require(signer == owner, \"ERC20Permit: invalid signature\") */\n    tag_216:\n        /* \"TokenV2_Flattened.sol\":79614:79645  _approve(owner, spender, value) */\n      tag_219\n        /* \"TokenV2_Flattened.sol\":79623:79628  owner */\n      dup11\n        /* \"TokenV2_Flattened.sol\":79630:79637  spender */\n      dup11\n        /* \"TokenV2_Flattened.sol\":79639:79644  value */\n      dup11\n        /* \"TokenV2_Flattened.sol\":79614:79622  _approve */\n      tag_137\n        /* \"TokenV2_Flattened.sol\":79614:79645  _approve(owner, spender, value) */\n      jump\t// in\n    tag_219:\n        /* \"TokenV2_Flattened.sol\":79203:79653  {... */\n      pop\n      pop\n      pop\n        /* \"TokenV2_Flattened.sol\":78997:79653  function permit(... */\n      pop\n      pop\n      pop\n      pop\n      pop\n      pop\n      pop\n      jump\t// out\n        /* \"TokenV2_Flattened.sol\":85774:86425  function initialize(... */\n    tag_122:\n        /* \"TokenV2_Flattened.sol\":40955:40974  bool isTopLevelCall */\n      0x00\n        /* \"TokenV2_Flattened.sol\":40978:40991  _initializing */\n      sload\n      0x0100\n      swap1\n      div\n      0xff\n      and\n        /* \"TokenV2_Flattened.sol\":40977:40991  !_initializing */\n      iszero\n      dup1\n        /* \"TokenV2_Flattened.sol\":41025:41059  isTopLevelCall && _initialized < 1 */\n      dup1\n      iszero\n      tag_222\n      jumpi\n      pop\n        /* \"TokenV2_Flattened.sol\":41043:41055  _initialized */\n      sload(0x00)\n        /* \"TokenV2_Flattened.sol\":41058:41059  1 */\n      0x01\n        /* \"TokenV2_Flattened.sol\":41043:41055  _initialized */\n      0xff\n      swap1\n      swap2\n      and\n        /* \"TokenV2_Flattened.sol\":41043:41059  _initialized < 1 */\n      lt\n        /* \"TokenV2_Flattened.sol\":41025:41059  isTopLevelCall && _initialized < 1 */\n    tag_222:\n        /* \"TokenV2_Flattened.sol\":41024:41132  (isTopLevelCall && _initialized < 1) || (!AddressUpgradeable.isContract(address(this)) && _initialized == 1) */\n      dup1\n      tag_226\n      jumpi\n      pop\n        /* \"TokenV2_Flattened.sol\":41104:41108  this */\n      address\n        /* \"TokenV2_Flattened.sol\":29737:29756  account.code.length */\n      extcodesize\n        /* \"TokenV2_Flattened.sol\":29737:29760  account.code.length > 0 */\n      iszero\n      dup1\n      iszero\n        /* \"TokenV2_Flattened.sol\":41065:41131  !AddressUpgradeable.isContract(address(this)) && _initialized == 1 */\n      tag_226\n      jumpi\n      pop\n        /* \"TokenV2_Flattened.sol\":41114:41126  _initialized */\n      and(0xff, sload(0x00))\n      0x01\n        /* \"TokenV2_Flattened.sol\":41114:41131  _initialized == 1 */\n      eq\n        /* \"TokenV2_Flattened.sol\":41065:41131  !AddressUpgradeable.isContract(address(this)) && _initialized == 1 */\n    tag_226:\n        /* \"TokenV2_Flattened.sol\":41002:41206  require(... */\n      tag_227\n      jumpi\n      mload(0x40)\n      0x08c379a000000000000000000000000000000000000000000000000000000000\n      dup2\n      mstore\n        /* \"#utility.yul\":10280:10282   */\n      0x20\n        /* \"TokenV2_Flattened.sol\":41002:41206  require(... */\n      0x04\n      dup3\n      add\n        /* \"#utility.yul\":10262:10283   */\n      mstore\n        /* \"#utility.yul\":10319:10321   */\n      0x2e\n        /* \"#utility.yul\":10299:10317   */\n      0x24\n      dup3\n      add\n        /* \"#utility.yul\":10292:10322   */\n      mstore\n        /* \"#utility.yul\":10358:10392   */\n      0x496e697469616c697a61626c653a20636f6e747261637420697320616c726561\n        /* \"#utility.yul\":10338:10356   */\n      0x44\n      dup3\n      add\n        /* \"#utility.yul\":10331:10393   */\n      mstore\n        /* \"#utility.yul\":10429:10445   */\n      0x647920696e697469616c697a6564000000000000000000000000000000000000\n        /* \"#utility.yul\":10409:10427   */\n      0x64\n      dup3\n      add\n        /* \"#utility.yul\":10402:10446   */\n      mstore\n        /* \"#utility.yul\":10463:10482   */\n      0x84\n      add\n        /* \"TokenV2_Flattened.sol\":41002:41206  require(... */\n      tag_173\n        /* \"#utility.yul\":10078:10488   */\n      jump\n        /* \"TokenV2_Flattened.sol\":41002:41206  require(... */\n    tag_227:\n        /* \"TokenV2_Flattened.sol\":41217:41229  _initialized */\n      0x00\n        /* \"TokenV2_Flattened.sol\":41217:41233  _initialized = 1 */\n      dup1\n      sload\n      0xffffffffffffffffffffffffffffffffffffffffffffffffffffffffffffff00\n      and\n        /* \"TokenV2_Flattened.sol\":41232:41233  1 */\n      0x01\n        /* \"TokenV2_Flattened.sol\":41217:41233  _initialized = 1 */\n      or\n      swap1\n      sstore\n        /* \"TokenV2_Flattened.sol\":41244:41311  if (isTopLevelCall) {... */\n      dup1\n      iszero\n      tag_230\n      jumpi\n        /* \"TokenV2_Flattened.sol\":41279:41292  _initializing */\n      0x00\n        /* \"TokenV2_Flattened.sol\":41279:41299  _initializing = true */\n      dup1\n      sload\n      0xffffffffffffffffffffffffffffffffffffffffffffffffffffffffffff00ff\n      and\n      0x0100\n      or\n      swap1\n      sstore\n        /* \"TokenV2_Flattened.sol\":41244:41311  if (isTopLevelCall) {... */\n    tag_230:\n        /* \"TokenV2_Flattened.sol\":86015:86043  __ERC20_init(name_, symbol_) */\n      tag_232\n        /* \"TokenV2_Flattened.sol\":86028:86033  name_ */\n      dup6\n        /* \"TokenV2_Flattened.sol\":86035:86042  symbol_ */\n      dup6\n        /* \"TokenV2_Flattened.sol\":86015:86027  __ERC20_init */\n      tag_233\n        /* \"TokenV2_Flattened.sol\":86015:86043  __ERC20_init(name_, symbol_) */\n      jump\t// in\n    tag_232:\n        /* \"TokenV2_Flattened.sol\":86054:86079  __ERC20Permit_init(name_) */\n      tag_234\n        /* \"TokenV2_Flattened.sol\":86073:86078  name_ */\n      dup6\n        /* \"TokenV2_Flattened.sol\":86054:86072  __ERC20Permit_init */\n      tag_235\n        /* \"TokenV2_Flattened.sol\":86054:86079  __ERC20Permit_init(name_) */\n      jump\t// in\n    tag_234:\n        /* \"TokenV2_Flattened.sol\":86090:86106  __Ownable_init() */\n      tag_236\n        /* \"TokenV2_Flattened.sol\":86090:86104  __Ownable_init */\n      tag_237\n        /* \"TokenV2_Flattened.sol\":86090:86106  __Ownable_init() */\n      jump\t// in\n    tag_236:\n        /* \"TokenV2_Flattened.sol\":86119:86132  uniswapV2Pool */\n      0x0100\n        /* \"TokenV2_Flattened.sol\":86119:86142  uniswapV2Pool = _v2Pool */\n      dup1\n      sload\n      0xffffffffffffffffffffff0000000000000000000000000000000000000000ff\n      and\n      0xffffffffffffffffffffffffffffffffffffffff\n      dup10\n      dup2\n      and\n      dup4\n      mul\n      swap2\n      swap1\n      swap2\n      or\n      swap1\n      swap2\n      sstore\n        /* \"TokenV2_Flattened.sol\":86153:86166  uniswapV3Pool */\n      0x0101\n        /* \"TokenV2_Flattened.sol\":86153:86176  uniswapV3Pool = _v3Pool */\n      dup1\n      sload\n      0xffffffffffffffffffffffff0000000000000000000000000000000000000000\n      and\n      swap2\n      dup9\n      and\n      swap2\n      swap1\n      swap2\n      or\n      swap1\n      sstore\n        /* \"TokenV2_Flattened.sol\":86189:86198  maxSupply */\n      0xfe\n        /* \"TokenV2_Flattened.sol\":86189:86211  maxSupply = maxSupply_ */\n      dup3\n      swap1\n      sstore\n        /* \"TokenV2_Flattened.sol\":86222:86229  metaURI */\n      0xff\n        /* \"TokenV2_Flattened.sol\":86222:86237  metaURI = meta_ */\n      tag_238\n        /* \"TokenV2_Flattened.sol\":86232:86237  meta_ */\n      dup5\n        /* \"TokenV2_Flattened.sol\":86222:86229  metaURI */\n      dup3\n        /* \"TokenV2_Flattened.sol\":86222:86237  metaURI = meta_ */\n      tag_239\n      jump\t// in\n    tag_238:\n      pop\n        /* \"TokenV2_Flattened.sol\":86301:86320  transferConstraints */\n      0x0100\n        /* \"TokenV2_Flattened.sol\":86301:86327  transferConstraints = true */\n      dup1\n      sload\n      0xffffffffffffffffffffffffffffffffffffffffffffffffffffffffffffff00\n      and\n        /* \"TokenV2_Flattened.sol\":86323:86327  true */\n      0x01\n        /* \"TokenV2_Flattened.sol\":86301:86327  transferConstraints = true */\n      or\n      swap1\n      sstore\n        /* \"TokenV2_Flattened.sol\":86407:86416  maxSupply */\n      sload(0xfe)\n        /* \"TokenV2_Flattened.sol\":86389:86417  _mint(msg.sender, maxSupply) */\n      tag_240\n      swap1\n        /* \"TokenV2_Flattened.sol\":86395:86405  msg.sender */\n      caller\n      swap1\n        /* \"TokenV2_Flattened.sol\":86389:86394  _mint */\n      tag_241\n        /* \"TokenV2_Flattened.sol\":86389:86417  _mint(msg.sender, maxSupply) */\n      jump\t// in\n    tag_240:\n        /* \"TokenV2_Flattened.sol\":41337:41351  isTopLevelCall */\n      dup1\n        /* \"TokenV2_Flattened.sol\":41333:41435  if (isTopLevelCall) {... */\n      iszero\n      tag_242\n      jumpi\n        /* \"TokenV2_Flattened.sol\":41384:41389  false */\n      0x00\n        /* \"TokenV2_Flattened.sol\":41368:41389  _initializing = false */\n      dup1\n      sload\n      0xffffffffffffffffffffffffffffffffffffffffffffffffffffffffffff00ff\n      and\n      swap1\n      sstore\n        /* \"TokenV2_Flattened.sol\":41409:41423  Initialized(1) */\n      mload(0x40)\n      0x01\n        /* \"#utility.yul\":2035:2071   */\n      dup2\n      mstore\n        /* \"TokenV2_Flattened.sol\":41409:41423  Initialized(1) */\n      0x7f26b83ff96e1f2b6a682f133852f6798a09c465da95921460cefb3847402498\n      swap1\n        /* \"#utility.yul\":2023:2025   */\n      0x20\n        /* \"#utility.yul\":2008:2026   */\n      add\n        /* \"TokenV2_Flattened.sol\":41409:41423  Initialized(1) */\n      mload(0x40)\n      dup1\n      swap2\n      sub\n      swap1\n      log1\n        /* \"TokenV2_Flattened.sol\":41333:41435  if (isTopLevelCall) {... */\n    tag_242:\n        /* \"TokenV2_Flattened.sol\":40944:41442  {... */\n      pop\n        /* \"TokenV2_Flattened.sol\":85774:86425  function initialize(... */\n      pop\n      pop\n      pop\n      pop\n      pop\n      pop\n      jump\t// out\n        /* \"TokenV2_Flattened.sol\":83088:83289  function transferOwnership(address newOwner) public virtual onlyOwner {... */\n    tag_125:\n        /* \"TokenV2_Flattened.sol\":82075:82088  _checkOwner() */\n      tag_246\n        /* \"TokenV2_Flattened.sol\":82075:82086  _checkOwner */\n      tag_163\n        /* \"TokenV2_Flattened.sol\":82075:82088  _checkOwner() */\n      jump\t// in\n    tag_246:\n        /* \"TokenV2_Flattened.sol\":83177:83199  newOwner != address(0) */\n      0xffffffffffffffffffffffffffffffffffffffff\n      dup2\n      and\n        /* \"TokenV2_Flattened.sol\":83169:83242  require(newOwner != address(0), \"Ownable: new owner is the zero address\") */\n      tag_248\n      jumpi\n      mload(0x40)\n      0x08c379a000000000000000000000000000000000000000000000000000000000\n      dup2\n      mstore\n        /* \"#utility.yul\":13268:13270   */\n      0x20\n        /* \"TokenV2_Flattened.sol\":83169:83242  require(newOwner != address(0), \"Ownable: new owner is the zero address\") */\n      0x04\n      dup3\n      add\n        /* \"#utility.yul\":13250:13271   */\n      mstore\n        /* \"#utility.yul\":13307:13309   */\n      0x26\n        /* \"#utility.yul\":13287:13305   */\n      0x24\n      dup3\n      add\n        /* \"#utility.yul\":13280:13310   */\n      mstore\n        /* \"#utility.yul\":13346:13380   */\n      0x4f776e61626c653a206e6577206f776e657220697320746865207a65726f2061\n        /* \"#utility.yul\":13326:13344   */\n      0x44\n      dup3\n      add\n        /* \"#utility.yul\":13319:13381   */\n      mstore\n        /* \"#utility.yul\":13417:13425   */\n      0x6464726573730000000000000000000000000000000000000000000000000000\n        /* \"#utility.yul\":13397:13415   */\n      0x64\n      dup3\n      add\n        /* \"#utility.yul\":13390:13426   */\n      mstore\n        /* \"#utility.yul\":13443:13462   */\n      0x84\n      add\n        /* \"TokenV2_Flattened.sol\":83169:83242  require(newOwner != address(0), \"Ownable: new owner is the zero address\") */\n      tag_173\n        /* \"#utility.yul\":13066:13468   */\n      jump\n        /* \"TokenV2_Flattened.sol\":83169:83242  require(newOwner != address(0), \"Ownable: new owner is the zero address\") */\n    tag_248:\n        /* \"TokenV2_Flattened.sol\":83253:83281  _transferOwnership(newOwner) */\n      tag_251\n        /* \"TokenV2_Flattened.sol\":83272:83280  newOwner */\n      dup2\n        /* \"TokenV2_Flattened.sol\":83253:83271  _transferOwnership */\n      tag_166\n        /* \"TokenV2_Flattened.sol\":83253:83281  _transferOwnership(newOwner) */\n      jump\t// in\n    tag_251:\n        /* \"TokenV2_Flattened.sol\":83088:83289  function transferOwnership(address newOwner) public virtual onlyOwner {... */\n      pop\n      jump\t// out\n        /* \"TokenV2_Flattened.sol\":60502:60848  function _approve(address owner, address spender, uint256 amount) internal virtual {... */\n    tag_137:\n        /* \"TokenV2_Flattened.sol\":60604:60623  owner != address(0) */\n      0xffffffffffffffffffffffffffffffffffffffff\n      dup4\n      and\n        /* \"TokenV2_Flattened.sol\":60596:60664  require(owner != address(0), \"ERC20: approve from the zero address\") */\n      tag_254\n      jumpi\n      mload(0x40)\n      0x08c379a000000000000000000000000000000000000000000000000000000000\n      dup2\n      mstore\n        /* \"#utility.yul\":13675:13677   */\n      0x20\n        /* \"TokenV2_Flattened.sol\":60596:60664  require(owner != address(0), \"ERC20: approve from the zero address\") */\n      0x04\n      dup3\n      add\n        /* \"#utility.yul\":13657:13678   */\n      mstore\n        /* \"#utility.yul\":13714:13716   */\n      0x24\n        /* \"#utility.yul\":13694:13712   */\n      dup1\n      dup3\n      add\n        /* \"#utility.yul\":13687:13717   */\n      mstore\n        /* \"#utility.yul\":13753:13787   */\n      0x45524332303a20617070726f76652066726f6d20746865207a65726f20616464\n        /* \"#utility.yul\":13733:13751   */\n      0x44\n      dup3\n      add\n        /* \"#utility.yul\":13726:13788   */\n      mstore\n        /* \"#utility.yul\":13824:13830   */\n      0x7265737300000000000000000000000000000000000000000000000000000000\n        /* \"#utility.yul\":13804:13822   */\n      0x64\n      dup3\n      add\n        /* \"#utility.yul\":13797:13831   */\n      mstore\n        /* \"#utility.yul\":13848:13867   */\n      0x84\n      add\n        /* \"TokenV2_Flattened.sol\":60596:60664  require(owner != address(0), \"ERC20: approve from the zero address\") */\n      tag_173\n        /* \"#utility.yul\":13473:13873   */\n      jump\n        /* \"TokenV2_Flattened.sol\":60596:60664  require(owner != address(0), \"ERC20: approve from the zero address\") */\n    tag_254:\n        /* \"TokenV2_Flattened.sol\":60683:60704  spender != address(0) */\n      0xffffffffffffffffffffffffffffffffffffffff\n      dup3\n      and\n        /* \"TokenV2_Flattened.sol\":60675:60743  require(spender != address(0), \"ERC20: approve to the zero address\") */\n      tag_257\n      jumpi\n      mload(0x40)\n      0x08c379a000000000000000000000000000000000000000000000000000000000\n      dup2\n      mstore\n        /* \"#utility.yul\":14080:14082   */\n      0x20\n        /* \"TokenV2_Flattened.sol\":60675:60743  require(spender != address(0), \"ERC20: approve to the zero address\") */\n      0x04\n      dup3\n      add\n        /* \"#utility.yul\":14062:14083   */\n      mstore\n        /* \"#utility.yul\":14119:14121   */\n      0x22\n        /* \"#utility.yul\":14099:14117   */\n      0x24\n      dup3\n      add\n        /* \"#utility.yul\":14092:14122   */\n      mstore\n        /* \"#utility.yul\":14158:14192   */\n      0x45524332303a20617070726f766520746f20746865207a65726f206164647265\n        /* \"#utility.yul\":14138:14156   */\n      0x44\n      dup3\n      add\n        /* \"#utility.yul\":14131:14193   */\n      mstore\n        /* \"#utility.yul\":14229:14233   */\n      0x7373000000000000000000000000000000000000000000000000000000000000\n        /* \"#utility.yul\":14209:14227   */\n      0x64\n      dup3\n      add\n        /* \"#utility.yul\":14202:14234   */\n      mstore\n        /* \"#utility.yul\":14251:14270   */\n      0x84\n      add\n        /* \"TokenV2_Flattened.sol\":60675:60743  require(spender != address(0), \"ERC20: approve to the zero address\") */\n      tag_173\n        /* \"#utility.yul\":13878:14276   */\n      jump\n        /* \"TokenV2_Flattened.sol\":60675:60743  require(spender != address(0), \"ERC20: approve to the zero address\") */\n    tag_257:\n        /* \"TokenV2_Flattened.sol\":60756:60774  _allowances[owner] */\n      0xffffffffffffffffffffffffffffffffffffffff\n      dup4\n      dup2\n      and\n      0x00\n      dup2\n      dup2\n      mstore\n        /* \"TokenV2_Flattened.sol\":60756:60767  _allowances */\n      0x34\n        /* \"TokenV2_Flattened.sol\":60756:60774  _allowances[owner] */\n      0x20\n      swap1\n      dup2\n      mstore\n      0x40\n      dup1\n      dup4\n      keccak256\n        /* \"TokenV2_Flattened.sol\":60756:60783  _allowances[owner][spender] */\n      swap5\n      dup8\n      and\n      dup1\n      dup5\n      mstore\n      swap5\n      dup3\n      mstore\n      swap2\n      dup3\n      swap1\n      keccak256\n        /* \"TokenV2_Flattened.sol\":60756:60792  _allowances[owner][spender] = amount */\n      dup6\n      swap1\n      sstore\n        /* \"TokenV2_Flattened.sol\":60808:60840  Approval(owner, spender, amount) */\n      swap1\n      mload\n        /* \"#utility.yul\":1524:1549   */\n      dup5\n      dup2\n      mstore\n        /* \"TokenV2_Flattened.sol\":60808:60840  Approval(owner, spender, amount) */\n      0x8c5be1e5ebec7d5bd14f71427d1e84f3dd0314c0f7b2291e5b200ac8c7c3b925\n      swap2\n        /* \"#utility.yul\":1497:1515   */\n      add\n        /* \"TokenV2_Flattened.sol\":60808:60840  Approval(owner, spender, amount) */\n      mload(0x40)\n      dup1\n      swap2\n      sub\n      swap1\n      log3\n        /* \"TokenV2_Flattened.sol\":60502:60848  function _approve(address owner, address spender, uint256 amount) internal virtual {... */\n      pop\n      pop\n      pop\n      jump\t// out\n        /* \"TokenV2_Flattened.sol\":61139:61558  function _spendAllowance(address owner, address spender, uint256 amount) internal virtual {... */\n    tag_142:\n        /* \"TokenV2_Flattened.sol\":53962:53980  _allowances[owner] */\n      0xffffffffffffffffffffffffffffffffffffffff\n      dup4\n      dup2\n      and\n        /* \"TokenV2_Flattened.sol\":61240:61264  uint256 currentAllowance */\n      0x00\n        /* \"TokenV2_Flattened.sol\":53962:53980  _allowances[owner] */\n      swap1\n      dup2\n      mstore\n        /* \"TokenV2_Flattened.sol\":53962:53973  _allowances */\n      0x34\n        /* \"TokenV2_Flattened.sol\":53962:53980  _allowances[owner] */\n      0x20\n      swap1\n      dup2\n      mstore\n      0x40\n      dup1\n      dup4\n      keccak256\n        /* \"TokenV2_Flattened.sol\":53962:53989  _allowances[owner][spender] */\n      swap4\n      dup7\n      and\n      dup4\n      mstore\n      swap3\n      swap1\n      mstore\n      keccak256\n      sload\n        /* \"TokenV2_Flattened.sol\":61327:61344  type(uint256).max */\n      0xffffffffffffffffffffffffffffffffffffffffffffffffffffffffffffffff\n        /* \"TokenV2_Flattened.sol\":61307:61344  currentAllowance != type(uint256).max */\n      dup2\n      eq\n        /* \"TokenV2_Flattened.sol\":61303:61551  if (currentAllowance != type(uint256).max) {... */\n      tag_267\n      jumpi\n        /* \"TokenV2_Flattened.sol\":61389:61395  amount */\n      dup2\n        /* \"TokenV2_Flattened.sol\":61369:61385  currentAllowance */\n      dup2\n        /* \"TokenV2_Flattened.sol\":61369:61395  currentAllowance >= amount */\n      lt\n      iszero\n        /* \"TokenV2_Flattened.sol\":61361:61429  require(currentAllowance >= amount, \"ERC20: insufficient allowance\") */\n      tag_264\n      jumpi\n      mload(0x40)\n      0x08c379a000000000000000000000000000000000000000000000000000000000\n      dup2\n      mstore\n        /* \"#utility.yul\":14483:14485   */\n      0x20\n        /* \"TokenV2_Flattened.sol\":61361:61429  require(currentAllowance >= amount, \"ERC20: insufficient allowance\") */\n      0x04\n      dup3\n      add\n        /* \"#utility.yul\":14465:14486   */\n      mstore\n        /* \"#utility.yul\":14522:14524   */\n      0x1d\n        /* \"#utility.yul\":14502:14520   */\n      0x24\n      dup3\n      add\n        /* \"#utility.yul\":14495:14525   */\n      mstore\n        /* \"#utility.yul\":14561:14592   */\n      0x45524332303a20696e73756666696369656e7420616c6c6f77616e6365000000\n        /* \"#utility.yul\":14541:14559   */\n      0x44\n      dup3\n      add\n        /* \"#utility.yul\":14534:14593   */\n      mstore\n        /* \"#utility.yul\":14610:14628   */\n      0x64\n      add\n        /* \"TokenV2_Flattened.sol\":61361:61429  require(currentAllowance >= amount, \"ERC20: insufficient allowance\") */\n      tag_173\n        /* \"#utility.yul\":14281:14634   */\n      jump\n        /* \"TokenV2_Flattened.sol\":61361:61429  require(currentAllowance >= amount, \"ERC20: insufficient allowance\") */\n    tag_264:\n        /* \"TokenV2_Flattened.sol\":61473:61524  _approve(owner, spender, currentAllowance - amount) */\n      tag_267\n        /* \"TokenV2_Flattened.sol\":61482:61487  owner */\n      dup5\n        /* \"TokenV2_Flattened.sol\":61489:61496  spender */\n      dup5\n        /* \"TokenV2_Flattened.sol\":61517:61523  amount */\n      dup5\n        /* \"TokenV2_Flattened.sol\":61498:61514  currentAllowance */\n      dup5\n        /* \"TokenV2_Flattened.sol\":61498:61523  currentAllowance - amount */\n      sub\n        /* \"TokenV2_Flattened.sol\":61473:61481  _approve */\n      tag_137\n        /* \"TokenV2_Flattened.sol\":61473:61524  _approve(owner, spender, currentAllowance - amount) */\n      jump\t// in\n    tag_267:\n        /* \"TokenV2_Flattened.sol\":61229:61558  {... */\n      pop\n        /* \"TokenV2_Flattened.sol\":61139:61558  function _spendAllowance(address owner, address spender, uint256 amount) internal virtual {... */\n      pop\n      pop\n      pop\n      jump\t// out\n        /* \"TokenV2_Flattened.sol\":57415:58221  function _transfer(address from, address to, uint256 amount) internal virtual {... */\n    tag_144:\n        /* \"TokenV2_Flattened.sol\":57512:57530  from != address(0) */\n      0xffffffffffffffffffffffffffffffffffffffff\n      dup4\n      and\n        /* \"TokenV2_Flattened.sol\":57504:57572  require(from != address(0), \"ERC20: transfer from the zero address\") */\n      tag_269\n      jumpi\n      mload(0x40)\n      0x08c379a000000000000000000000000000000000000000000000000000000000\n      dup2\n      mstore\n        /* \"#utility.yul\":14841:14843   */\n      0x20\n        /* \"TokenV2_Flattened.sol\":57504:57572  require(from != address(0), \"ERC20: transfer from the zero address\") */\n      0x04\n      dup3\n      add\n        /* \"#utility.yul\":14823:14844   */\n      mstore\n        /* \"#utility.yul\":14880:14882   */\n      0x25\n        /* \"#utility.yul\":14860:14878   */\n      0x24\n      dup3\n      add\n        /* \"#utility.yul\":14853:14883   */\n      mstore\n        /* \"#utility.yul\":14919:14953   */\n      0x45524332303a207472616e736665722066726f6d20746865207a65726f206164\n        /* \"#utility.yul\":14899:14917   */\n      0x44\n      dup3\n      add\n        /* \"#utility.yul\":14892:14954   */\n      mstore\n        /* \"#utility.yul\":14990:14997   */\n      0x6472657373000000000000000000000000000000000000000000000000000000\n        /* \"#utility.yul\":14970:14988   */\n      0x64\n      dup3\n      add\n        /* \"#utility.yul\":14963:14998   */\n      mstore\n        /* \"#utility.yul\":15015:15034   */\n      0x84\n      add\n        /* \"TokenV2_Flattened.sol\":57504:57572  require(from != address(0), \"ERC20: transfer from the zero address\") */\n      tag_173\n        /* \"#utility.yul\":14639:15040   */\n      jump\n        /* \"TokenV2_Flattened.sol\":57504:57572  require(from != address(0), \"ERC20: transfer from the zero address\") */\n    tag_269:\n        /* \"TokenV2_Flattened.sol\":57591:57607  to != address(0) */\n      0xffffffffffffffffffffffffffffffffffffffff\n      dup3\n      and\n        /* \"TokenV2_Flattened.sol\":57583:57647  require(to != address(0), \"ERC20: transfer to the zero address\") */\n      tag_272\n      jumpi\n      mload(0x40)\n      0x08c379a000000000000000000000000000000000000000000000000000000000\n      dup2\n      mstore\n        /* \"#utility.yul\":15247:15249   */\n      0x20\n        /* \"TokenV2_Flattened.sol\":57583:57647  require(to != address(0), \"ERC20: transfer to the zero address\") */\n      0x04\n      dup3\n      add\n        /* \"#utility.yul\":15229:15250   */\n      mstore\n        /* \"#utility.yul\":15286:15288   */\n      0x23\n        /* \"#utility.yul\":15266:15284   */\n      0x24\n      dup3\n      add\n        /* \"#utility.yul\":15259:15289   */\n      mstore\n        /* \"#utility.yul\":15325:15359   */\n      0x45524332303a207472616e7366657220746f20746865207a65726f2061646472\n        /* \"#utility.yul\":15305:15323   */\n      0x44\n      dup3\n      add\n        /* \"#utility.yul\":15298:15360   */\n      mstore\n        /* \"#utility.yul\":15396:15401   */\n      0x6573730000000000000000000000000000000000000000000000000000000000\n        /* \"#utility.yul\":15376:15394   */\n      0x64\n      dup3\n      add\n        /* \"#utility.yul\":15369:15402   */\n      mstore\n        /* \"#utility.yul\":15419:15438   */\n      0x84\n      add\n        /* \"TokenV2_Flattened.sol\":57583:57647  require(to != address(0), \"ERC20: transfer to the zero address\") */\n      tag_173\n        /* \"#utility.yul\":15045:15444   */\n      jump\n        /* \"TokenV2_Flattened.sol\":57583:57647  require(to != address(0), \"ERC20: transfer to the zero address\") */\n    tag_272:\n        /* \"TokenV2_Flattened.sol\":57660:57698  _beforeTokenTransfer(from, to, amount) */\n      tag_275\n        /* \"TokenV2_Flattened.sol\":57681:57685  from */\n      dup4\n        /* \"TokenV2_Flattened.sol\":57687:57689  to */\n      dup4\n        /* \"TokenV2_Flattened.sol\":57691:57697  amount */\n      dup4\n        /* \"TokenV2_Flattened.sol\":57660:57680  _beforeTokenTransfer */\n      tag_276\n        /* \"TokenV2_Flattened.sol\":57660:57698  _beforeTokenTransfer(from, to, amount) */\n      jump\t// in\n    tag_275:\n        /* \"TokenV2_Flattened.sol\":57733:57748  _balances[from] */\n      0xffffffffffffffffffffffffffffffffffffffff\n      dup4\n      and\n        /* \"TokenV2_Flattened.sol\":57711:57730  uint256 fromBalance */\n      0x00\n        /* \"TokenV2_Flattened.sol\":57733:57748  _balances[from] */\n      swap1\n      dup2\n      mstore\n        /* \"TokenV2_Flattened.sol\":57733:57742  _balances */\n      0x33\n        /* \"TokenV2_Flattened.sol\":57733:57748  _balances[from] */\n      0x20\n      mstore\n      0x40\n      swap1\n      keccak256\n      sload\n        /* \"TokenV2_Flattened.sol\":57767:57788  fromBalance >= amount */\n      dup2\n      dup2\n      lt\n      iszero\n        /* \"TokenV2_Flattened.sol\":57759:57831  require(fromBalance >= amount, \"ERC20: transfer amount exceeds balance\") */\n      tag_277\n      jumpi\n      mload(0x40)\n      0x08c379a000000000000000000000000000000000000000000000000000000000\n      dup2\n      mstore\n        /* \"#utility.yul\":15651:15653   */\n      0x20\n        /* \"TokenV2_Flattened.sol\":57759:57831  require(fromBalance >= amount, \"ERC20: transfer amount exceeds balance\") */\n      0x04\n      dup3\n      add\n        /* \"#utility.yul\":15633:15654   */\n      mstore\n        /* \"#utility.yul\":15690:15692   */\n      0x26\n        /* \"#utility.yul\":15670:15688   */\n      0x24\n      dup3\n      add\n        /* \"#utility.yul\":15663:15693   */\n      mstore\n        /* \"#utility.yul\":15729:15763   */\n      0x45524332303a207472616e7366657220616d6f756e7420657863656564732062\n        /* \"#utility.yul\":15709:15727   */\n      0x44\n      dup3\n      add\n        /* \"#utility.yul\":15702:15764   */\n      mstore\n        /* \"#utility.yul\":15800:15808   */\n      0x616c616e63650000000000000000000000000000000000000000000000000000\n        /* \"#utility.yul\":15780:15798   */\n      0x64\n      dup3\n      add\n        /* \"#utility.yul\":15773:15809   */\n      mstore\n        /* \"#utility.yul\":15826:15845   */\n      0x84\n      add\n        /* \"TokenV2_Flattened.sol\":57759:57831  require(fromBalance >= amount, \"ERC20: transfer amount exceeds balance\") */\n      tag_173\n        /* \"#utility.yul\":15449:15851   */\n      jump\n        /* \"TokenV2_Flattened.sol\":57759:57831  require(fromBalance >= amount, \"ERC20: transfer amount exceeds balance\") */\n    tag_277:\n        /* \"TokenV2_Flattened.sol\":57867:57882  _balances[from] */\n      0xffffffffffffffffffffffffffffffffffffffff\n      dup1\n      dup6\n      and\n      0x00\n      dup2\n      dup2\n      mstore\n        /* \"TokenV2_Flattened.sol\":57867:57876  _balances */\n      0x33\n        /* \"TokenV2_Flattened.sol\":57867:57882  _balances[from] */\n      0x20\n      mstore\n      0x40\n      dup1\n      dup3\n      keccak256\n        /* \"TokenV2_Flattened.sol\":57885:57905  fromBalance - amount */\n      dup7\n      dup7\n      sub\n        /* \"TokenV2_Flattened.sol\":57867:57905  _balances[from] = fromBalance - amount */\n      swap1\n      sstore\n        /* \"TokenV2_Flattened.sol\":58085:58098  _balances[to] */\n      swap3\n      dup7\n      and\n      dup1\n      dup3\n      mstore\n      swap1\n      dup4\n      swap1\n      keccak256\n        /* \"TokenV2_Flattened.sol\":58085:58108  _balances[to] += amount */\n      dup1\n      sload\n      dup7\n      add\n      swap1\n      sstore\n        /* \"TokenV2_Flattened.sol\":58137:58163  Transfer(from, to, amount) */\n      swap2\n      mload\n      0xddf252ad1be2c89b69c2b068fc378daa952ba7f163c4a11628f55a4df523b3ef\n      swap1\n      tag_280\n      swap1\n        /* \"TokenV2_Flattened.sol\":57899:57905  amount */\n      dup7\n        /* \"#utility.yul\":1524:1549   */\n      dup2\n      mstore\n        /* \"#utility.yul\":1512:1514   */\n      0x20\n        /* \"#utility.yul\":1497:1515   */\n      add\n      swap1\n        /* \"#utility.yul\":1378:1555   */\n      jump\n        /* \"TokenV2_Flattened.sol\":58137:58163  Transfer(from, to, amount) */\n    tag_280:\n      mload(0x40)\n      dup1\n      swap2\n      sub\n      swap1\n      log3\n        /* \"TokenV2_Flattened.sol\":58176:58213  _afterTokenTransfer(from, to, amount) */\n      tag_267\n        /* \"TokenV2_Flattened.sol\":58196:58200  from */\n      dup5\n        /* \"TokenV2_Flattened.sol\":58202:58204  to */\n      dup5\n        /* \"TokenV2_Flattened.sol\":58206:58212  amount */\n      dup5\n        /* \"TokenV2_Flattened.sol\":58176:58195  _afterTokenTransfer */\n      tag_282\n        /* \"TokenV2_Flattened.sol\":58176:58213  _afterTokenTransfer(from, to, amount) */\n      jump\t// in\n        /* \"TokenV2_Flattened.sol\":71993:72104  function _domainSeparatorV4() internal view returns (bytes32) {... */\n    tag_148:\n        /* \"TokenV2_Flattened.sol\":72046:72053  bytes32 */\n      0x00\n        /* \"TokenV2_Flattened.sol\":72073:72096  _buildDomainSeparator() */\n      tag_147\n        /* \"TokenV2_Flattened.sol\":72073:72094  _buildDomainSeparator */\n      tag_285\n        /* \"TokenV2_Flattened.sol\":72073:72096  _buildDomainSeparator() */\n      jump\t// in\n        /* \"TokenV2_Flattened.sol\":82354:82486  function _checkOwner() internal view virtual {... */\n    tag_163:\n        /* \"TokenV2_Flattened.sol\":82262:82268  _owner */\n      sload(0xcc)\n        /* \"TokenV2_Flattened.sol\":82418:82441  owner() == _msgSender() */\n      0xffffffffffffffffffffffffffffffffffffffff\n        /* \"TokenV2_Flattened.sol\":82262:82268  _owner */\n      and\n        /* \"TokenV2_Flattened.sol\":45360:45370  msg.sender */\n      caller\n        /* \"TokenV2_Flattened.sol\":82418:82441  owner() == _msgSender() */\n      eq\n        /* \"TokenV2_Flattened.sol\":82410:82478  require(owner() == _msgSender(), \"Ownable: caller is not the owner\") */\n      tag_165\n      jumpi\n      mload(0x40)\n      0x08c379a000000000000000000000000000000000000000000000000000000000\n      dup2\n      mstore\n        /* \"#utility.yul\":16058:16060   */\n      0x20\n        /* \"TokenV2_Flattened.sol\":82410:82478  require(owner() == _msgSender(), \"Ownable: caller is not the owner\") */\n      0x04\n      dup3\n      add\n        /* \"#utility.yul\":16040:16061   */\n      dup2\n      swap1\n      mstore\n        /* \"#utility.yul\":16077:16095   */\n      0x24\n      dup3\n      add\n        /* \"#utility.yul\":16070:16100   */\n      mstore\n        /* \"#utility.yul\":16136:16170   */\n      0x4f776e61626c653a2063616c6c6572206973206e6f7420746865206f776e6572\n        /* \"#utility.yul\":16116:16134   */\n      0x44\n      dup3\n      add\n        /* \"#utility.yul\":16109:16171   */\n      mstore\n        /* \"#utility.yul\":16188:16206   */\n      0x64\n      add\n        /* \"TokenV2_Flattened.sol\":82410:82478  require(owner() == _msgSender(), \"Ownable: caller is not the owner\") */\n      tag_173\n        /* \"#utility.yul\":15856:16212   */\n      jump\n        /* \"TokenV2_Flattened.sol\":83449:83640  function _transferOwnership(address newOwner) internal virtual {... */\n    tag_166:\n        /* \"TokenV2_Flattened.sol\":83542:83548  _owner */\n      0xcc\n      dup1\n      sload\n      0xffffffffffffffffffffffffffffffffffffffff\n        /* \"TokenV2_Flattened.sol\":83559:83576  _owner = newOwner */\n      dup4\n      dup2\n      and\n      0xffffffffffffffffffffffff0000000000000000000000000000000000000000\n      dup4\n      and\n      dup2\n      or\n      swap1\n      swap4\n      sstore\n        /* \"TokenV2_Flattened.sol\":83592:83632  OwnershipTransferred(oldOwner, newOwner) */\n      mload(0x40)\n        /* \"TokenV2_Flattened.sol\":83542:83548  _owner */\n      swap2\n      and\n      swap2\n        /* \"TokenV2_Flattened.sol\":83559:83576  _owner = newOwner */\n      swap1\n        /* \"TokenV2_Flattened.sol\":83542:83548  _owner */\n      dup3\n      swap1\n        /* \"TokenV2_Flattened.sol\":83592:83632  OwnershipTransferred(oldOwner, newOwner) */\n      0x8be0079c531659141344cd1fd0a4f28419497f9722a3daafe3b4186f6b6457e0\n      swap1\n        /* \"TokenV2_Flattened.sol\":83523:83539  address oldOwner */\n      0x00\n      swap1\n        /* \"TokenV2_Flattened.sol\":83592:83632  OwnershipTransferred(oldOwner, newOwner) */\n      log3\n        /* \"TokenV2_Flattened.sol\":83512:83640  {... */\n      pop\n        /* \"TokenV2_Flattened.sol\":83449:83640  function _transferOwnership(address newOwner) internal virtual {... */\n      pop\n      jump\t// out\n        /* \"TokenV2_Flattened.sol\":74342:74442  function _EIP712Name() internal virtual view returns (string memory) {... */\n    tag_176:\n        /* \"TokenV2_Flattened.sol\":74396:74409  string memory */\n      0x60\n        /* \"TokenV2_Flattened.sol\":74429:74434  _name */\n      0x67\n        /* \"TokenV2_Flattened.sol\":74422:74434  return _name */\n      dup1\n      sload\n      tag_127\n      swap1\n      tag_128\n      jump\t// in\n        /* \"TokenV2_Flattened.sol\":74677:74783  function _EIP712Version() internal virtual view returns (string memory) {... */\n    tag_178:\n        /* \"TokenV2_Flattened.sol\":74734:74747  string memory */\n      0x60\n        /* \"TokenV2_Flattened.sol\":74767:74775  _version */\n      0x68\n        /* \"TokenV2_Flattened.sol\":74760:74775  return _version */\n      dup1\n      sload\n      tag_127\n      swap1\n      tag_128\n      jump\t// in\n        /* \"TokenV2_Flattened.sol\":80228:80446  function _useNonce(address owner) internal virtual returns (uint256 current) {... */\n    tag_209:\n        /* \"TokenV2_Flattened.sol\":80360:80374  _nonces[owner] */\n      0xffffffffffffffffffffffffffffffffffffffff\n      dup2\n      and\n        /* \"TokenV2_Flattened.sol\":80288:80303  uint256 current */\n      0x00\n        /* \"TokenV2_Flattened.sol\":80360:80374  _nonces[owner] */\n      swap1\n      dup2\n      mstore\n        /* \"TokenV2_Flattened.sol\":80360:80367  _nonces */\n      0x99\n        /* \"TokenV2_Flattened.sol\":80360:80374  _nonces[owner] */\n      0x20\n      mstore\n      0x40\n      swap1\n      keccak256\n        /* \"TokenV2_Flattened.sol\":64236:64250  counter._value */\n      dup1\n      sload\n        /* \"TokenV2_Flattened.sol\":64373:64374  1 */\n      0x01\n        /* \"TokenV2_Flattened.sol\":64355:64374  counter._value += 1 */\n      dup2\n      add\n      dup3\n      sstore\n        /* \"TokenV2_Flattened.sol\":64236:64250  counter._value */\n      swap1\n        /* \"TokenV2_Flattened.sol\":80421:80438  nonce.increment() */\n    tag_308:\n        /* \"TokenV2_Flattened.sol\":80305:80446  {... */\n      pop\n        /* \"TokenV2_Flattened.sol\":80228:80446  function _useNonce(address owner) internal virtual returns (uint256 current) {... */\n      swap2\n      swap1\n      pop\n      jump\t// out\n        /* \"TokenV2_Flattened.sol\":72948:73126  function _hashTypedDataV4(bytes32 structHash) internal view virtual returns (bytes32) {... */\n    tag_213:\n        /* \"TokenV2_Flattened.sol\":73025:73032  bytes32 */\n      0x00\n        /* \"TokenV2_Flattened.sol\":73052:73118  ECDSAUpgradeable.toTypedDataHash(_domainSeparatorV4(), structHash) */\n      tag_133\n        /* \"TokenV2_Flattened.sol\":73085:73105  _domainSeparatorV4() */\n      tag_312\n        /* \"TokenV2_Flattened.sol\":73085:73103  _domainSeparatorV4 */\n      tag_148\n        /* \"TokenV2_Flattened.sol\":73085:73105  _domainSeparatorV4() */\n      jump\t// in\n    tag_312:\n        /* \"TokenV2_Flattened.sol\":73107:73117  structHash */\n      dup4\n        /* \"TokenV2_Flattened.sol\":26508:26512  0x40 */\n      0x40\n        /* \"TokenV2_Flattened.sol\":26502:26513  mload(0x40) */\n      mload\n        /* \"TokenV2_Flattened.sol\":26539:26549  \"\\x19\\x01\" */\n      0x1901000000000000000000000000000000000000000000000000000000000000\n        /* \"TokenV2_Flattened.sol\":26527:26550  mstore(ptr, \"\\x19\\x01\") */\n      dup2\n      mstore\n        /* \"TokenV2_Flattened.sol\":26580:26584  0x02 */\n      0x02\n        /* \"TokenV2_Flattened.sol\":26571:26585  add(ptr, 0x02) */\n      dup2\n      add\n        /* \"TokenV2_Flattened.sol\":26564:26603  mstore(add(ptr, 0x02), domainSeparator) */\n      swap3\n      swap1\n      swap3\n      mstore\n        /* \"TokenV2_Flattened.sol\":26633:26637  0x22 */\n      0x22\n        /* \"TokenV2_Flattened.sol\":26624:26638  add(ptr, 0x22) */\n      dup3\n      add\n        /* \"TokenV2_Flattened.sol\":26617:26651  mstore(add(ptr, 0x22), structHash) */\n      mstore\n        /* \"TokenV2_Flattened.sol\":26688:26692  0x42 */\n      0x42\n        /* \"TokenV2_Flattened.sol\":26673:26693  keccak256(ptr, 0x42) */\n      swap1\n      keccak256\n      swap1\n        /* \"TokenV2_Flattened.sol\":26305:26711  function toTypedDataHash(bytes32 domainSeparator, bytes32 structHash) internal pure returns (bytes32 data) {... */\n      jump\n        /* \"TokenV2_Flattened.sol\":24510:24746  function recover(bytes32 hash, uint8 v, bytes32 r, bytes32 s) internal pure returns (address) {... */\n    tag_215:\n        /* \"TokenV2_Flattened.sol\":24595:24602  address */\n      0x00\n        /* \"TokenV2_Flattened.sol\":24616:24633  address recovered */\n      dup1\n        /* \"TokenV2_Flattened.sol\":24635:24653  RecoverError error */\n      0x00\n        /* \"TokenV2_Flattened.sol\":24657:24682  tryRecover(hash, v, r, s) */\n      tag_315\n        /* \"TokenV2_Flattened.sol\":24668:24672  hash */\n      dup8\n        /* \"TokenV2_Flattened.sol\":24674:24675  v */\n      dup8\n        /* \"TokenV2_Flattened.sol\":24677:24678  r */\n      dup8\n        /* \"TokenV2_Flattened.sol\":24680:24681  s */\n      dup8\n        /* \"TokenV2_Flattened.sol\":24657:24667  tryRecover */\n      tag_316\n        /* \"TokenV2_Flattened.sol\":24657:24682  tryRecover(hash, v, r, s) */\n      jump\t// in\n    tag_315:\n        /* \"TokenV2_Flattened.sol\":24615:24682  (address recovered, RecoverError error) = tryRecover(hash, v, r, s) */\n      swap2\n      pop\n      swap2\n      pop\n        /* \"TokenV2_Flattened.sol\":24693:24711  _throwError(error) */\n      tag_317\n        /* \"TokenV2_Flattened.sol\":24705:24710  error */\n      dup2\n        /* \"TokenV2_Flattened.sol\":24693:24704  _throwError */\n      tag_318\n        /* \"TokenV2_Flattened.sol\":24693:24711  _throwError(error) */\n      jump\t// in\n    tag_317:\n      pop\n        /* \"TokenV2_Flattened.sol\":24729:24738  recovered */\n      swap6\n        /* \"TokenV2_Flattened.sol\":24510:24746  function recover(bytes32 hash, uint8 v, bytes32 r, bytes32 s) internal pure returns (address) {... */\n      swap5\n      pop\n      pop\n      pop\n      pop\n      pop\n      jump\t// out\n        /* \"TokenV2_Flattened.sol\":51568:51717  function __ERC20_init(string memory name_, string memory symbol_) internal onlyInitializing {... */\n    tag_233:\n        /* \"TokenV2_Flattened.sol\":43098:43111  _initializing */\n      sload(0x00)\n      0x0100\n      swap1\n      div\n      0xff\n      and\n        /* \"TokenV2_Flattened.sol\":43090:43159  require(_initializing, \"Initializable: contract is not initializing\") */\n      tag_321\n      jumpi\n      mload(0x40)\n      0x08c379a000000000000000000000000000000000000000000000000000000000\n      dup2\n      mstore\n        /* \"#utility.yul\":16419:16421   */\n      0x20\n        /* \"TokenV2_Flattened.sol\":43090:43159  require(_initializing, \"Initializable: contract is not initializing\") */\n      0x04\n      dup3\n      add\n        /* \"#utility.yul\":16401:16422   */\n      mstore\n        /* \"#utility.yul\":16458:16460   */\n      0x2b\n        /* \"#utility.yul\":16438:16456   */\n      0x24\n      dup3\n      add\n        /* \"#utility.yul\":16431:16461   */\n      mstore\n        /* \"#utility.yul\":16497:16531   */\n      0x496e697469616c697a61626c653a20636f6e7472616374206973206e6f742069\n        /* \"#utility.yul\":16477:16495   */\n      0x44\n      dup3\n      add\n        /* \"#utility.yul\":16470:16532   */\n      mstore\n        /* \"#utility.yul\":16568:16581   */\n      0x6e697469616c697a696e67000000000000000000000000000000000000000000\n        /* \"#utility.yul\":16548:16566   */\n      0x64\n      dup3\n      add\n        /* \"#utility.yul\":16541:16582   */\n      mstore\n        /* \"#utility.yul\":16599:16618   */\n      0x84\n      add\n        /* \"TokenV2_Flattened.sol\":43090:43159  require(_initializing, \"Initializable: contract is not initializing\") */\n      tag_173\n        /* \"#utility.yul\":16217:16624   */\n      jump\n        /* \"TokenV2_Flattened.sol\":43090:43159  require(_initializing, \"Initializable: contract is not initializing\") */\n    tag_321:\n        /* \"TokenV2_Flattened.sol\":51671:51709  __ERC20_init_unchained(name_, symbol_) */\n      tag_325\n        /* \"TokenV2_Flattened.sol\":51694:51699  name_ */\n      dup3\n        /* \"TokenV2_Flattened.sol\":51701:51708  symbol_ */\n      dup3\n        /* \"TokenV2_Flattened.sol\":51671:51693  __ERC20_init_unchained */\n      tag_326\n        /* \"TokenV2_Flattened.sol\":51671:51709  __ERC20_init_unchained(name_, symbol_) */\n      jump\t// in\n    tag_325:\n        /* \"TokenV2_Flattened.sol\":51568:51717  function __ERC20_init(string memory name_, string memory symbol_) internal onlyInitializing {... */\n      pop\n      pop\n      jump\t// out\n        /* \"TokenV2_Flattened.sol\":78711:78838  function __ERC20Permit_init(string memory name) internal onlyInitializing {... */\n    tag_235:\n        /* \"TokenV2_Flattened.sol\":43098:43111  _initializing */\n      sload(0x00)\n      0x0100\n      swap1\n      div\n      0xff\n      and\n        /* \"TokenV2_Flattened.sol\":43090:43159  require(_initializing, \"Initializable: contract is not initializing\") */\n      tag_328\n      jumpi\n      mload(0x40)\n      0x08c379a000000000000000000000000000000000000000000000000000000000\n      dup2\n      mstore\n        /* \"#utility.yul\":16419:16421   */\n      0x20\n        /* \"TokenV2_Flattened.sol\":43090:43159  require(_initializing, \"Initializable: contract is not initializing\") */\n      0x04\n      dup3\n      add\n        /* \"#utility.yul\":16401:16422   */\n      mstore\n        /* \"#utility.yul\":16458:16460   */\n      0x2b\n        /* \"#utility.yul\":16438:16456   */\n      0x24\n      dup3\n      add\n        /* \"#utility.yul\":16431:16461   */\n      mstore\n        /* \"#utility.yul\":16497:16531   */\n      0x496e697469616c697a61626c653a20636f6e7472616374206973206e6f742069\n        /* \"#utility.yul\":16477:16495   */\n      0x44\n      dup3\n      add\n        /* \"#utility.yul\":16470:16532   */\n      mstore\n        /* \"#utility.yul\":16568:16581   */\n      0x6e697469616c697a696e67000000000000000000000000000000000000000000\n        /* \"#utility.yul\":16548:16566   */\n      0x64\n      dup3\n      add\n        /* \"#utility.yul\":16541:16582   */\n      mstore\n        /* \"#utility.yul\":16599:16618   */\n      0x84\n      add\n        /* \"TokenV2_Flattened.sol\":43090:43159  require(_initializing, \"Initializable: contract is not initializing\") */\n      tag_173\n        /* \"#utility.yul\":16217:16624   */\n      jump\n        /* \"TokenV2_Flattened.sol\":43090:43159  require(_initializing, \"Initializable: contract is not initializing\") */\n    tag_328:\n        /* \"TokenV2_Flattened.sol\":78796:78830  __EIP712_init_unchained(name, \"1\") */\n      tag_251\n        /* \"TokenV2_Flattened.sol\":78820:78824  name */\n      dup2\n        /* \"TokenV2_Flattened.sol\":78796:78830  __EIP712_init_unchained(name, \"1\") */\n      mload(0x40)\n      dup1\n      0x40\n      add\n      0x40\n      mstore\n      dup1\n      0x01\n      dup2\n      mstore\n      0x20\n      add\n      0x3100000000000000000000000000000000000000000000000000000000000000\n      dup2\n      mstore\n      pop\n        /* \"TokenV2_Flattened.sol\":78796:78819  __EIP712_init_unchained */\n      tag_332\n        /* \"TokenV2_Flattened.sol\":78796:78830  __EIP712_init_unchained(name, \"1\") */\n      jump\t// in\n        /* \"TokenV2_Flattened.sol\":81732:81829  function __Ownable_init() internal onlyInitializing {... */\n    tag_237:\n        /* \"TokenV2_Flattened.sol\":43098:43111  _initializing */\n      sload(0x00)\n      0x0100\n      swap1\n      div\n      0xff\n      and\n        /* \"TokenV2_Flattened.sol\":43090:43159  require(_initializing, \"Initializable: contract is not initializing\") */\n      tag_334\n      jumpi\n      mload(0x40)\n      0x08c379a000000000000000000000000000000000000000000000000000000000\n      dup2\n      mstore\n        /* \"#utility.yul\":16419:16421   */\n      0x20\n        /* \"TokenV2_Flattened.sol\":43090:43159  require(_initializing, \"Initializable: contract is not initializing\") */\n      0x04\n      dup3\n      add\n        /* \"#utility.yul\":16401:16422   */\n      mstore\n        /* \"#utility.yul\":16458:16460   */\n      0x2b\n        /* \"#utility.yul\":16438:16456   */\n      0x24\n      dup3\n      add\n        /* \"#utility.yul\":16431:16461   */\n      mstore\n        /* \"#utility.yul\":16497:16531   */\n      0x496e697469616c697a61626c653a20636f6e7472616374206973206e6f742069\n        /* \"#utility.yul\":16477:16495   */\n      0x44\n      dup3\n      add\n        /* \"#utility.yul\":16470:16532   */\n      mstore\n        /* \"#utility.yul\":16568:16581   */\n      0x6e697469616c697a696e67000000000000000000000000000000000000000000\n        /* \"#utility.yul\":16548:16566   */\n      0x64\n      dup3\n      add\n        /* \"#utility.yul\":16541:16582   */\n      mstore\n        /* \"#utility.yul\":16599:16618   */\n      0x84\n      add\n        /* \"TokenV2_Flattened.sol\":43090:43159  require(_initializing, \"Initializable: contract is not initializing\") */\n      tag_173\n        /* \"#utility.yul\":16217:16624   */\n      jump\n        /* \"TokenV2_Flattened.sol\":43090:43159  require(_initializing, \"Initializable: contract is not initializing\") */\n    tag_334:\n        /* \"TokenV2_Flattened.sol\":81795:81821  __Ownable_init_unchained() */\n      tag_165\n        /* \"TokenV2_Flattened.sol\":81795:81819  __Ownable_init_unchained */\n      tag_338\n        /* \"TokenV2_Flattened.sol\":81795:81821  __Ownable_init_unchained() */\n      jump\t// in\n        /* \"TokenV2_Flattened.sol\":58508:59056  function _mint(address account, uint256 amount) internal virtual {... */\n    tag_241:\n        /* \"TokenV2_Flattened.sol\":58592:58613  account != address(0) */\n      0xffffffffffffffffffffffffffffffffffffffff\n      dup3\n      and\n        /* \"TokenV2_Flattened.sol\":58584:58649  require(account != address(0), \"ERC20: mint to the zero address\") */\n      tag_340\n      jumpi\n      mload(0x40)\n      0x08c379a000000000000000000000000000000000000000000000000000000000\n      dup2\n      mstore\n        /* \"#utility.yul\":16831:16833   */\n      0x20\n        /* \"TokenV2_Flattened.sol\":58584:58649  require(account != address(0), \"ERC20: mint to the zero address\") */\n      0x04\n      dup3\n      add\n        /* \"#utility.yul\":16813:16834   */\n      mstore\n        /* \"#utility.yul\":16870:16872   */\n      0x1f\n        /* \"#utility.yul\":16850:16868   */\n      0x24\n      dup3\n      add\n        /* \"#utility.yul\":16843:16873   */\n      mstore\n        /* \"#utility.yul\":16909:16942   */\n      0x45524332303a206d696e7420746f20746865207a65726f206164647265737300\n        /* \"#utility.yul\":16889:16907   */\n      0x44\n      dup3\n      add\n        /* \"#utility.yul\":16882:16943   */\n      mstore\n        /* \"#utility.yul\":16960:16978   */\n      0x64\n      add\n        /* \"TokenV2_Flattened.sol\":58584:58649  require(account != address(0), \"ERC20: mint to the zero address\") */\n      tag_173\n        /* \"#utility.yul\":16629:16984   */\n      jump\n        /* \"TokenV2_Flattened.sol\":58584:58649  require(account != address(0), \"ERC20: mint to the zero address\") */\n    tag_340:\n        /* \"TokenV2_Flattened.sol\":58662:58711  _beforeTokenTransfer(address(0), account, amount) */\n      tag_343\n        /* \"TokenV2_Flattened.sol\":58691:58692  0 */\n      0x00\n        /* \"TokenV2_Flattened.sol\":58695:58702  account */\n      dup4\n        /* \"TokenV2_Flattened.sol\":58704:58710  amount */\n      dup4\n        /* \"TokenV2_Flattened.sol\":58662:58682  _beforeTokenTransfer */\n      tag_276\n        /* \"TokenV2_Flattened.sol\":58662:58711  _beforeTokenTransfer(address(0), account, amount) */\n      jump\t// in\n    tag_343:\n        /* \"TokenV2_Flattened.sol\":58740:58746  amount */\n      dup1\n        /* \"TokenV2_Flattened.sol\":58724:58736  _totalSupply */\n      0x35\n      0x00\n        /* \"TokenV2_Flattened.sol\":58724:58746  _totalSupply += amount */\n      dup3\n      dup3\n      sload\n      tag_344\n      swap2\n      swap1\n      tag_154\n      jump\t// in\n    tag_344:\n      swap1\n      swap2\n      sstore\n      pop\n      pop\n        /* \"TokenV2_Flattened.sol\":58895:58913  _balances[account] */\n      0xffffffffffffffffffffffffffffffffffffffff\n      dup3\n      and\n      0x00\n      dup2\n      dup2\n      mstore\n        /* \"TokenV2_Flattened.sol\":58895:58904  _balances */\n      0x33\n        /* \"TokenV2_Flattened.sol\":58895:58913  _balances[account] */\n      0x20\n      swap1\n      dup2\n      mstore\n      0x40\n      dup1\n      dup4\n      keccak256\n        /* \"TokenV2_Flattened.sol\":58895:58923  _balances[account] += amount */\n      dup1\n      sload\n      dup7\n      add\n      swap1\n      sstore\n        /* \"TokenV2_Flattened.sol\":58950:58987  Transfer(address(0), account, amount) */\n      mload\n        /* \"#utility.yul\":1524:1549   */\n      dup5\n      dup2\n      mstore\n        /* \"TokenV2_Flattened.sol\":58950:58987  Transfer(address(0), account, amount) */\n      0xddf252ad1be2c89b69c2b068fc378daa952ba7f163c4a11628f55a4df523b3ef\n      swap2\n        /* \"#utility.yul\":1497:1515   */\n      add\n        /* \"TokenV2_Flattened.sol\":58950:58987  Transfer(address(0), account, amount) */\n      mload(0x40)\n      dup1\n      swap2\n      sub\n      swap1\n      log3\n        /* \"TokenV2_Flattened.sol\":59000:59048  _afterTokenTransfer(address(0), account, amount) */\n      tag_325\n        /* \"TokenV2_Flattened.sol\":59028:59029  0 */\n      0x00\n        /* \"TokenV2_Flattened.sol\":59032:59039  account */\n      dup4\n        /* \"TokenV2_Flattened.sol\":59041:59047  amount */\n      dup4\n        /* \"TokenV2_Flattened.sol\":59000:59019  _afterTokenTransfer */\n      tag_282\n        /* \"TokenV2_Flattened.sol\":59000:59048  _afterTokenTransfer(address(0), account, amount) */\n      jump\t// in\n        /* \"TokenV2_Flattened.sol\":86643:87114  function _beforeTokenTransfer(address from, address to, uint256) internal view override {... */\n    tag_276:\n        /* \"TokenV2_Flattened.sol\":86746:86765  transferConstraints */\n      and(0xff, sload(0x0100))\n        /* \"TokenV2_Flattened.sol\":86742:87107  if (transferConstraints) {... */\n      iszero\n      tag_354\n      jumpi\n        /* \"TokenV2_Flattened.sol\":86794:86807  uniswapV2Pool */\n      0x0100\n      dup1\n      sload\n      div\n      0xffffffffffffffffffffffffffffffffffffffff\n      swap1\n      dup2\n      and\n        /* \"TokenV2_Flattened.sol\":86786:86807  from == uniswapV2Pool */\n      swap1\n      dup5\n      and\n      eq\n      dup1\n        /* \"TokenV2_Flattened.sol\":86786:86830  from == uniswapV2Pool || to == uniswapV2Pool */\n      tag_349\n      jumpi\n      pop\n        /* \"TokenV2_Flattened.sol\":86817:86830  uniswapV2Pool */\n      0x0100\n      dup1\n      sload\n      div\n      0xffffffffffffffffffffffffffffffffffffffff\n      swap1\n      dup2\n      and\n        /* \"TokenV2_Flattened.sol\":86811:86830  to == uniswapV2Pool */\n      swap1\n      dup4\n      and\n      eq\n        /* \"TokenV2_Flattened.sol\":86786:86830  from == uniswapV2Pool || to == uniswapV2Pool */\n    tag_349:\n        /* \"TokenV2_Flattened.sol\":86782:86931  if (from == uniswapV2Pool || to == uniswapV2Pool) {... */\n      iszero\n      tag_350\n      jumpi\n        /* \"TokenV2_Flattened.sol\":86851:86915  revert(\"Token: transfer to/from uniswap v2 pool is not allowed\") */\n      mload(0x40)\n      0x08c379a000000000000000000000000000000000000000000000000000000000\n      dup2\n      mstore\n        /* \"#utility.yul\":17191:17193   */\n      0x20\n        /* \"TokenV2_Flattened.sol\":86851:86915  revert(\"Token: transfer to/from uniswap v2 pool is not allowed\") */\n      0x04\n      dup3\n      add\n        /* \"#utility.yul\":17173:17194   */\n      mstore\n        /* \"#utility.yul\":17230:17232   */\n      0x36\n        /* \"#utility.yul\":17210:17228   */\n      0x24\n      dup3\n      add\n        /* \"#utility.yul\":17203:17233   */\n      mstore\n        /* \"#utility.yul\":17269:17303   */\n      0x546f6b656e3a207472616e7366657220746f2f66726f6d20756e697377617020\n        /* \"#utility.yul\":17249:17267   */\n      0x44\n      dup3\n      add\n        /* \"#utility.yul\":17242:17304   */\n      mstore\n        /* \"#utility.yul\":17340:17364   */\n      0x763220706f6f6c206973206e6f7420616c6c6f77656400000000000000000000\n        /* \"#utility.yul\":17320:17338   */\n      0x64\n      dup3\n      add\n        /* \"#utility.yul\":17313:17365   */\n      mstore\n        /* \"#utility.yul\":17382:17401   */\n      0x84\n      add\n        /* \"TokenV2_Flattened.sol\":86851:86915  revert(\"Token: transfer to/from uniswap v2 pool is not allowed\") */\n      tag_173\n        /* \"#utility.yul\":16989:17407   */\n      jump\n        /* \"TokenV2_Flattened.sol\":86782:86931  if (from == uniswapV2Pool || to == uniswapV2Pool) {... */\n    tag_350:\n        /* \"TokenV2_Flattened.sol\":86959:86972  uniswapV3Pool */\n      sload(0x0101)\n      0xffffffffffffffffffffffffffffffffffffffff\n        /* \"TokenV2_Flattened.sol\":86951:86972  from == uniswapV3Pool */\n      dup5\n      dup2\n      and\n        /* \"TokenV2_Flattened.sol\":86959:86972  uniswapV3Pool */\n      swap2\n      and\n        /* \"TokenV2_Flattened.sol\":86951:86972  from == uniswapV3Pool */\n      eq\n      dup1\n        /* \"TokenV2_Flattened.sol\":86951:86995  from == uniswapV3Pool || to == uniswapV3Pool */\n      tag_353\n      jumpi\n      pop\n        /* \"TokenV2_Flattened.sol\":86982:86995  uniswapV3Pool */\n      sload(0x0101)\n      0xffffffffffffffffffffffffffffffffffffffff\n        /* \"TokenV2_Flattened.sol\":86976:86995  to == uniswapV3Pool */\n      dup4\n      dup2\n      and\n        /* \"TokenV2_Flattened.sol\":86982:86995  uniswapV3Pool */\n      swap2\n      and\n        /* \"TokenV2_Flattened.sol\":86976:86995  to == uniswapV3Pool */\n      eq\n        /* \"TokenV2_Flattened.sol\":86951:86995  from == uniswapV3Pool || to == uniswapV3Pool */\n    tag_353:\n        /* \"TokenV2_Flattened.sol\":86947:87096  if (from == uniswapV3Pool || to == uniswapV3Pool) {... */\n      iszero\n      tag_354\n      jumpi\n        /* \"TokenV2_Flattened.sol\":87016:87080  revert(\"Token: transfer to/from uniswap v3 pool is not allowed\") */\n      mload(0x40)\n      0x08c379a000000000000000000000000000000000000000000000000000000000\n      dup2\n      mstore\n        /* \"#utility.yul\":17614:17616   */\n      0x20\n        /* \"TokenV2_Flattened.sol\":87016:87080  revert(\"Token: transfer to/from uniswap v3 pool is not allowed\") */\n      0x04\n      dup3\n      add\n        /* \"#utility.yul\":17596:17617   */\n      mstore\n        /* \"#utility.yul\":17653:17655   */\n      0x36\n        /* \"#utility.yul\":17633:17651   */\n      0x24\n      dup3\n      add\n        /* \"#utility.yul\":17626:17656   */\n      mstore\n        /* \"#utility.yul\":17692:17726   */\n      0x546f6b656e3a207472616e7366657220746f2f66726f6d20756e697377617020\n        /* \"#utility.yul\":17672:17690   */\n      0x44\n      dup3\n      add\n        /* \"#utility.yul\":17665:17727   */\n      mstore\n        /* \"#utility.yul\":17763:17787   */\n      0x763320706f6f6c206973206e6f7420616c6c6f77656400000000000000000000\n        /* \"#utility.yul\":17743:17761   */\n      0x64\n      dup3\n      add\n        /* \"#utility.yul\":17736:17788   */\n      mstore\n        /* \"#utility.yul\":17805:17824   */\n      0x84\n      add\n        /* \"TokenV2_Flattened.sol\":87016:87080  revert(\"Token: transfer to/from uniswap v3 pool is not allowed\") */\n      tag_173\n        /* \"#utility.yul\":17412:17830   */\n      jump\n        /* \"TokenV2_Flattened.sol\":86947:87096  if (from == uniswapV3Pool || to == uniswapV3Pool) {... */\n    tag_354:\n        /* \"TokenV2_Flattened.sol\":86643:87114  function _beforeTokenTransfer(address from, address to, uint256) internal view override {... */\n      pop\n      pop\n      pop\n      jump\t// out\n        /* \"TokenV2_Flattened.sol\":86433:86635  function _afterTokenTransfer(address from, address to, uint256 amount) internal override {... */\n    tag_282:\n        /* \"TokenV2_Flattened.sol\":86592:86627  TransferFlapToken(from, to, amount) */\n      0x40\n      dup1\n      mload\n        /* \"#utility.yul\":18047:18089   */\n      0xffffffffffffffffffffffffffffffffffffffff\n        /* \"#utility.yul\":18116:18131   */\n      dup1\n      dup7\n      and\n        /* \"#utility.yul\":18098:18132   */\n      dup3\n      mstore\n        /* \"#utility.yul\":18168:18183   */\n      dup5\n      and\n        /* \"#utility.yul\":18163:18165   */\n      0x20\n        /* \"#utility.yul\":18148:18166   */\n      dup3\n      add\n        /* \"#utility.yul\":18141:18184   */\n      mstore\n        /* \"#utility.yul\":18200:18218   */\n      swap1\n      dup2\n      add\n        /* \"#utility.yul\":18193:18227   */\n      dup3\n      swap1\n      mstore\n        /* \"TokenV2_Flattened.sol\":86592:86627  TransferFlapToken(from, to, amount) */\n      0xc4f02cd43bed595a7c3ee13e0ee1ec639470a7a0f374837ee7b910779d55f5ba\n      swap1\n        /* \"#utility.yul\":18025:18027   */\n      0x60\n        /* \"#utility.yul\":18010:18028   */\n      add\n        /* \"TokenV2_Flattened.sol\":86592:86627  TransferFlapToken(from, to, amount) */\n      mload(0x40)\n      dup1\n      swap2\n      sub\n      swap1\n      log1\n        /* \"TokenV2_Flattened.sol\":86433:86635  function _afterTokenTransfer(address from, address to, uint256 amount) internal override {... */\n      pop\n      pop\n      pop\n      jump\t// out\n        /* \"TokenV2_Flattened.sol\":72112:72306  function _buildDomainSeparator() private view returns (bytes32) {... */\n    tag_285:\n        /* \"TokenV2_Flattened.sol\":72167:72174  bytes32 */\n      0x00\n        /* \"TokenV2_Flattened.sol\":70564:70659  keccak256(\"EIP712Domain(string name,string version,uint256 chainId,address verifyingContract)\") */\n      0x8b73c3c69bb8fe3d512ecc4cf759cc79239f7b179b0ffacaa9a75d522b39400f\n        /* \"TokenV2_Flattened.sol\":72227:72244  _EIP712NameHash() */\n      tag_361\n        /* \"TokenV2_Flattened.sol\":72227:72242  _EIP712NameHash */\n      tag_362\n        /* \"TokenV2_Flattened.sol\":72227:72244  _EIP712NameHash() */\n      jump\t// in\n    tag_361:\n        /* \"TokenV2_Flattened.sol\":72246:72266  _EIP712VersionHash() */\n      tag_363\n        /* \"TokenV2_Flattened.sol\":72246:72264  _EIP712VersionHash */\n      tag_364\n        /* \"TokenV2_Flattened.sol\":72246:72266  _EIP712VersionHash() */\n      jump\t// in\n    tag_363:\n        /* \"TokenV2_Flattened.sol\":72204:72297  abi.encode(_TYPE_HASH, _EIP712NameHash(), _EIP712VersionHash(), block.chainid, address(this)) */\n      0x40\n      dup1\n      mload\n      0x20\n      dup2\n      add\n        /* \"#utility.yul\":18497:18522   */\n      swap5\n      swap1\n      swap5\n      mstore\n        /* \"#utility.yul\":18538:18556   */\n      dup4\n      add\n        /* \"#utility.yul\":18531:18565   */\n      swap2\n      swap1\n      swap2\n      mstore\n        /* \"#utility.yul\":18581:18599   */\n      0x60\n      dup3\n      add\n        /* \"#utility.yul\":18574:18608   */\n      mstore\n        /* \"TokenV2_Flattened.sol\":72268:72281  block.chainid */\n      chainid\n        /* \"#utility.yul\":18624:18642   */\n      0x80\n      dup3\n      add\n        /* \"#utility.yul\":18617:18651   */\n      mstore\n        /* \"TokenV2_Flattened.sol\":72291:72295  this */\n      address\n        /* \"#utility.yul\":18667:18686   */\n      0xa0\n      dup3\n      add\n        /* \"#utility.yul\":18660:18744   */\n      mstore\n        /* \"#utility.yul\":18469:18488   */\n      0xc0\n      add\n        /* \"TokenV2_Flattened.sol\":72204:72297  abi.encode(_TYPE_HASH, _EIP712NameHash(), _EIP712VersionHash(), block.chainid, address(this)) */\n      mload(0x40)\n      0x20\n      dup2\n      dup4\n      sub\n      sub\n      dup2\n      mstore\n      swap1\n      0x40\n      mstore\n        /* \"TokenV2_Flattened.sol\":72194:72298  keccak256(abi.encode(_TYPE_HASH, _EIP712NameHash(), _EIP712VersionHash(), block.chainid, address(this))) */\n      dup1\n      mload\n      swap1\n      0x20\n      add\n      keccak256\n        /* \"TokenV2_Flattened.sol\":72187:72298  return keccak256(abi.encode(_TYPE_HASH, _EIP712NameHash(), _EIP712VersionHash(), block.chainid, address(this))) */\n      swap1\n      pop\n        /* \"TokenV2_Flattened.sol\":72112:72306  function _buildDomainSeparator() private view returns (bytes32) {... */\n      swap1\n      jump\t// out\n        /* \"TokenV2_Flattened.sol\":22889:24371  function tryRecover(bytes32 hash, uint8 v, bytes32 r, bytes32 s) internal pure returns (address, RecoverError) {... */\n    tag_316:\n        /* \"TokenV2_Flattened.sol\":22977:22984  address */\n      0x00\n      dup1\n        /* \"TokenV2_Flattened.sol\":23916:23982  0x7FFFFFFFFFFFFFFFFFFFFFFFFFFFFFFF5D576E7357A4501DDFE92F46681B20A0 */\n      0x7fffffffffffffffffffffffffffffff5d576e7357a4501ddfe92f46681b20a0\n        /* \"TokenV2_Flattened.sol\":23903:23982  uint256(s) > 0x7FFFFFFFFFFFFFFFFFFFFFFFFFFFFFFF5D576E7357A4501DDFE92F46681B20A0 */\n      dup4\n      gt\n        /* \"TokenV2_Flattened.sol\":23899:24062  if (uint256(s) > 0x7FFFFFFFFFFFFFFFFFFFFFFFFFFFFFFF5D576E7357A4501DDFE92F46681B20A0) {... */\n      iszero\n      tag_370\n      jumpi\n      pop\n        /* \"TokenV2_Flattened.sol\":24015:24016  0 */\n      0x00\n      swap1\n      pop\n        /* \"TokenV2_Flattened.sol\":24019:24049  RecoverError.InvalidSignatureS */\n      0x03\n        /* \"TokenV2_Flattened.sol\":23999:24050  return (address(0), RecoverError.InvalidSignatureS) */\n      jump(tag_369)\n        /* \"TokenV2_Flattened.sol\":23899:24062  if (uint256(s) > 0x7FFFFFFFFFFFFFFFFFFFFFFFFFFFFFFF5D576E7357A4501DDFE92F46681B20A0) {... */\n    tag_370:\n        /* \"TokenV2_Flattened.sol\":24176:24200  ecrecover(hash, v, r, s) */\n      0x40\n      dup1\n      mload\n        /* \"TokenV2_Flattened.sol\":24159:24173  address signer */\n      0x00\n        /* \"TokenV2_Flattened.sol\":24176:24200  ecrecover(hash, v, r, s) */\n      dup1\n      dup3\n      mstore\n      0x20\n      dup3\n      add\n      dup1\n      dup5\n      mstore\n        /* \"#utility.yul\":18982:19007   */\n      dup10\n      swap1\n      mstore\n        /* \"#utility.yul\":19055:19059   */\n      0xff\n        /* \"#utility.yul\":19043:19060   */\n      dup9\n      and\n        /* \"#utility.yul\":19023:19041   */\n      swap3\n      dup3\n      add\n        /* \"#utility.yul\":19016:19061   */\n      swap3\n      swap1\n      swap3\n      mstore\n        /* \"#utility.yul\":19077:19095   */\n      0x60\n      dup2\n      add\n        /* \"#utility.yul\":19070:19104   */\n      dup7\n      swap1\n      mstore\n        /* \"#utility.yul\":19120:19138   */\n      0x80\n      dup2\n      add\n        /* \"#utility.yul\":19113:19147   */\n      dup6\n      swap1\n      mstore\n        /* \"TokenV2_Flattened.sol\":24176:24200  ecrecover(hash, v, r, s) */\n      0x01\n      swap1\n        /* \"#utility.yul\":18954:18973   */\n      0xa0\n      add\n        /* \"TokenV2_Flattened.sol\":24176:24200  ecrecover(hash, v, r, s) */\n      0x20\n      mload(0x40)\n      0x20\n      dup2\n      sub\n      swap1\n      dup1\n      dup5\n      sub\n      swap1\n      dup6\n      gas\n      staticcall\n      iszero\n      dup1\n      iszero\n      tag_374\n      jumpi\n      returndatasize\n      0x00\n      dup1\n      returndatacopy\n      revert(0x00, returndatasize)\n    tag_374:\n      pop\n      pop\n      mload(add(0xffffffffffffffffffffffffffffffffffffffffffffffffffffffffffffffe0, mload(0x40)))\n      swap2\n      pop\n      pop\n        /* \"TokenV2_Flattened.sol\":24215:24235  signer == address(0) */\n      0xffffffffffffffffffffffffffffffffffffffff\n      dup2\n      and\n        /* \"TokenV2_Flattened.sol\":24211:24314  if (signer == address(0)) {... */\n      tag_375\n      jumpi\n        /* \"TokenV2_Flattened.sol\":24268:24269  0 */\n      0x00\n        /* \"TokenV2_Flattened.sol\":24272:24301  RecoverError.InvalidSignature */\n      0x01\n        /* \"TokenV2_Flattened.sol\":24252:24302  return (address(0), RecoverError.InvalidSignature) */\n      swap3\n      pop\n      swap3\n      pop\n      pop\n      jump(tag_369)\n        /* \"TokenV2_Flattened.sol\":24211:24314  if (signer == address(0)) {... */\n    tag_375:\n        /* \"TokenV2_Flattened.sol\":24334:24340  signer */\n      swap2\n      pop\n        /* \"TokenV2_Flattened.sol\":24342:24362  RecoverError.NoError */\n      0x00\n      swap1\n      pop\n        /* \"TokenV2_Flattened.sol\":22889:24371  function tryRecover(bytes32 hash, uint8 v, bytes32 r, bytes32 s) internal pure returns (address, RecoverError) {... */\n    tag_369:\n      swap5\n      pop\n      swap5\n      swap3\n      pop\n      pop\n      pop\n      jump\t// out\n        /* \"TokenV2_Flattened.sol\":18349:18870  function _throwError(RecoverError error) private pure {... */\n    tag_318:\n        /* \"TokenV2_Flattened.sol\":18427:18447  RecoverError.NoError */\n      0x00\n        /* \"TokenV2_Flattened.sol\":18418:18423  error */\n      dup2\n        /* \"TokenV2_Flattened.sol\":18418:18447  error == RecoverError.NoError */\n      0x04\n      dup2\n      gt\n      iszero\n      tag_381\n      jumpi\n      tag_381\n      tag_379\n      jump\t// in\n    tag_381:\n      sub\n        /* \"TokenV2_Flattened.sol\":18414:18863  if (error == RecoverError.NoError) {... */\n      tag_382\n      jumpi\n        /* \"TokenV2_Flattened.sol\":18349:18870  function _throwError(RecoverError error) private pure {... */\n      pop\n      jump\t// out\n        /* \"TokenV2_Flattened.sol\":18414:18863  if (error == RecoverError.NoError) {... */\n    tag_382:\n        /* \"TokenV2_Flattened.sol\":18525:18554  RecoverError.InvalidSignature */\n      0x01\n        /* \"TokenV2_Flattened.sol\":18516:18521  error */\n      dup2\n        /* \"TokenV2_Flattened.sol\":18516:18554  error == RecoverError.InvalidSignature */\n      0x04\n      dup2\n      gt\n      iszero\n      tag_387\n      jumpi\n      tag_387\n      tag_379\n      jump\t// in\n    tag_387:\n      sub\n        /* \"TokenV2_Flattened.sol\":18512:18863  if (error == RecoverError.InvalidSignature) {... */\n      tag_388\n      jumpi\n        /* \"TokenV2_Flattened.sol\":18571:18605  revert(\"ECDSA: invalid signature\") */\n      mload(0x40)\n      0x08c379a000000000000000000000000000000000000000000000000000000000\n      dup2\n      mstore\n        /* \"#utility.yul\":19549:19551   */\n      0x20\n        /* \"TokenV2_Flattened.sol\":18571:18605  revert(\"ECDSA: invalid signature\") */\n      0x04\n      dup3\n      add\n        /* \"#utility.yul\":19531:19552   */\n      mstore\n        /* \"#utility.yul\":19588:19590   */\n      0x18\n        /* \"#utility.yul\":19568:19586   */\n      0x24\n      dup3\n      add\n        /* \"#utility.yul\":19561:19591   */\n      mstore\n        /* \"#utility.yul\":19627:19653   */\n      0x45434453413a20696e76616c6964207369676e61747572650000000000000000\n        /* \"#utility.yul\":19607:19625   */\n      0x44\n      dup3\n      add\n        /* \"#utility.yul\":19600:19654   */\n      mstore\n        /* \"#utility.yul\":19671:19689   */\n      0x64\n      add\n        /* \"TokenV2_Flattened.sol\":18571:18605  revert(\"ECDSA: invalid signature\") */\n      tag_173\n        /* \"#utility.yul\":19347:19695   */\n      jump\n        /* \"TokenV2_Flattened.sol\":18512:18863  if (error == RecoverError.InvalidSignature) {... */\n    tag_388:\n        /* \"TokenV2_Flattened.sol\":18636:18671  RecoverError.InvalidSignatureLength */\n      0x02\n        /* \"TokenV2_Flattened.sol\":18627:18632  error */\n      dup2\n        /* \"TokenV2_Flattened.sol\":18627:18671  error == RecoverError.InvalidSignatureLength */\n      0x04\n      dup2\n      gt\n      iszero\n      tag_395\n      jumpi\n      tag_395\n      tag_379\n      jump\t// in\n    tag_395:\n      sub\n        /* \"TokenV2_Flattened.sol\":18623:18863  if (error == RecoverError.InvalidSignatureLength) {... */\n      tag_396\n      jumpi\n        /* \"TokenV2_Flattened.sol\":18688:18729  revert(\"ECDSA: invalid signature length\") */\n      mload(0x40)\n      0x08c379a000000000000000000000000000000000000000000000000000000000\n      dup2\n      mstore\n        /* \"#utility.yul\":19902:19904   */\n      0x20\n        /* \"TokenV2_Flattened.sol\":18688:18729  revert(\"ECDSA: invalid signature length\") */\n      0x04\n      dup3\n      add\n        /* \"#utility.yul\":19884:19905   */\n      mstore\n        /* \"#utility.yul\":19941:19943   */\n      0x1f\n        /* \"#utility.yul\":19921:19939   */\n      0x24\n      dup3\n      add\n        /* \"#utility.yul\":19914:19944   */\n      mstore\n        /* \"#utility.yul\":19980:20013   */\n      0x45434453413a20696e76616c6964207369676e6174757265206c656e67746800\n        /* \"#utility.yul\":19960:19978   */\n      0x44\n      dup3\n      add\n        /* \"#utility.yul\":19953:20014   */\n      mstore\n        /* \"#utility.yul\":20031:20049   */\n      0x64\n      add\n        /* \"TokenV2_Flattened.sol\":18688:18729  revert(\"ECDSA: invalid signature length\") */\n      tag_173\n        /* \"#utility.yul\":19700:20055   */\n      jump\n        /* \"TokenV2_Flattened.sol\":18623:18863  if (error == RecoverError.InvalidSignatureLength) {... */\n    tag_396:\n        /* \"TokenV2_Flattened.sol\":18760:18790  RecoverError.InvalidSignatureS */\n      0x03\n        /* \"TokenV2_Flattened.sol\":18751:18756  error */\n      dup2\n        /* \"TokenV2_Flattened.sol\":18751:18790  error == RecoverError.InvalidSignatureS */\n      0x04\n      dup2\n      gt\n      iszero\n      tag_403\n      jumpi\n      tag_403\n      tag_379\n      jump\t// in\n    tag_403:\n      sub\n        /* \"TokenV2_Flattened.sol\":18747:18863  if (error == RecoverError.InvalidSignatureS) {... */\n      tag_251\n      jumpi\n        /* \"TokenV2_Flattened.sol\":18807:18851  revert(\"ECDSA: invalid signature 's' value\") */\n      mload(0x40)\n      0x08c379a000000000000000000000000000000000000000000000000000000000\n      dup2\n      mstore\n        /* \"#utility.yul\":20262:20264   */\n      0x20\n        /* \"TokenV2_Flattened.sol\":18807:18851  revert(\"ECDSA: invalid signature 's' value\") */\n      0x04\n      dup3\n      add\n        /* \"#utility.yul\":20244:20265   */\n      mstore\n        /* \"#utility.yul\":20301:20303   */\n      0x22\n        /* \"#utility.yul\":20281:20299   */\n      0x24\n      dup3\n      add\n        /* \"#utility.yul\":20274:20304   */\n      mstore\n        /* \"#utility.yul\":20340:20374   */\n      0x45434453413a20696e76616c6964207369676e6174757265202773272076616c\n        /* \"#utility.yul\":20320:20338   */\n      0x44\n      dup3\n      add\n        /* \"#utility.yul\":20313:20375   */\n      mstore\n        /* \"#utility.yul\":20411:20415   */\n      0x7565000000000000000000000000000000000000000000000000000000000000\n        /* \"#utility.yul\":20391:20409   */\n      0x64\n      dup3\n      add\n        /* \"#utility.yul\":20384:20416   */\n      mstore\n        /* \"#utility.yul\":20433:20452   */\n      0x84\n      add\n        /* \"TokenV2_Flattened.sol\":18807:18851  revert(\"ECDSA: invalid signature 's' value\") */\n      tag_173\n        /* \"#utility.yul\":20060:20458   */\n      jump\n        /* \"TokenV2_Flattened.sol\":51725:51887  function __ERC20_init_unchained(string memory name_, string memory symbol_) internal onlyInitializing {... */\n    tag_326:\n        /* \"TokenV2_Flattened.sol\":43098:43111  _initializing */\n      sload(0x00)\n      0x0100\n      swap1\n      div\n      0xff\n      and\n        /* \"TokenV2_Flattened.sol\":43090:43159  require(_initializing, \"Initializable: contract is not initializing\") */\n      tag_408\n      jumpi\n      mload(0x40)\n      0x08c379a000000000000000000000000000000000000000000000000000000000\n      dup2\n      mstore\n        /* \"#utility.yul\":16419:16421   */\n      0x20\n        /* \"TokenV2_Flattened.sol\":43090:43159  require(_initializing, \"Initializable: contract is not initializing\") */\n      0x04\n      dup3\n      add\n        /* \"#utility.yul\":16401:16422   */\n      mstore\n        /* \"#utility.yul\":16458:16460   */\n      0x2b\n        /* \"#utility.yul\":16438:16456   */\n      0x24\n      dup3\n      add\n        /* \"#utility.yul\":16431:16461   */\n      mstore\n        /* \"#utility.yul\":16497:16531   */\n      0x496e697469616c697a61626c653a20636f6e7472616374206973206e6f742069\n        /* \"#utility.yul\":16477:16495   */\n      0x44\n      dup3\n      add\n        /* \"#utility.yul\":16470:16532   */\n      mstore\n        /* \"#utility.yul\":16568:16581   */\n      0x6e697469616c697a696e67000000000000000000000000000000000000000000\n        /* \"#utility.yul\":16548:16566   */\n      0x64\n      dup3\n      add\n        /* \"#utility.yul\":16541:16582   */\n      mstore\n        /* \"#utility.yul\":16599:16618   */\n      0x84\n      add\n        /* \"TokenV2_Flattened.sol\":43090:43159  require(_initializing, \"Initializable: contract is not initializing\") */\n      tag_173\n        /* \"#utility.yul\":16217:16624   */\n      jump\n        /* \"TokenV2_Flattened.sol\":43090:43159  require(_initializing, \"Initializable: contract is not initializing\") */\n    tag_408:\n        /* \"TokenV2_Flattened.sol\":51838:51843  _name */\n      0x36\n        /* \"TokenV2_Flattened.sol\":51838:51851  _name = name_ */\n      tag_411\n        /* \"TokenV2_Flattened.sol\":51846:51851  name_ */\n      dup4\n        /* \"TokenV2_Flattened.sol\":51838:51843  _name */\n      dup3\n        /* \"TokenV2_Flattened.sol\":51838:51851  _name = name_ */\n      tag_239\n      jump\t// in\n    tag_411:\n      pop\n        /* \"TokenV2_Flattened.sol\":51862:51869  _symbol */\n      0x37\n        /* \"TokenV2_Flattened.sol\":51862:51879  _symbol = symbol_ */\n      tag_354\n        /* \"TokenV2_Flattened.sol\":51872:51879  symbol_ */\n      dup3\n        /* \"TokenV2_Flattened.sol\":51862:51869  _symbol */\n      dup3\n        /* \"TokenV2_Flattened.sol\":51862:51879  _symbol = symbol_ */\n      tag_239\n      jump\t// in\n        /* \"TokenV2_Flattened.sol\":71628:71902  function __EIP712_init_unchained(string memory name, string memory version) internal onlyInitializing {... */\n    tag_332:\n        /* \"TokenV2_Flattened.sol\":43098:43111  _initializing */\n      sload(0x00)\n      0x0100\n      swap1\n      div\n      0xff\n      and\n        /* \"TokenV2_Flattened.sol\":43090:43159  require(_initializing, \"Initializable: contract is not initializing\") */\n      tag_414\n      jumpi\n      mload(0x40)\n      0x08c379a000000000000000000000000000000000000000000000000000000000\n      dup2\n      mstore\n        /* \"#utility.yul\":16419:16421   */\n      0x20\n        /* \"TokenV2_Flattened.sol\":43090:43159  require(_initializing, \"Initializable: contract is not initializing\") */\n      0x04\n      dup3\n      add\n        /* \"#utility.yul\":16401:16422   */\n      mstore\n        /* \"#utility.yul\":16458:16460   */\n      0x2b\n        /* \"#utility.yul\":16438:16456   */\n      0x24\n      dup3\n      add\n        /* \"#utility.yul\":16431:16461   */\n      mstore\n        /* \"#utility.yul\":16497:16531   */\n      0x496e697469616c697a61626c653a20636f6e7472616374206973206e6f742069\n        /* \"#utility.yul\":16477:16495   */\n      0x44\n      dup3\n      add\n        /* \"#utility.yul\":16470:16532   */\n      mstore\n        /* \"#utility.yul\":16568:16581   */\n      0x6e697469616c697a696e67000000000000000000000000000000000000000000\n        /* \"#utility.yul\":16548:16566   */\n      0x64\n      dup3\n      add\n        /* \"#utility.yul\":16541:16582   */\n      mstore\n        /* \"#utility.yul\":16599:16618   */\n      0x84\n      add\n        /* \"TokenV2_Flattened.sol\":43090:43159  require(_initializing, \"Initializable: contract is not initializing\") */\n      tag_173\n        /* \"#utility.yul\":16217:16624   */\n      jump\n        /* \"TokenV2_Flattened.sol\":43090:43159  require(_initializing, \"Initializable: contract is not initializing\") */\n    tag_414:\n        /* \"TokenV2_Flattened.sol\":71741:71746  _name */\n      0x67\n        /* \"TokenV2_Flattened.sol\":71741:71753  _name = name */\n      tag_417\n        /* \"TokenV2_Flattened.sol\":71749:71753  name */\n      dup4\n        /* \"TokenV2_Flattened.sol\":71741:71746  _name */\n      dup3\n        /* \"TokenV2_Flattened.sol\":71741:71753  _name = name */\n      tag_239\n      jump\t// in\n    tag_417:\n      pop\n        /* \"TokenV2_Flattened.sol\":71764:71772  _version */\n      0x68\n        /* \"TokenV2_Flattened.sol\":71764:71782  _version = version */\n      tag_418\n        /* \"TokenV2_Flattened.sol\":71775:71782  version */\n      dup3\n        /* \"TokenV2_Flattened.sol\":71764:71772  _version */\n      dup3\n        /* \"TokenV2_Flattened.sol\":71764:71782  _version = version */\n      tag_239\n      jump\t// in\n    tag_418:\n      pop\n      pop\n        /* \"TokenV2_Flattened.sol\":71864:71865  0 */\n      0x00\n        /* \"TokenV2_Flattened.sol\":71850:71861  _hashedName */\n      0x65\n        /* \"TokenV2_Flattened.sol\":71850:71865  _hashedName = 0 */\n      dup2\n      swap1\n      sstore\n        /* \"TokenV2_Flattened.sol\":71876:71890  _hashedVersion */\n      0x66\n        /* \"TokenV2_Flattened.sol\":71876:71894  _hashedVersion = 0 */\n      sstore\n      pop\n        /* \"TokenV2_Flattened.sol\":71628:71902  function __EIP712_init_unchained(string memory name, string memory version) internal onlyInitializing {... */\n      jump\t// out\n        /* \"TokenV2_Flattened.sol\":81837:81950  function __Ownable_init_unchained() internal onlyInitializing {... */\n    tag_338:\n        /* \"TokenV2_Flattened.sol\":43098:43111  _initializing */\n      sload(0x00)\n      0x0100\n      swap1\n      div\n      0xff\n      and\n        /* \"TokenV2_Flattened.sol\":43090:43159  require(_initializing, \"Initializable: contract is not initializing\") */\n      tag_420\n      jumpi\n      mload(0x40)\n      0x08c379a000000000000000000000000000000000000000000000000000000000\n      dup2\n      mstore\n        /* \"#utility.yul\":16419:16421   */\n      0x20\n        /* \"TokenV2_Flattened.sol\":43090:43159  require(_initializing, \"Initializable: contract is not initializing\") */\n      0x04\n      dup3\n      add\n        /* \"#utility.yul\":16401:16422   */\n      mstore\n        /* \"#utility.yul\":16458:16460   */\n      0x2b\n        /* \"#utility.yul\":16438:16456   */\n      0x24\n      dup3\n      add\n        /* \"#utility.yul\":16431:16461   */\n      mstore\n        /* \"#utility.yul\":16497:16531   */\n      0x496e697469616c697a61626c653a20636f6e7472616374206973206e6f742069\n        /* \"#utility.yul\":16477:16495   */\n      0x44\n      dup3\n      add\n        /* \"#utility.yul\":16470:16532   */\n      mstore\n        /* \"#utility.yul\":16568:16581   */\n      0x6e697469616c697a696e67000000000000000000000000000000000000000000\n        /* \"#utility.yul\":16548:16566   */\n      0x64\n      dup3\n      add\n        /* \"#utility.yul\":16541:16582   */\n      mstore\n        /* \"#utility.yul\":16599:16618   */\n      0x84\n      add\n        /* \"TokenV2_Flattened.sol\":43090:43159  require(_initializing, \"Initializable: contract is not initializing\") */\n      tag_173\n        /* \"#utility.yul\":16217:16624   */\n      jump\n        /* \"TokenV2_Flattened.sol\":43090:43159  require(_initializing, \"Initializable: contract is not initializing\") */\n    tag_420:\n        /* \"TokenV2_Flattened.sol\":81910:81942  _transferOwnership(_msgSender()) */\n      tag_165\n        /* \"TokenV2_Flattened.sol\":45360:45370  msg.sender */\n      caller\n        /* \"TokenV2_Flattened.sol\":81910:81928  _transferOwnership */\n      tag_166\n        /* \"TokenV2_Flattened.sol\":81910:81942  _transferOwnership(_msgSender()) */\n      jump\t// in\n        /* \"TokenV2_Flattened.sol\":75005:75649  function _EIP712NameHash() internal view returns (bytes32) {... */\n    tag_362:\n        /* \"TokenV2_Flattened.sol\":75055:75062  bytes32 */\n      0x00\n        /* \"TokenV2_Flattened.sol\":75075:75093  string memory name */\n      dup1\n        /* \"TokenV2_Flattened.sol\":75096:75109  _EIP712Name() */\n      tag_426\n        /* \"TokenV2_Flattened.sol\":75096:75107  _EIP712Name */\n      tag_176\n        /* \"TokenV2_Flattened.sol\":75096:75109  _EIP712Name() */\n      jump\t// in\n    tag_426:\n        /* \"TokenV2_Flattened.sol\":75124:75142  bytes(name).length */\n      dup1\n      mload\n        /* \"TokenV2_Flattened.sol\":75075:75109  string memory name = _EIP712Name() */\n      swap1\n      swap2\n      pop\n        /* \"TokenV2_Flattened.sol\":75124:75146  bytes(name).length > 0 */\n      iszero\n        /* \"TokenV2_Flattened.sol\":75120:75642  if (bytes(name).length > 0) {... */\n      tag_427\n      jumpi\n        /* \"TokenV2_Flattened.sol\":75170:75192  keccak256(bytes(name)) */\n      dup1\n      mload\n      0x20\n      swap1\n      swap2\n      add\n      keccak256\n      swap2\n        /* \"TokenV2_Flattened.sol\":75005:75649  function _EIP712NameHash() internal view returns (bytes32) {... */\n      swap1\n      pop\n      jump\t// out\n        /* \"TokenV2_Flattened.sol\":75120:75642  if (bytes(name).length > 0) {... */\n    tag_427:\n        /* \"TokenV2_Flattened.sol\":75471:75482  _hashedName */\n      sload(0x65)\n        /* \"TokenV2_Flattened.sol\":75501:75516  hashedName != 0 */\n      dup1\n      iszero\n        /* \"TokenV2_Flattened.sol\":75497:75631  if (hashedName != 0) {... */\n      tag_429\n      jumpi\n        /* \"TokenV2_Flattened.sol\":75544:75554  hashedName */\n      swap3\n        /* \"TokenV2_Flattened.sol\":75005:75649  function _EIP712NameHash() internal view returns (bytes32) {... */\n      swap2\n      pop\n      pop\n      jump\t// out\n        /* \"TokenV2_Flattened.sol\":75497:75631  if (hashedName != 0) {... */\n    tag_429:\n        /* \"TokenV2_Flattened.sol\":75602:75615  keccak256(\"\") */\n      0xc5d2460186f7233c927e7db2dcc703c0e500b653ca82273b7bfad8045d85a470\n        /* \"TokenV2_Flattened.sol\":75595:75615  return keccak256(\"\") */\n      swap3\n      pop\n      pop\n      pop\n        /* \"TokenV2_Flattened.sol\":75005:75649  function _EIP712NameHash() internal view returns (bytes32) {... */\n      swap1\n      jump\t// out\n        /* \"TokenV2_Flattened.sol\":75877:76557  function _EIP712VersionHash() internal view returns (bytes32) {... */\n    tag_364:\n        /* \"TokenV2_Flattened.sol\":75930:75937  bytes32 */\n      0x00\n        /* \"TokenV2_Flattened.sol\":75950:75971  string memory version */\n      dup1\n        /* \"TokenV2_Flattened.sol\":75974:75990  _EIP712Version() */\n      tag_432\n        /* \"TokenV2_Flattened.sol\":75974:75988  _EIP712Version */\n      tag_178\n        /* \"TokenV2_Flattened.sol\":75974:75990  _EIP712Version() */\n      jump\t// in\n    tag_432:\n        /* \"TokenV2_Flattened.sol\":76005:76026  bytes(version).length */\n      dup1\n      mload\n        /* \"TokenV2_Flattened.sol\":75950:75990  string memory version = _EIP712Version() */\n      swap1\n      swap2\n      pop\n        /* \"TokenV2_Flattened.sol\":76005:76030  bytes(version).length > 0 */\n      iszero\n        /* \"TokenV2_Flattened.sol\":76001:76550  if (bytes(version).length > 0) {... */\n      tag_433\n      jumpi\n        /* \"TokenV2_Flattened.sol\":76054:76079  keccak256(bytes(version)) */\n      dup1\n      mload\n      0x20\n      swap1\n      swap2\n      add\n      keccak256\n      swap2\n        /* \"TokenV2_Flattened.sol\":75877:76557  function _EIP712VersionHash() internal view returns (bytes32) {... */\n      swap1\n      pop\n      jump\t// out\n        /* \"TokenV2_Flattened.sol\":76001:76550  if (bytes(version).length > 0) {... */\n    tag_433:\n        /* \"TokenV2_Flattened.sol\":76370:76384  _hashedVersion */\n      sload(0x66)\n        /* \"TokenV2_Flattened.sol\":76403:76421  hashedVersion != 0 */\n      dup1\n      iszero\n        /* \"TokenV2_Flattened.sol\":76399:76539  if (hashedVersion != 0) {... */\n      tag_429\n      jumpi\n        /* \"TokenV2_Flattened.sol\":76449:76462  hashedVersion */\n      swap3\n        /* \"TokenV2_Flattened.sol\":75877:76557  function _EIP712VersionHash() internal view returns (bytes32) {... */\n      swap2\n      pop\n      pop\n      jump\t// out\n        /* \"#utility.yul\":14:496   */\n    tag_437:\n        /* \"#utility.yul\":56:59   */\n      0x00\n        /* \"#utility.yul\":94:99   */\n      dup2\n        /* \"#utility.yul\":88:100   */\n      mload\n        /* \"#utility.yul\":121:127   */\n      dup1\n        /* \"#utility.yul\":116:119   */\n      dup5\n        /* \"#utility.yul\":109:128   */\n      mstore\n        /* \"#utility.yul\":146:147   */\n      0x00\n        /* \"#utility.yul\":156:318   */\n    tag_445:\n        /* \"#utility.yul\":170:176   */\n      dup2\n        /* \"#utility.yul\":167:168   */\n      dup2\n        /* \"#utility.yul\":164:177   */\n      lt\n        /* \"#utility.yul\":156:318   */\n      iszero\n      tag_447\n      jumpi\n        /* \"#utility.yul\":232:236   */\n      0x20\n        /* \"#utility.yul\":288:301   */\n      dup2\n      dup6\n      add\n        /* \"#utility.yul\":284:306   */\n      dup2\n      add\n        /* \"#utility.yul\":278:307   */\n      mload\n        /* \"#utility.yul\":260:271   */\n      dup7\n      dup4\n      add\n        /* \"#utility.yul\":256:276   */\n      dup3\n      add\n        /* \"#utility.yul\":249:308   */\n      mstore\n        /* \"#utility.yul\":185:197   */\n      add\n        /* \"#utility.yul\":156:318   */\n      jump(tag_445)\n    tag_447:\n        /* \"#utility.yul\":160:163   */\n      pop\n        /* \"#utility.yul\":363:364   */\n      0x00\n        /* \"#utility.yul\":356:360   */\n      0x20\n        /* \"#utility.yul\":347:353   */\n      dup3\n        /* \"#utility.yul\":342:345   */\n      dup7\n        /* \"#utility.yul\":338:354   */\n      add\n        /* \"#utility.yul\":334:361   */\n      add\n        /* \"#utility.yul\":327:365   */\n      mstore\n        /* \"#utility.yul\":485:489   */\n      0x20\n        /* \"#utility.yul\":415:481   */\n      0xffffffffffffffffffffffffffffffffffffffffffffffffffffffffffffffe0\n        /* \"#utility.yul\":410:412   */\n      0x1f\n        /* \"#utility.yul\":402:408   */\n      dup4\n        /* \"#utility.yul\":398:413   */\n      add\n        /* \"#utility.yul\":394:482   */\n      and\n        /* \"#utility.yul\":389:392   */\n      dup6\n        /* \"#utility.yul\":385:483   */\n      add\n        /* \"#utility.yul\":381:490   */\n      add\n        /* \"#utility.yul\":374:490   */\n      swap2\n      pop\n      pop\n        /* \"#utility.yul\":14:496   */\n      swap3\n      swap2\n      pop\n      pop\n      jump\t// out\n        /* \"#utility.yul\":501:721   */\n    tag_37:\n        /* \"#utility.yul\":650:652   */\n      0x20\n        /* \"#utility.yul\":639:648   */\n      dup2\n        /* \"#utility.yul\":632:653   */\n      mstore\n        /* \"#utility.yul\":613:617   */\n      0x00\n        /* \"#utility.yul\":670:715   */\n      tag_449\n        /* \"#utility.yul\":711:713   */\n      0x20\n        /* \"#utility.yul\":700:709   */\n      dup4\n        /* \"#utility.yul\":696:714   */\n      add\n        /* \"#utility.yul\":688:694   */\n      dup5\n        /* \"#utility.yul\":670:715   */\n      tag_437\n      jump\t// in\n    tag_449:\n        /* \"#utility.yul\":662:715   */\n      swap4\n        /* \"#utility.yul\":501:721   */\n      swap3\n      pop\n      pop\n      pop\n      jump\t// out\n        /* \"#utility.yul\":726:922   */\n    tag_438:\n        /* \"#utility.yul\":794:814   */\n      dup1\n      calldataload\n        /* \"#utility.yul\":854:896   */\n      0xffffffffffffffffffffffffffffffffffffffff\n        /* \"#utility.yul\":843:897   */\n      dup2\n      and\n        /* \"#utility.yul\":833:898   */\n      dup2\n      eq\n        /* \"#utility.yul\":823:916   */\n      tag_451\n      jumpi\n        /* \"#utility.yul\":912:913   */\n      0x00\n        /* \"#utility.yul\":909:910   */\n      dup1\n        /* \"#utility.yul\":902:914   */\n      revert\n        /* \"#utility.yul\":823:916   */\n    tag_451:\n        /* \"#utility.yul\":726:922   */\n      swap2\n      swap1\n      pop\n      jump\t// out\n        /* \"#utility.yul\":927:1181   */\n    tag_40:\n        /* \"#utility.yul\":995:1001   */\n      0x00\n        /* \"#utility.yul\":1003:1009   */\n      dup1\n        /* \"#utility.yul\":1056:1058   */\n      0x40\n        /* \"#utility.yul\":1044:1053   */\n      dup4\n        /* \"#utility.yul\":1035:1042   */\n      dup6\n        /* \"#utility.yul\":1031:1054   */\n      sub\n        /* \"#utility.yul\":1027:1059   */\n      slt\n        /* \"#utility.yul\":1024:1076   */\n      iszero\n      tag_453\n      jumpi\n        /* \"#utility.yul\":1072:1073   */\n      0x00\n        /* \"#utility.yul\":1069:1070   */\n      dup1\n        /* \"#utility.yul\":1062:1074   */\n      revert\n        /* \"#utility.yul\":1024:1076   */\n    tag_453:\n        /* \"#utility.yul\":1095:1124   */\n      tag_454\n        /* \"#utility.yul\":1114:1123   */\n      dup4\n        /* \"#utility.yul\":1095:1124   */\n      tag_438\n      jump\t// in\n    tag_454:\n        /* \"#utility.yul\":1085:1124   */\n      swap5\n        /* \"#utility.yul\":1171:1173   */\n      0x20\n        /* \"#utility.yul\":1156:1174   */\n      swap4\n      swap1\n      swap4\n      add\n        /* \"#utility.yul\":1143:1175   */\n      calldataload\n      swap4\n      pop\n      pop\n      pop\n        /* \"#utility.yul\":927:1181   */\n      jump\t// out\n        /* \"#utility.yul\":1560:1888   */\n    tag_50:\n        /* \"#utility.yul\":1637:1643   */\n      0x00\n        /* \"#utility.yul\":1645:1651   */\n      dup1\n        /* \"#utility.yul\":1653:1659   */\n      0x00\n        /* \"#utility.yul\":1706:1708   */\n      0x60\n        /* \"#utility.yul\":1694:1703   */\n      dup5\n        /* \"#utility.yul\":1685:1692   */\n      dup7\n        /* \"#utility.yul\":1681:1704   */\n      sub\n        /* \"#utility.yul\":1677:1709   */\n      slt\n        /* \"#utility.yul\":1674:1726   */\n      iszero\n      tag_458\n      jumpi\n        /* \"#utility.yul\":1722:1723   */\n      0x00\n        /* \"#utility.yul\":1719:1720   */\n      dup1\n        /* \"#utility.yul\":1712:1724   */\n      revert\n        /* \"#utility.yul\":1674:1726   */\n    tag_458:\n        /* \"#utility.yul\":1745:1774   */\n      tag_459\n        /* \"#utility.yul\":1764:1773   */\n      dup5\n        /* \"#utility.yul\":1745:1774   */\n      tag_438\n      jump\t// in\n    tag_459:\n        /* \"#utility.yul\":1735:1774   */\n      swap3\n      pop\n        /* \"#utility.yul\":1793:1831   */\n      tag_460\n        /* \"#utility.yul\":1827:1829   */\n      0x20\n        /* \"#utility.yul\":1816:1825   */\n      dup6\n        /* \"#utility.yul\":1812:1830   */\n      add\n        /* \"#utility.yul\":1793:1831   */\n      tag_438\n      jump\t// in\n    tag_460:\n        /* \"#utility.yul\":1783:1831   */\n      swap2\n      pop\n        /* \"#utility.yul\":1878:1880   */\n      0x40\n        /* \"#utility.yul\":1867:1876   */\n      dup5\n        /* \"#utility.yul\":1863:1881   */\n      add\n        /* \"#utility.yul\":1850:1882   */\n      calldataload\n        /* \"#utility.yul\":1840:1882   */\n      swap1\n      pop\n        /* \"#utility.yul\":1560:1888   */\n      swap3\n      pop\n      swap3\n      pop\n      swap3\n      jump\t// out\n        /* \"#utility.yul\":2264:2450   */\n    tag_70:\n        /* \"#utility.yul\":2323:2329   */\n      0x00\n        /* \"#utility.yul\":2376:2378   */\n      0x20\n        /* \"#utility.yul\":2364:2373   */\n      dup3\n        /* \"#utility.yul\":2355:2362   */\n      dup5\n        /* \"#utility.yul\":2351:2374   */\n      sub\n        /* \"#utility.yul\":2347:2379   */\n      slt\n        /* \"#utility.yul\":2344:2396   */\n      iszero\n      tag_464\n      jumpi\n        /* \"#utility.yul\":2392:2393   */\n      0x00\n        /* \"#utility.yul\":2389:2390   */\n      dup1\n        /* \"#utility.yul\":2382:2394   */\n      revert\n        /* \"#utility.yul\":2344:2396   */\n    tag_464:\n        /* \"#utility.yul\":2415:2444   */\n      tag_449\n        /* \"#utility.yul\":2434:2443   */\n      dup3\n        /* \"#utility.yul\":2415:2444   */\n      tag_438\n      jump\t// in\n        /* \"#utility.yul\":2455:3790   */\n    tag_82:\n        /* \"#utility.yul\":2852:2918   */\n      0xff00000000000000000000000000000000000000000000000000000000000000\n        /* \"#utility.yul\":2844:2850   */\n      dup9\n        /* \"#utility.yul\":2840:2919   */\n      and\n        /* \"#utility.yul\":2829:2838   */\n      dup2\n        /* \"#utility.yul\":2822:2920   */\n      mstore\n        /* \"#utility.yul\":2803:2807   */\n      0x00\n        /* \"#utility.yul\":2939:2941   */\n      0x20\n        /* \"#utility.yul\":2977:2980   */\n      0xe0\n        /* \"#utility.yul\":2972:2974   */\n      0x20\n        /* \"#utility.yul\":2961:2970   */\n      dup5\n        /* \"#utility.yul\":2957:2975   */\n      add\n        /* \"#utility.yul\":2950:2981   */\n      mstore\n        /* \"#utility.yul\":3004:3050   */\n      tag_467\n        /* \"#utility.yul\":3045:3048   */\n      0xe0\n        /* \"#utility.yul\":3034:3043   */\n      dup5\n        /* \"#utility.yul\":3030:3049   */\n      add\n        /* \"#utility.yul\":3022:3028   */\n      dup11\n        /* \"#utility.yul\":3004:3050   */\n      tag_437\n      jump\t// in\n    tag_467:\n        /* \"#utility.yul\":3098:3107   */\n      dup4\n        /* \"#utility.yul\":3090:3096   */\n      dup2\n        /* \"#utility.yul\":3086:3108   */\n      sub\n        /* \"#utility.yul\":3081:3083   */\n      0x40\n        /* \"#utility.yul\":3070:3079   */\n      dup6\n        /* \"#utility.yul\":3066:3084   */\n      add\n        /* \"#utility.yul\":3059:3109   */\n      mstore\n        /* \"#utility.yul\":3132:3165   */\n      tag_468\n        /* \"#utility.yul\":3158:3164   */\n      dup2\n        /* \"#utility.yul\":3150:3156   */\n      dup11\n        /* \"#utility.yul\":3132:3165   */\n      tag_437\n      jump\t// in\n    tag_468:\n        /* \"#utility.yul\":3196:3198   */\n      0x60\n        /* \"#utility.yul\":3181:3199   */\n      dup6\n      add\n        /* \"#utility.yul\":3174:3208   */\n      dup10\n      swap1\n      mstore\n        /* \"#utility.yul\":3257:3299   */\n      0xffffffffffffffffffffffffffffffffffffffff\n        /* \"#utility.yul\":3245:3300   */\n      dup9\n      and\n        /* \"#utility.yul\":3239:3242   */\n      0x80\n        /* \"#utility.yul\":3224:3243   */\n      dup7\n      add\n        /* \"#utility.yul\":3217:3301   */\n      mstore\n        /* \"#utility.yul\":3332:3335   */\n      0xa0\n        /* \"#utility.yul\":3317:3336   */\n      dup6\n      add\n        /* \"#utility.yul\":3310:3345   */\n      dup8\n      swap1\n      mstore\n        /* \"#utility.yul\":3382:3404   */\n      dup5\n      dup2\n      sub\n        /* \"#utility.yul\":3376:3379   */\n      0xc0\n        /* \"#utility.yul\":3361:3380   */\n      dup7\n      add\n        /* \"#utility.yul\":3354:3405   */\n      mstore\n        /* \"#utility.yul\":3454:3467   */\n      dup6\n      mload\n        /* \"#utility.yul\":3476:3498   */\n      dup1\n      dup3\n      mstore\n        /* \"#utility.yul\":3526:3528   */\n      0x20\n        /* \"#utility.yul\":3552:3567   */\n      dup1\n      dup9\n      add\n      swap4\n      pop\n        /* \"#utility.yul\":3514:3529   */\n      swap1\n      swap2\n      add\n      swap1\n      0x00\n        /* \"#utility.yul\":3595:3764   */\n    tag_469:\n        /* \"#utility.yul\":3609:3615   */\n      dup2\n        /* \"#utility.yul\":3606:3607   */\n      dup2\n        /* \"#utility.yul\":3603:3616   */\n      lt\n        /* \"#utility.yul\":3595:3764   */\n      iszero\n      tag_471\n      jumpi\n        /* \"#utility.yul\":3670:3683   */\n      dup4\n      mload\n        /* \"#utility.yul\":3658:3684   */\n      dup4\n      mstore\n        /* \"#utility.yul\":3739:3754   */\n      swap3\n      dup5\n      add\n      swap3\n        /* \"#utility.yul\":3704:3716   */\n      swap2\n      dup5\n      add\n      swap2\n        /* \"#utility.yul\":3631:3632   */\n      0x01\n        /* \"#utility.yul\":3624:3633   */\n      add\n        /* \"#utility.yul\":3595:3764   */\n      jump(tag_469)\n    tag_471:\n      pop\n        /* \"#utility.yul\":3781:3784   */\n      swap1\n      swap13\n        /* \"#utility.yul\":2455:3790   */\n      swap12\n      pop\n      pop\n      pop\n      pop\n      pop\n      pop\n      pop\n      pop\n      pop\n      pop\n      pop\n      pop\n      jump\t// out\n        /* \"#utility.yul\":4358:5051   */\n    tag_109:\n        /* \"#utility.yul\":4469:4475   */\n      0x00\n        /* \"#utility.yul\":4477:4483   */\n      dup1\n        /* \"#utility.yul\":4485:4491   */\n      0x00\n        /* \"#utility.yul\":4493:4499   */\n      dup1\n        /* \"#utility.yul\":4501:4507   */\n      0x00\n        /* \"#utility.yul\":4509:4515   */\n      dup1\n        /* \"#utility.yul\":4517:4523   */\n      0x00\n        /* \"#utility.yul\":4570:4573   */\n      0xe0\n        /* \"#utility.yul\":4558:4567   */\n      dup9\n        /* \"#utility.yul\":4549:4556   */\n      dup11\n        /* \"#utility.yul\":4545:4568   */\n      sub\n        /* \"#utility.yul\":4541:4574   */\n      slt\n        /* \"#utility.yul\":4538:4591   */\n      iszero\n      tag_475\n      jumpi\n        /* \"#utility.yul\":4587:4588   */\n      0x00\n        /* \"#utility.yul\":4584:4585   */\n      dup1\n        /* \"#utility.yul\":4577:4589   */\n      revert\n        /* \"#utility.yul\":4538:4591   */\n    tag_475:\n        /* \"#utility.yul\":4610:4639   */\n      tag_476\n        /* \"#utility.yul\":4629:4638   */\n      dup9\n        /* \"#utility.yul\":4610:4639   */\n      tag_438\n      jump\t// in\n    tag_476:\n        /* \"#utility.yul\":4600:4639   */\n      swap7\n      pop\n        /* \"#utility.yul\":4658:4696   */\n      tag_477\n        /* \"#utility.yul\":4692:4694   */\n      0x20\n        /* \"#utility.yul\":4681:4690   */\n      dup10\n        /* \"#utility.yul\":4677:4695   */\n      add\n        /* \"#utility.yul\":4658:4696   */\n      tag_438\n      jump\t// in\n    tag_477:\n        /* \"#utility.yul\":4648:4696   */\n      swap6\n      pop\n        /* \"#utility.yul\":4743:4745   */\n      0x40\n        /* \"#utility.yul\":4732:4741   */\n      dup9\n        /* \"#utility.yul\":4728:4746   */\n      add\n        /* \"#utility.yul\":4715:4747   */\n      calldataload\n        /* \"#utility.yul\":4705:4747   */\n      swap5\n      pop\n        /* \"#utility.yul\":4794:4796   */\n      0x60\n        /* \"#utility.yul\":4783:4792   */\n      dup9\n        /* \"#utility.yul\":4779:4797   */\n      add\n        /* \"#utility.yul\":4766:4798   */\n      calldataload\n        /* \"#utility.yul\":4756:4798   */\n      swap4\n      pop\n        /* \"#utility.yul\":4848:4851   */\n      0x80\n        /* \"#utility.yul\":4837:4846   */\n      dup9\n        /* \"#utility.yul\":4833:4852   */\n      add\n        /* \"#utility.yul\":4820:4853   */\n      calldataload\n        /* \"#utility.yul\":4893:4897   */\n      0xff\n        /* \"#utility.yul\":4886:4891   */\n      dup2\n        /* \"#utility.yul\":4882:4898   */\n      and\n        /* \"#utility.yul\":4875:4880   */\n      dup2\n        /* \"#utility.yul\":4872:4899   */\n      eq\n        /* \"#utility.yul\":4862:4917   */\n      tag_478\n      jumpi\n        /* \"#utility.yul\":4913:4914   */\n      0x00\n        /* \"#utility.yul\":4910:4911   */\n      dup1\n        /* \"#utility.yul\":4903:4915   */\n      revert\n        /* \"#utility.yul\":4862:4917   */\n    tag_478:\n        /* \"#utility.yul\":4358:5051   */\n      swap7\n      swap10\n      swap6\n      swap9\n      pop\n      swap4\n      swap7\n      swap3\n      swap6\n        /* \"#utility.yul\":4936:4941   */\n      swap5\n        /* \"#utility.yul\":4988:4991   */\n      0xa0\n        /* \"#utility.yul\":4973:4992   */\n      dup5\n      add\n        /* \"#utility.yul\":4960:4993   */\n      calldataload\n      swap5\n      pop\n        /* \"#utility.yul\":5040:5043   */\n      0xc0\n        /* \"#utility.yul\":5025:5044   */\n      swap1\n      swap4\n      add\n        /* \"#utility.yul\":5012:5045   */\n      calldataload\n      swap3\n        /* \"#utility.yul\":4358:5051   */\n      swap2\n      pop\n      pop\n      jump\t// out\n        /* \"#utility.yul\":5056:5316   */\n    tag_116:\n        /* \"#utility.yul\":5124:5130   */\n      0x00\n        /* \"#utility.yul\":5132:5138   */\n      dup1\n        /* \"#utility.yul\":5185:5187   */\n      0x40\n        /* \"#utility.yul\":5173:5182   */\n      dup4\n        /* \"#utility.yul\":5164:5171   */\n      dup6\n        /* \"#utility.yul\":5160:5183   */\n      sub\n        /* \"#utility.yul\":5156:5188   */\n      slt\n        /* \"#utility.yul\":5153:5205   */\n      iszero\n      tag_480\n      jumpi\n        /* \"#utility.yul\":5201:5202   */\n      0x00\n        /* \"#utility.yul\":5198:5199   */\n      dup1\n        /* \"#utility.yul\":5191:5203   */\n      revert\n        /* \"#utility.yul\":5153:5205   */\n    tag_480:\n        /* \"#utility.yul\":5224:5253   */\n      tag_481\n        /* \"#utility.yul\":5243:5252   */\n      dup4\n        /* \"#utility.yul\":5224:5253   */\n      tag_438\n      jump\t// in\n    tag_481:\n        /* \"#utility.yul\":5214:5253   */\n      swap2\n      pop\n        /* \"#utility.yul\":5272:5310   */\n      tag_482\n        /* \"#utility.yul\":5306:5308   */\n      0x20\n        /* \"#utility.yul\":5295:5304   */\n      dup5\n        /* \"#utility.yul\":5291:5309   */\n      add\n        /* \"#utility.yul\":5272:5310   */\n      tag_438\n      jump\t// in\n    tag_482:\n        /* \"#utility.yul\":5262:5310   */\n      swap1\n      pop\n        /* \"#utility.yul\":5056:5316   */\n      swap3\n      pop\n      swap3\n      swap1\n      pop\n      jump\t// out\n        /* \"#utility.yul\":5321:5505   */\n    tag_181:\n        /* \"#utility.yul\":5373:5450   */\n      0x4e487b7100000000000000000000000000000000000000000000000000000000\n        /* \"#utility.yul\":5370:5371   */\n      0x00\n        /* \"#utility.yul\":5363:5451   */\n      mstore\n        /* \"#utility.yul\":5470:5474   */\n      0x41\n        /* \"#utility.yul\":5467:5468   */\n      0x04\n        /* \"#utility.yul\":5460:5475   */\n      mstore\n        /* \"#utility.yul\":5494:5498   */\n      0x24\n        /* \"#utility.yul\":5491:5492   */\n      0x00\n        /* \"#utility.yul\":5484:5499   */\n      revert\n        /* \"#utility.yul\":5510:6288   */\n    tag_439:\n        /* \"#utility.yul\":5553:5558   */\n      0x00\n        /* \"#utility.yul\":5606:5609   */\n      dup3\n        /* \"#utility.yul\":5599:5603   */\n      0x1f\n        /* \"#utility.yul\":5591:5597   */\n      dup4\n        /* \"#utility.yul\":5587:5604   */\n      add\n        /* \"#utility.yul\":5583:5610   */\n      slt\n        /* \"#utility.yul\":5573:5628   */\n      tag_485\n      jumpi\n        /* \"#utility.yul\":5624:5625   */\n      0x00\n        /* \"#utility.yul\":5621:5622   */\n      dup1\n        /* \"#utility.yul\":5614:5626   */\n      revert\n        /* \"#utility.yul\":5573:5628   */\n    tag_485:\n        /* \"#utility.yul\":5660:5666   */\n      dup2\n        /* \"#utility.yul\":5647:5667   */\n      calldataload\n        /* \"#utility.yul\":5686:5704   */\n      0xffffffffffffffff\n        /* \"#utility.yul\":5723:5725   */\n      dup1\n        /* \"#utility.yul\":5719:5721   */\n      dup3\n        /* \"#utility.yul\":5716:5726   */\n      gt\n        /* \"#utility.yul\":5713:5749   */\n      iszero\n      tag_487\n      jumpi\n        /* \"#utility.yul\":5729:5747   */\n      tag_487\n      tag_181\n      jump\t// in\n    tag_487:\n        /* \"#utility.yul\":5863:5865   */\n      0x40\n        /* \"#utility.yul\":5857:5866   */\n      mload\n        /* \"#utility.yul\":5925:5929   */\n      0x1f\n        /* \"#utility.yul\":5917:5930   */\n      dup4\n      add\n        /* \"#utility.yul\":5768:5834   */\n      0xffffffffffffffffffffffffffffffffffffffffffffffffffffffffffffffe0\n        /* \"#utility.yul\":5913:5935   */\n      swap1\n      dup2\n      and\n        /* \"#utility.yul\":5937:5939   */\n      0x3f\n        /* \"#utility.yul\":5909:5940   */\n      add\n        /* \"#utility.yul\":5905:5945   */\n      and\n        /* \"#utility.yul\":5893:5946   */\n      dup2\n      add\n      swap1\n        /* \"#utility.yul\":5961:5979   */\n      dup3\n      dup3\n      gt\n        /* \"#utility.yul\":5981:6003   */\n      dup2\n      dup4\n      lt\n        /* \"#utility.yul\":5958:6004   */\n      or\n        /* \"#utility.yul\":5955:6027   */\n      iszero\n      tag_489\n      jumpi\n        /* \"#utility.yul\":6007:6025   */\n      tag_489\n      tag_181\n      jump\t// in\n    tag_489:\n        /* \"#utility.yul\":6047:6057   */\n      dup2\n        /* \"#utility.yul\":6043:6045   */\n      0x40\n        /* \"#utility.yul\":6036:6058   */\n      mstore\n        /* \"#utility.yul\":6082:6084   */\n      dup4\n        /* \"#utility.yul\":6074:6080   */\n      dup2\n        /* \"#utility.yul\":6067:6085   */\n      mstore\n        /* \"#utility.yul\":6128:6131   */\n      dup7\n        /* \"#utility.yul\":6121:6125   */\n      0x20\n        /* \"#utility.yul\":6116:6118   */\n      dup6\n        /* \"#utility.yul\":6108:6114   */\n      dup9\n        /* \"#utility.yul\":6104:6119   */\n      add\n        /* \"#utility.yul\":6100:6126   */\n      add\n        /* \"#utility.yul\":6097:6132   */\n      gt\n        /* \"#utility.yul\":6094:6149   */\n      iszero\n      tag_490\n      jumpi\n        /* \"#utility.yul\":6145:6146   */\n      0x00\n        /* \"#utility.yul\":6142:6143   */\n      dup1\n        /* \"#utility.yul\":6135:6147   */\n      revert\n        /* \"#utility.yul\":6094:6149   */\n    tag_490:\n        /* \"#utility.yul\":6209:6211   */\n      dup4\n        /* \"#utility.yul\":6202:6206   */\n      0x20\n        /* \"#utility.yul\":6194:6200   */\n      dup8\n        /* \"#utility.yul\":6190:6207   */\n      add\n        /* \"#utility.yul\":6183:6187   */\n      0x20\n        /* \"#utility.yul\":6175:6181   */\n      dup4\n        /* \"#utility.yul\":6171:6188   */\n      add\n        /* \"#utility.yul\":6158:6212   */\n      calldatacopy\n        /* \"#utility.yul\":6256:6257   */\n      0x00\n        /* \"#utility.yul\":6249:6253   */\n      0x20\n        /* \"#utility.yul\":6244:6246   */\n      dup6\n        /* \"#utility.yul\":6236:6242   */\n      dup4\n        /* \"#utility.yul\":6232:6247   */\n      add\n        /* \"#utility.yul\":6228:6254   */\n      add\n        /* \"#utility.yul\":6221:6258   */\n      mstore\n        /* \"#utility.yul\":6276:6282   */\n      dup1\n        /* \"#utility.yul\":6267:6282   */\n      swap5\n      pop\n      pop\n      pop\n      pop\n      pop\n        /* \"#utility.yul\":5510:6288   */\n      swap3\n      swap2\n      pop\n      pop\n      jump\t// out\n        /* \"#utility.yul\":6293:7255   */\n    tag_121:\n        /* \"#utility.yul\":6427:6433   */\n      0x00\n        /* \"#utility.yul\":6435:6441   */\n      dup1\n        /* \"#utility.yul\":6443:6449   */\n      0x00\n        /* \"#utility.yul\":6451:6457   */\n      dup1\n        /* \"#utility.yul\":6459:6465   */\n      0x00\n        /* \"#utility.yul\":6467:6473   */\n      dup1\n        /* \"#utility.yul\":6520:6523   */\n      0xc0\n        /* \"#utility.yul\":6508:6517   */\n      dup8\n        /* \"#utility.yul\":6499:6506   */\n      dup10\n        /* \"#utility.yul\":6495:6518   */\n      sub\n        /* \"#utility.yul\":6491:6524   */\n      slt\n        /* \"#utility.yul\":6488:6541   */\n      iszero\n      tag_492\n      jumpi\n        /* \"#utility.yul\":6537:6538   */\n      0x00\n        /* \"#utility.yul\":6534:6535   */\n      dup1\n        /* \"#utility.yul\":6527:6539   */\n      revert\n        /* \"#utility.yul\":6488:6541   */\n    tag_492:\n        /* \"#utility.yul\":6560:6589   */\n      tag_493\n        /* \"#utility.yul\":6579:6588   */\n      dup8\n        /* \"#utility.yul\":6560:6589   */\n      tag_438\n      jump\t// in\n    tag_493:\n        /* \"#utility.yul\":6550:6589   */\n      swap6\n      pop\n        /* \"#utility.yul\":6608:6646   */\n      tag_494\n        /* \"#utility.yul\":6642:6644   */\n      0x20\n        /* \"#utility.yul\":6631:6640   */\n      dup9\n        /* \"#utility.yul\":6627:6645   */\n      add\n        /* \"#utility.yul\":6608:6646   */\n      tag_438\n      jump\t// in\n    tag_494:\n        /* \"#utility.yul\":6598:6646   */\n      swap5\n      pop\n        /* \"#utility.yul\":6697:6699   */\n      0x40\n        /* \"#utility.yul\":6686:6695   */\n      dup8\n        /* \"#utility.yul\":6682:6700   */\n      add\n        /* \"#utility.yul\":6669:6701   */\n      calldataload\n        /* \"#utility.yul\":6720:6738   */\n      0xffffffffffffffff\n        /* \"#utility.yul\":6761:6763   */\n      dup1\n        /* \"#utility.yul\":6753:6759   */\n      dup3\n        /* \"#utility.yul\":6750:6764   */\n      gt\n        /* \"#utility.yul\":6747:6781   */\n      iszero\n      tag_495\n      jumpi\n        /* \"#utility.yul\":6777:6778   */\n      0x00\n        /* \"#utility.yul\":6774:6775   */\n      dup1\n        /* \"#utility.yul\":6767:6779   */\n      revert\n        /* \"#utility.yul\":6747:6781   */\n    tag_495:\n        /* \"#utility.yul\":6800:6850   */\n      tag_496\n        /* \"#utility.yul\":6842:6849   */\n      dup11\n        /* \"#utility.yul\":6833:6839   */\n      dup4\n        /* \"#utility.yul\":6822:6831   */\n      dup12\n        /* \"#utility.yul\":6818:6840   */\n      add\n        /* \"#utility.yul\":6800:6850   */\n      tag_439\n      jump\t// in\n    tag_496:\n        /* \"#utility.yul\":6790:6850   */\n      swap6\n      pop\n        /* \"#utility.yul\":6903:6905   */\n      0x60\n        /* \"#utility.yul\":6892:6901   */\n      dup10\n        /* \"#utility.yul\":6888:6906   */\n      add\n        /* \"#utility.yul\":6875:6907   */\n      calldataload\n        /* \"#utility.yul\":6859:6907   */\n      swap2\n      pop\n        /* \"#utility.yul\":6932:6934   */\n      dup1\n        /* \"#utility.yul\":6922:6930   */\n      dup3\n        /* \"#utility.yul\":6919:6935   */\n      gt\n        /* \"#utility.yul\":6916:6952   */\n      iszero\n      tag_497\n      jumpi\n        /* \"#utility.yul\":6948:6949   */\n      0x00\n        /* \"#utility.yul\":6945:6946   */\n      dup1\n        /* \"#utility.yul\":6938:6950   */\n      revert\n        /* \"#utility.yul\":6916:6952   */\n    tag_497:\n        /* \"#utility.yul\":6971:7023   */\n      tag_498\n        /* \"#utility.yul\":7015:7022   */\n      dup11\n        /* \"#utility.yul\":7004:7012   */\n      dup4\n        /* \"#utility.yul\":6993:7002   */\n      dup12\n        /* \"#utility.yul\":6989:7013   */\n      add\n        /* \"#utility.yul\":6971:7023   */\n      tag_439\n      jump\t// in\n    tag_498:\n        /* \"#utility.yul\":6961:7023   */\n      swap5\n      pop\n        /* \"#utility.yul\":7076:7079   */\n      0x80\n        /* \"#utility.yul\":7065:7074   */\n      dup10\n        /* \"#utility.yul\":7061:7080   */\n      add\n        /* \"#utility.yul\":7048:7081   */\n      calldataload\n        /* \"#utility.yul\":7032:7081   */\n      swap2\n      pop\n        /* \"#utility.yul\":7106:7108   */\n      dup1\n        /* \"#utility.yul\":7096:7104   */\n      dup3\n        /* \"#utility.yul\":7093:7109   */\n      gt\n        /* \"#utility.yul\":7090:7126   */\n      iszero\n      tag_499\n      jumpi\n        /* \"#utility.yul\":7122:7123   */\n      0x00\n        /* \"#utility.yul\":7119:7120   */\n      dup1\n        /* \"#utility.yul\":7112:7124   */\n      revert\n        /* \"#utility.yul\":7090:7126   */\n    tag_499:\n      pop\n        /* \"#utility.yul\":7145:7197   */\n      tag_500\n        /* \"#utility.yul\":7189:7196   */\n      dup10\n        /* \"#utility.yul\":7178:7186   */\n      dup3\n        /* \"#utility.yul\":7167:7176   */\n      dup11\n        /* \"#utility.yul\":7163:7187   */\n      add\n        /* \"#utility.yul\":7145:7197   */\n      tag_439\n      jump\t// in\n    tag_500:\n        /* \"#utility.yul\":7135:7197   */\n      swap3\n      pop\n      pop\n        /* \"#utility.yul\":7244:7247   */\n      0xa0\n        /* \"#utility.yul\":7233:7242   */\n      dup8\n        /* \"#utility.yul\":7229:7248   */\n      add\n        /* \"#utility.yul\":7216:7249   */\n      calldataload\n        /* \"#utility.yul\":7206:7249   */\n      swap1\n      pop\n        /* \"#utility.yul\":6293:7255   */\n      swap3\n      swap6\n      pop\n      swap3\n      swap6\n      pop\n      swap3\n      swap6\n      jump\t// out\n        /* \"#utility.yul\":7260:7697   */\n    tag_128:\n        /* \"#utility.yul\":7339:7340   */\n      0x01\n        /* \"#utility.yul\":7335:7347   */\n      dup2\n      dup2\n      shr\n      swap1\n        /* \"#utility.yul\":7382:7394   */\n      dup3\n      and\n      dup1\n        /* \"#utility.yul\":7403:7464   */\n      tag_502\n      jumpi\n        /* \"#utility.yul\":7457:7461   */\n      0x7f\n        /* \"#utility.yul\":7449:7455   */\n      dup3\n        /* \"#utility.yul\":7445:7462   */\n      and\n        /* \"#utility.yul\":7435:7462   */\n      swap2\n      pop\n        /* \"#utility.yul\":7403:7464   */\n    tag_502:\n        /* \"#utility.yul\":7510:7512   */\n      0x20\n        /* \"#utility.yul\":7502:7508   */\n      dup3\n        /* \"#utility.yul\":7499:7513   */\n      lt\n        /* \"#utility.yul\":7479:7497   */\n      dup2\n        /* \"#utility.yul\":7476:7514   */\n      sub\n        /* \"#utility.yul\":7473:7691   */\n      tag_308\n      jumpi\n        /* \"#utility.yul\":7547:7624   */\n      0x4e487b7100000000000000000000000000000000000000000000000000000000\n        /* \"#utility.yul\":7544:7545   */\n      0x00\n        /* \"#utility.yul\":7537:7625   */\n      mstore\n        /* \"#utility.yul\":7648:7652   */\n      0x22\n        /* \"#utility.yul\":7645:7646   */\n      0x04\n        /* \"#utility.yul\":7638:7653   */\n      mstore\n        /* \"#utility.yul\":7676:7680   */\n      0x24\n        /* \"#utility.yul\":7673:7674   */\n      0x00\n        /* \"#utility.yul\":7666:7681   */\n      revert\n        /* \"#utility.yul\":7702:7981   */\n    tag_154:\n        /* \"#utility.yul\":7767:7776   */\n      dup1\n      dup3\n      add\n        /* \"#utility.yul\":7788:7798   */\n      dup1\n      dup3\n      gt\n        /* \"#utility.yul\":7785:7975   */\n      iszero\n      tag_133\n      jumpi\n        /* \"#utility.yul\":7831:7908   */\n      0x4e487b7100000000000000000000000000000000000000000000000000000000\n        /* \"#utility.yul\":7828:7829   */\n      0x00\n        /* \"#utility.yul\":7821:7909   */\n      mstore\n        /* \"#utility.yul\":7932:7936   */\n      0x11\n        /* \"#utility.yul\":7929:7930   */\n      0x04\n        /* \"#utility.yul\":7922:7937   */\n      mstore\n        /* \"#utility.yul\":7960:7964   */\n      0x24\n        /* \"#utility.yul\":7957:7958   */\n      0x00\n        /* \"#utility.yul\":7950:7965   */\n      revert\n        /* \"#utility.yul\":10619:11162   */\n    tag_441:\n        /* \"#utility.yul\":10721:10723   */\n      0x1f\n        /* \"#utility.yul\":10716:10719   */\n      dup3\n        /* \"#utility.yul\":10713:10724   */\n      gt\n        /* \"#utility.yul\":10710:11156   */\n      iszero\n      tag_354\n      jumpi\n        /* \"#utility.yul\":10757:10758   */\n      0x00\n        /* \"#utility.yul\":10781:10786   */\n      dup2\n        /* \"#utility.yul\":10778:10779   */\n      0x00\n        /* \"#utility.yul\":10771:10787   */\n      mstore\n        /* \"#utility.yul\":10825:10829   */\n      0x20\n        /* \"#utility.yul\":10822:10823   */\n      0x00\n        /* \"#utility.yul\":10812:10830   */\n      keccak256\n        /* \"#utility.yul\":10895:10897   */\n      0x1f\n        /* \"#utility.yul\":10883:10893   */\n      dup6\n        /* \"#utility.yul\":10879:10898   */\n      add\n        /* \"#utility.yul\":10876:10877   */\n      0x05\n        /* \"#utility.yul\":10872:10899   */\n      shr\n        /* \"#utility.yul\":10866:10870   */\n      dup2\n        /* \"#utility.yul\":10862:10900   */\n      add\n        /* \"#utility.yul\":10931:10935   */\n      0x20\n        /* \"#utility.yul\":10919:10929   */\n      dup7\n        /* \"#utility.yul\":10916:10936   */\n      lt\n        /* \"#utility.yul\":10913:10960   */\n      iszero\n      tag_515\n      jumpi\n      pop\n        /* \"#utility.yul\":10954:10958   */\n      dup1\n        /* \"#utility.yul\":10913:10960   */\n    tag_515:\n        /* \"#utility.yul\":11009:11011   */\n      0x1f\n        /* \"#utility.yul\":11004:11007   */\n      dup6\n        /* \"#utility.yul\":11000:11012   */\n      add\n        /* \"#utility.yul\":10997:10998   */\n      0x05\n        /* \"#utility.yul\":10993:11013   */\n      shr\n        /* \"#utility.yul\":10987:10991   */\n      dup3\n        /* \"#utility.yul\":10983:11014   */\n      add\n        /* \"#utility.yul\":10973:11014   */\n      swap2\n      pop\n        /* \"#utility.yul\":11064:11146   */\n    tag_516:\n        /* \"#utility.yul\":11082:11084   */\n      dup2\n        /* \"#utility.yul\":11075:11080   */\n      dup2\n        /* \"#utility.yul\":11072:11085   */\n      lt\n        /* \"#utility.yul\":11064:11146   */\n      iszero\n      tag_518\n      jumpi\n        /* \"#utility.yul\":11127:11144   */\n      dup3\n      dup2\n      sstore\n        /* \"#utility.yul\":11108:11109   */\n      0x01\n        /* \"#utility.yul\":11097:11110   */\n      add\n        /* \"#utility.yul\":11064:11146   */\n      jump(tag_516)\n    tag_518:\n        /* \"#utility.yul\":11068:11071   */\n      pop\n      pop\n      pop\n        /* \"#utility.yul\":10619:11162   */\n      pop\n      pop\n      pop\n      jump\t// out\n        /* \"#utility.yul\":11398:12862   */\n    tag_239:\n        /* \"#utility.yul\":11524:11527   */\n      dup2\n        /* \"#utility.yul\":11518:11528   */\n      mload\n        /* \"#utility.yul\":11551:11569   */\n      0xffffffffffffffff\n        /* \"#utility.yul\":11543:11549   */\n      dup2\n        /* \"#utility.yul\":11540:11570   */\n      gt\n        /* \"#utility.yul\":11537:11593   */\n      iszero\n      tag_522\n      jumpi\n        /* \"#utility.yul\":11573:11591   */\n      tag_522\n      tag_181\n      jump\t// in\n    tag_522:\n        /* \"#utility.yul\":11602:11699   */\n      tag_523\n        /* \"#utility.yul\":11692:11698   */\n      dup2\n        /* \"#utility.yul\":11652:11690   */\n      tag_524\n        /* \"#utility.yul\":11684:11688   */\n      dup5\n        /* \"#utility.yul\":11678:11689   */\n      sload\n        /* \"#utility.yul\":11652:11690   */\n      tag_128\n      jump\t// in\n    tag_524:\n        /* \"#utility.yul\":11646:11650   */\n      dup5\n        /* \"#utility.yul\":11602:11699   */\n      tag_441\n      jump\t// in\n    tag_523:\n        /* \"#utility.yul\":11754:11758   */\n      0x20\n      dup1\n        /* \"#utility.yul\":11811:11813   */\n      0x1f\n        /* \"#utility.yul\":11800:11814   */\n      dup4\n      gt\n        /* \"#utility.yul\":11828:11829   */\n      0x01\n        /* \"#utility.yul\":11823:12605   */\n      dup2\n      eq\n      tag_526\n      jumpi\n        /* \"#utility.yul\":12649:12650   */\n      0x00\n        /* \"#utility.yul\":12666:12672   */\n      dup5\n        /* \"#utility.yul\":12663:12752   */\n      iszero\n      tag_527\n      jumpi\n      pop\n        /* \"#utility.yul\":12718:12737   */\n      dup6\n      dup4\n      add\n        /* \"#utility.yul\":12712:12738   */\n      mload\n        /* \"#utility.yul\":12663:12752   */\n    tag_527:\n        /* \"#utility.yul\":11304:11370   */\n      0xffffffffffffffffffffffffffffffffffffffffffffffffffffffffffffffff\n        /* \"#utility.yul\":11295:11296   */\n      0x03\n        /* \"#utility.yul\":11291:11302   */\n      dup7\n      swap1\n      shl\n        /* \"#utility.yul\":11287:11371   */\n      shr\n        /* \"#utility.yul\":11283:11372   */\n      not\n        /* \"#utility.yul\":11273:11373   */\n      and\n        /* \"#utility.yul\":11379:11380   */\n      0x01\n        /* \"#utility.yul\":11375:11386   */\n      dup6\n      swap1\n      shl\n        /* \"#utility.yul\":11270:11387   */\n      or\n        /* \"#utility.yul\":12765:12846   */\n      dup6\n      sstore\n        /* \"#utility.yul\":11793:12856   */\n      jump(tag_518)\n        /* \"#utility.yul\":11823:12605   */\n    tag_526:\n        /* \"#utility.yul\":10566:10567   */\n      0x00\n        /* \"#utility.yul\":10559:10573   */\n      dup6\n      dup2\n      mstore\n        /* \"#utility.yul\":10603:10607   */\n      0x20\n        /* \"#utility.yul\":10590:10608   */\n      dup2\n      keccak256\n        /* \"#utility.yul\":11871:11937   */\n      0xffffffffffffffffffffffffffffffffffffffffffffffffffffffffffffffe0\n        /* \"#utility.yul\":11859:11938   */\n      dup7\n      and\n      swap2\n        /* \"#utility.yul\":12036:12272   */\n    tag_530:\n        /* \"#utility.yul\":12050:12057   */\n      dup3\n        /* \"#utility.yul\":12047:12048   */\n      dup2\n        /* \"#utility.yul\":12044:12058   */\n      lt\n        /* \"#utility.yul\":12036:12272   */\n      iszero\n      tag_532\n      jumpi\n        /* \"#utility.yul\":12139:12158   */\n      dup9\n      dup7\n      add\n        /* \"#utility.yul\":12133:12159   */\n      mload\n        /* \"#utility.yul\":12118:12160   */\n      dup3\n      sstore\n        /* \"#utility.yul\":12231:12258   */\n      swap5\n      dup5\n      add\n      swap5\n        /* \"#utility.yul\":12199:12200   */\n      0x01\n        /* \"#utility.yul\":12187:12201   */\n      swap1\n      swap2\n      add\n      swap1\n        /* \"#utility.yul\":12066:12085   */\n      dup5\n      add\n        /* \"#utility.yul\":12036:12272   */\n      jump(tag_530)\n    tag_532:\n        /* \"#utility.yul\":12040:12043   */\n      pop\n        /* \"#utility.yul\":12300:12306   */\n      dup6\n        /* \"#utility.yul\":12291:12298   */\n      dup3\n        /* \"#utility.yul\":12288:12307   */\n      lt\n        /* \"#utility.yul\":12285:12546   */\n      iszero\n      tag_533\n      jumpi\n        /* \"#utility.yul\":12361:12380   */\n      dup8\n      dup6\n      add\n        /* \"#utility.yul\":12355:12381   */\n      mload\n        /* \"#utility.yul\":12462:12528   */\n      0xffffffffffffffffffffffffffffffffffffffffffffffffffffffffffffffff\n        /* \"#utility.yul\":12444:12445   */\n      0x03\n        /* \"#utility.yul\":12440:12454   */\n      dup9\n      swap1\n      shl\n        /* \"#utility.yul\":12456:12459   */\n      0xf8\n        /* \"#utility.yul\":12436:12460   */\n      and\n        /* \"#utility.yul\":12432:12529   */\n      shr\n        /* \"#utility.yul\":12428:12530   */\n      not\n        /* \"#utility.yul\":12413:12531   */\n      and\n        /* \"#utility.yul\":12398:12532   */\n      dup2\n      sstore\n        /* \"#utility.yul\":12285:12546   */\n    tag_533:\n      pop\n      pop\n      pop\n      pop\n      pop\n        /* \"#utility.yul\":12592:12593   */\n      0x01\n        /* \"#utility.yul\":12576:12590   */\n      swap1\n      dup2\n      shl\n        /* \"#utility.yul\":12572:12594   */\n      add\n        /* \"#utility.yul\":12559:12595   */\n      swap1\n      sstore\n      pop\n        /* \"#utility.yul\":11398:12862   */\n      jump\t// out\n        /* \"#utility.yul\":19158:19342   */\n    tag_379:\n        /* \"#utility.yul\":19210:19287   */\n      0x4e487b7100000000000000000000000000000000000000000000000000000000\n        /* \"#utility.yul\":19207:19208   */\n      0x00\n        /* \"#utility.yul\":19200:19288   */\n      mstore\n        /* \"#utility.yul\":19307:19311   */\n      0x21\n        /* \"#utility.yul\":19304:19305   */\n      0x04\n        /* \"#utility.yul\":19297:19312   */\n      mstore\n        /* \"#utility.yul\":19331:19335   */\n      0x24\n        /* \"#utility.yul\":19328:19329   */\n      0x00\n        /* \"#utility.yul\":19321:19336   */\n      revert\n\n    auxdata: 0xa2646970667358221220debbe8d914319a9e0abc87e36518cd16f3b585d39a3b56b64f41a72659d8b31a64736f6c63430008180033\n}\n",
				"bytecode": {
					"linkReferences": {},
					"object": "608060405234801561001057600080fd5b506124df806100206000396000f3fe608060405234801561001057600080fd5b50600436106101985760003560e01c806387c82823116100e3578063c5c51dca1161008c578063dd62ed3e11610066578063dd62ed3e14610362578063ded96d48146103a8578063f2fde38b146103bb57600080fd5b8063c5c51dca1461030f578063d505accf14610346578063d5abeb011461035957600080fd5b8063a457c2d7116100bd578063a457c2d7146102e1578063a9059cbb146102f4578063aa755fdc1461030757600080fd5b806387c82823146102a35780638da5cb5b146102b157806395d89b41146102d957600080fd5b80633950935111610145578063715018a61161011f578063715018a61461026b5780637ecebe001461027557806384b0196e1461028857600080fd5b8063395093511461021a578063676057871461022d57806370a082311461023557600080fd5b806323b872dd1161017657806323b872dd146101f0578063313ce567146102035780633644e5151461021257600080fd5b806306fdde031461019d578063095ea7b3146101bb57806318160ddd146101de575b600080fd5b6101a56103ce565b6040516101b29190611ed1565b60405180910390f35b6101ce6101c9366004611f14565b610460565b60405190151581526020016101b2565b6035545b6040519081526020016101b2565b6101ce6101fe366004611f3e565b61047a565b604051601281526020016101b2565b6101e261049e565b6101ce610228366004611f14565b6104ad565b6101a56104f9565b6101e2610243366004611f7a565b73ffffffffffffffffffffffffffffffffffffffff1660009081526033602052604090205490565b610273610587565b005b6101e2610283366004611f7a565b61059b565b6102906105c6565b6040516101b29796959493929190611f95565b610100546101ce9060ff1681565b60cc5460405173ffffffffffffffffffffffffffffffffffffffff90911681526020016101b2565b6101a56106a7565b6101ce6102ef366004611f14565b6106b6565b6101ce610302366004611f14565b610787565b610273610795565b6101008054610101546040805173ffffffffffffffffffffffffffffffffffffffff949093048416835292166020820152016101b2565b610273610354366004612057565b6107c8565b6101e260fe5481565b6101e26103703660046120ca565b73ffffffffffffffffffffffffffffffffffffffff918216600090815260346020908152604080832093909416825291909152205490565b6102736103b63660046121d7565b610987565b6102736103c9366004611f7a565b610bf6565b6060603680546103dd90612289565b80601f016020809104026020016040519081016040528092919081815260200182805461040990612289565b80156104565780601f1061042b57610100808354040283529160200191610456565b820191906000526020600020905b81548152906001019060200180831161043957829003601f168201915b5050505050905090565b60003361046e818585610cad565b60019150505b92915050565b600033610488858285610e60565b610493858585610f37565b506001949350505050565b60006104a86111be565b905090565b33600081815260346020908152604080832073ffffffffffffffffffffffffffffffffffffffff8716845290915281205490919061046e90829086906104f49087906122d6565b610cad565b60ff805461050690612289565b80601f016020809104026020016040519081016040528092919081815260200182805461053290612289565b801561057f5780601f106105545761010080835404028352916020019161057f565b820191906000526020600020905b81548152906001019060200180831161056257829003601f168201915b505050505081565b61058f6111c8565b6105996000611249565b565b73ffffffffffffffffffffffffffffffffffffffff8116600090815260996020526040812054610474565b6000606080600080600060606065546000801b1480156105e65750606654155b610651576040517f08c379a000000000000000000000000000000000000000000000000000000000815260206004820152601560248201527f4549503731323a20556e696e697469616c697a6564000000000000000000000060448201526064015b60405180910390fd5b6106596112c0565b6106616112cf565b604080516000808252602082019092527f0f000000000000000000000000000000000000000000000000000000000000009b939a50919850469750309650945092509050565b6060603780546103dd90612289565b33600081815260346020908152604080832073ffffffffffffffffffffffffffffffffffffffff871684529091528120549091908381101561077a576040517f08c379a000000000000000000000000000000000000000000000000000000000815260206004820152602560248201527f45524332303a2064656372656173656420616c6c6f77616e63652062656c6f7760448201527f207a65726f0000000000000000000000000000000000000000000000000000006064820152608401610648565b6104938286868403610cad565b60003361046e818585610f37565b61079d6111c8565b61010080547fffffffffffffffffffffffffffffffffffffffffffffffffffffffffffffff00169055565b83421115610832576040517f08c379a000000000000000000000000000000000000000000000000000000000815260206004820152601d60248201527f45524332305065726d69743a206578706972656420646561646c696e650000006044820152606401610648565b60007f6e71edae12b1b97f4d1f60370fef10105fa2faae0126114a169c64845d6126c98888886108618c6112de565b60408051602081019690965273ffffffffffffffffffffffffffffffffffffffff94851690860152929091166060840152608083015260a082015260c0810186905260e00160405160208183030381529060405280519060200120905060006108c982611313565b905060006108d98287878761135b565b90508973ffffffffffffffffffffffffffffffffffffffff168173ffffffffffffffffffffffffffffffffffffffff1614610970576040517f08c379a000000000000000000000000000000000000000000000000000000000815260206004820152601e60248201527f45524332305065726d69743a20696e76616c6964207369676e617475726500006044820152606401610648565b61097b8a8a8a610cad565b50505050505050505050565b600054610100900460ff16158080156109a75750600054600160ff909116105b806109c15750303b1580156109c1575060005460ff166001145b610a4d576040517f08c379a000000000000000000000000000000000000000000000000000000000815260206004820152602e60248201527f496e697469616c697a61626c653a20636f6e747261637420697320616c72656160448201527f647920696e697469616c697a65640000000000000000000000000000000000006064820152608401610648565b600080547fffffffffffffffffffffffffffffffffffffffffffffffffffffffffffffff001660011790558015610aab57600080547fffffffffffffffffffffffffffffffffffffffffffffffffffffffffffff00ff166101001790555b610ab58585611383565b610abe85611428565b610ac66114fe565b61010080547fffffffffffffffffffffff0000000000000000000000000000000000000000ff1673ffffffffffffffffffffffffffffffffffffffff89811683029190911790915561010180547fffffffffffffffffffffffff00000000000000000000000000000000000000001691881691909117905560fe82905560ff610b4f8482612360565b5061010080547fffffffffffffffffffffffffffffffffffffffffffffffffffffffffffffff0016600117905560fe54610b8a90339061159d565b8015610bed57600080547fffffffffffffffffffffffffffffffffffffffffffffffffffffffffffff00ff169055604051600181527f7f26b83ff96e1f2b6a682f133852f6798a09c465da95921460cefb38474024989060200160405180910390a15b50505050505050565b610bfe6111c8565b73ffffffffffffffffffffffffffffffffffffffff8116610ca1576040517f08c379a000000000000000000000000000000000000000000000000000000000815260206004820152602660248201527f4f776e61626c653a206e6577206f776e657220697320746865207a65726f206160448201527f64647265737300000000000000000000000000000000000000000000000000006064820152608401610648565b610caa81611249565b50565b73ffffffffffffffffffffffffffffffffffffffff8316610d4f576040517f08c379a0000000000000000000000000000000000000000000000000000000008152602060048201526024808201527f45524332303a20617070726f76652066726f6d20746865207a65726f2061646460448201527f72657373000000000000000000000000000000000000000000000000000000006064820152608401610648565b73ffffffffffffffffffffffffffffffffffffffff8216610df2576040517f08c379a000000000000000000000000000000000000000000000000000000000815260206004820152602260248201527f45524332303a20617070726f766520746f20746865207a65726f20616464726560448201527f73730000000000000000000000000000000000000000000000000000000000006064820152608401610648565b73ffffffffffffffffffffffffffffffffffffffff83811660008181526034602090815260408083209487168084529482529182902085905590518481527f8c5be1e5ebec7d5bd14f71427d1e84f3dd0314c0f7b2291e5b200ac8c7c3b925910160405180910390a3505050565b73ffffffffffffffffffffffffffffffffffffffff8381166000908152603460209081526040808320938616835292905220547fffffffffffffffffffffffffffffffffffffffffffffffffffffffffffffffff8114610f315781811015610f24576040517f08c379a000000000000000000000000000000000000000000000000000000000815260206004820152601d60248201527f45524332303a20696e73756666696369656e7420616c6c6f77616e63650000006044820152606401610648565b610f318484848403610cad565b50505050565b73ffffffffffffffffffffffffffffffffffffffff8316610fda576040517f08c379a000000000000000000000000000000000000000000000000000000000815260206004820152602560248201527f45524332303a207472616e736665722066726f6d20746865207a65726f20616460448201527f64726573730000000000000000000000000000000000000000000000000000006064820152608401610648565b73ffffffffffffffffffffffffffffffffffffffff821661107d576040517f08c379a000000000000000000000000000000000000000000000000000000000815260206004820152602360248201527f45524332303a207472616e7366657220746f20746865207a65726f206164647260448201527f65737300000000000000000000000000000000000000000000000000000000006064820152608401610648565b6110888383836116a6565b73ffffffffffffffffffffffffffffffffffffffff83166000908152603360205260409020548181101561113e576040517f08c379a000000000000000000000000000000000000000000000000000000000815260206004820152602660248201527f45524332303a207472616e7366657220616d6f756e742065786365656473206260448201527f616c616e636500000000000000000000000000000000000000000000000000006064820152608401610648565b73ffffffffffffffffffffffffffffffffffffffff80851660008181526033602052604080822086860390559286168082529083902080548601905591517fddf252ad1be2c89b69c2b068fc378daa952ba7f163c4a11628f55a4df523b3ef906111ab9086815260200190565b60405180910390a3610f31848484611861565b60006104a86118be565b60cc5473ffffffffffffffffffffffffffffffffffffffff163314610599576040517f08c379a000000000000000000000000000000000000000000000000000000000815260206004820181905260248201527f4f776e61626c653a2063616c6c6572206973206e6f7420746865206f776e65726044820152606401610648565b60cc805473ffffffffffffffffffffffffffffffffffffffff8381167fffffffffffffffffffffffff0000000000000000000000000000000000000000831681179093556040519116919082907f8be0079c531659141344cd1fd0a4f28419497f9722a3daafe3b4186f6b6457e090600090a35050565b6060606780546103dd90612289565b6060606880546103dd90612289565b73ffffffffffffffffffffffffffffffffffffffff811660009081526099602052604090208054600181018255905b50919050565b60006104746113206111be565b836040517f19010000000000000000000000000000000000000000000000000000000000008152600281019290925260228201526042902090565b600080600061136c87878787611932565b9150915061137981611a21565b5095945050505050565b600054610100900460ff1661141a576040517f08c379a000000000000000000000000000000000000000000000000000000000815260206004820152602b60248201527f496e697469616c697a61626c653a20636f6e7472616374206973206e6f74206960448201527f6e697469616c697a696e670000000000000000000000000000000000000000006064820152608401610648565b6114248282611bd4565b5050565b600054610100900460ff166114bf576040517f08c379a000000000000000000000000000000000000000000000000000000000815260206004820152602b60248201527f496e697469616c697a61626c653a20636f6e7472616374206973206e6f74206960448201527f6e697469616c697a696e670000000000000000000000000000000000000000006064820152608401610648565b610caa816040518060400160405280600181526020017f3100000000000000000000000000000000000000000000000000000000000000815250611c84565b600054610100900460ff16611595576040517f08c379a000000000000000000000000000000000000000000000000000000000815260206004820152602b60248201527f496e697469616c697a61626c653a20636f6e7472616374206973206e6f74206960448201527f6e697469616c697a696e670000000000000000000000000000000000000000006064820152608401610648565b610599611d43565b73ffffffffffffffffffffffffffffffffffffffff821661161a576040517f08c379a000000000000000000000000000000000000000000000000000000000815260206004820152601f60248201527f45524332303a206d696e7420746f20746865207a65726f2061646472657373006044820152606401610648565b611626600083836116a6565b806035600082825461163891906122d6565b909155505073ffffffffffffffffffffffffffffffffffffffff82166000818152603360209081526040808320805486019055518481527fddf252ad1be2c89b69c2b068fc378daa952ba7f163c4a11628f55a4df523b3ef910160405180910390a361142460008383611861565b6101005460ff161561185c5761010080540473ffffffffffffffffffffffffffffffffffffffff90811690841614806116fd575061010080540473ffffffffffffffffffffffffffffffffffffffff908116908316145b1561178a576040517f08c379a000000000000000000000000000000000000000000000000000000000815260206004820152603660248201527f546f6b656e3a207472616e7366657220746f2f66726f6d20756e69737761702060448201527f763220706f6f6c206973206e6f7420616c6c6f776564000000000000000000006064820152608401610648565b6101015473ffffffffffffffffffffffffffffffffffffffff848116911614806117cf57506101015473ffffffffffffffffffffffffffffffffffffffff8381169116145b1561185c576040517f08c379a000000000000000000000000000000000000000000000000000000000815260206004820152603660248201527f546f6b656e3a207472616e7366657220746f2f66726f6d20756e69737761702060448201527f763320706f6f6c206973206e6f7420616c6c6f776564000000000000000000006064820152608401610648565b505050565b6040805173ffffffffffffffffffffffffffffffffffffffff8086168252841660208201529081018290527fc4f02cd43bed595a7c3ee13e0ee1ec639470a7a0f374837ee7b910779d55f5ba9060600160405180910390a1505050565b60007f8b73c3c69bb8fe3d512ecc4cf759cc79239f7b179b0ffacaa9a75d522b39400f6118e9611de3565b6118f1611e3c565b60408051602081019490945283019190915260608201524660808201523060a082015260c00160405160208183030381529060405280519060200120905090565b6000807f7fffffffffffffffffffffffffffffff5d576e7357a4501ddfe92f46681b20a08311156119695750600090506003611a18565b6040805160008082526020820180845289905260ff881692820192909252606081018690526080810185905260019060a0016020604051602081039080840390855afa1580156119bd573d6000803e3d6000fd5b50506040517fffffffffffffffffffffffffffffffffffffffffffffffffffffffffffffffe0015191505073ffffffffffffffffffffffffffffffffffffffff8116611a1157600060019250925050611a18565b9150600090505b94509492505050565b6000816004811115611a3557611a3561247a565b03611a3d5750565b6001816004811115611a5157611a5161247a565b03611ab8576040517f08c379a000000000000000000000000000000000000000000000000000000000815260206004820152601860248201527f45434453413a20696e76616c6964207369676e617475726500000000000000006044820152606401610648565b6002816004811115611acc57611acc61247a565b03611b33576040517f08c379a000000000000000000000000000000000000000000000000000000000815260206004820152601f60248201527f45434453413a20696e76616c6964207369676e6174757265206c656e677468006044820152606401610648565b6003816004811115611b4757611b4761247a565b03610caa576040517f08c379a000000000000000000000000000000000000000000000000000000000815260206004820152602260248201527f45434453413a20696e76616c6964207369676e6174757265202773272076616c60448201527f75650000000000000000000000000000000000000000000000000000000000006064820152608401610648565b600054610100900460ff16611c6b576040517f08c379a000000000000000000000000000000000000000000000000000000000815260206004820152602b60248201527f496e697469616c697a61626c653a20636f6e7472616374206973206e6f74206960448201527f6e697469616c697a696e670000000000000000000000000000000000000000006064820152608401610648565b6036611c778382612360565b50603761185c8282612360565b600054610100900460ff16611d1b576040517f08c379a000000000000000000000000000000000000000000000000000000000815260206004820152602b60248201527f496e697469616c697a61626c653a20636f6e7472616374206973206e6f74206960448201527f6e697469616c697a696e670000000000000000000000000000000000000000006064820152608401610648565b6067611d278382612360565b506068611d348282612360565b50506000606581905560665550565b600054610100900460ff16611dda576040517f08c379a000000000000000000000000000000000000000000000000000000000815260206004820152602b60248201527f496e697469616c697a61626c653a20636f6e7472616374206973206e6f74206960448201527f6e697469616c697a696e670000000000000000000000000000000000000000006064820152608401610648565b61059933611249565b600080611dee6112c0565b805190915015611e05578051602090910120919050565b6065548015611e145792915050565b7fc5d2460186f7233c927e7db2dcc703c0e500b653ca82273b7bfad8045d85a4709250505090565b600080611e476112cf565b805190915015611e5e578051602090910120919050565b6066548015611e145792915050565b6000815180845260005b81811015611e9357602081850181015186830182015201611e77565b5060006020828601015260207fffffffffffffffffffffffffffffffffffffffffffffffffffffffffffffffe0601f83011685010191505092915050565b602081526000611ee46020830184611e6d565b9392505050565b803573ffffffffffffffffffffffffffffffffffffffff81168114611f0f57600080fd5b919050565b60008060408385031215611f2757600080fd5b611f3083611eeb565b946020939093013593505050565b600080600060608486031215611f5357600080fd5b611f5c84611eeb565b9250611f6a60208501611eeb565b9150604084013590509250925092565b600060208284031215611f8c57600080fd5b611ee482611eeb565b7fff00000000000000000000000000000000000000000000000000000000000000881681526000602060e06020840152611fd260e084018a611e6d565b8381036040850152611fe4818a611e6d565b6060850189905273ffffffffffffffffffffffffffffffffffffffff8816608086015260a0850187905284810360c08601528551808252602080880193509091019060005b8181101561204557835183529284019291840191600101612029565b50909c9b505050505050505050505050565b600080600080600080600060e0888a03121561207257600080fd5b61207b88611eeb565b965061208960208901611eeb565b95506040880135945060608801359350608088013560ff811681146120ad57600080fd5b9699959850939692959460a0840135945060c09093013592915050565b600080604083850312156120dd57600080fd5b6120e683611eeb565b91506120f460208401611eeb565b90509250929050565b7f4e487b7100000000000000000000000000000000000000000000000000000000600052604160045260246000fd5b600082601f83011261213d57600080fd5b813567ffffffffffffffff80821115612158576121586120fd565b604051601f83017fffffffffffffffffffffffffffffffffffffffffffffffffffffffffffffffe0908116603f0116810190828211818310171561219e5761219e6120fd565b816040528381528660208588010111156121b757600080fd5b836020870160208301376000602085830101528094505050505092915050565b60008060008060008060c087890312156121f057600080fd5b6121f987611eeb565b955061220760208801611eeb565b9450604087013567ffffffffffffffff8082111561222457600080fd5b6122308a838b0161212c565b9550606089013591508082111561224657600080fd5b6122528a838b0161212c565b9450608089013591508082111561226857600080fd5b5061227589828a0161212c565b92505060a087013590509295509295509295565b600181811c9082168061229d57607f821691505b60208210810361130d577f4e487b7100000000000000000000000000000000000000000000000000000000600052602260045260246000fd5b80820180821115610474577f4e487b7100000000000000000000000000000000000000000000000000000000600052601160045260246000fd5b601f82111561185c576000816000526020600020601f850160051c810160208610156123395750805b601f850160051c820191505b8181101561235857828155600101612345565b505050505050565b815167ffffffffffffffff81111561237a5761237a6120fd565b61238e816123888454612289565b84612310565b602080601f8311600181146123e157600084156123ab5750858301515b7fffffffffffffffffffffffffffffffffffffffffffffffffffffffffffffffff600386901b1c1916600185901b178555612358565b6000858152602081207fffffffffffffffffffffffffffffffffffffffffffffffffffffffffffffffe08616915b8281101561242e5788860151825594840194600190910190840161240f565b508582101561246a57878501517fffffffffffffffffffffffffffffffffffffffffffffffffffffffffffffffff600388901b60f8161c191681555b5050505050600190811b01905550565b7f4e487b7100000000000000000000000000000000000000000000000000000000600052602160045260246000fdfea2646970667358221220debbe8d914319a9e0abc87e36518cd16f3b585d39a3b56b64f41a72659d8b31a64736f6c63430008180033",
					"opcodes": "PUSH1 0x80 PUSH1 0x40 MSTORE CALLVALUE DUP1 ISZERO PUSH2 0x10 JUMPI PUSH1 0x0 DUP1 REVERT JUMPDEST POP PUSH2 0x24DF DUP1 PUSH2 0x20 PUSH1 0x0 CODECOPY PUSH1 0x0 RETURN INVALID PUSH1 0x80 PUSH1 0x40 MSTORE CALLVALUE DUP1 ISZERO PUSH2 0x10 JUMPI PUSH1 0x0 DUP1 REVERT JUMPDEST POP PUSH1 0x4 CALLDATASIZE LT PUSH2 0x198 JUMPI PUSH1 0x0 CALLDATALOAD PUSH1 0xE0 SHR DUP1 PUSH4 0x87C82823 GT PUSH2 0xE3 JUMPI DUP1 PUSH4 0xC5C51DCA GT PUSH2 0x8C JUMPI DUP1 PUSH4 0xDD62ED3E GT PUSH2 0x66 JUMPI DUP1 PUSH4 0xDD62ED3E EQ PUSH2 0x362 JUMPI DUP1 PUSH4 0xDED96D48 EQ PUSH2 0x3A8 JUMPI DUP1 PUSH4 0xF2FDE38B EQ PUSH2 0x3BB JUMPI PUSH1 0x0 DUP1 REVERT JUMPDEST DUP1 PUSH4 0xC5C51DCA EQ PUSH2 0x30F JUMPI DUP1 PUSH4 0xD505ACCF EQ PUSH2 0x346 JUMPI DUP1 PUSH4 0xD5ABEB01 EQ PUSH2 0x359 JUMPI PUSH1 0x0 DUP1 REVERT JUMPDEST DUP1 PUSH4 0xA457C2D7 GT PUSH2 0xBD JUMPI DUP1 PUSH4 0xA457C2D7 EQ PUSH2 0x2E1 JUMPI DUP1 PUSH4 0xA9059CBB EQ PUSH2 0x2F4 JUMPI DUP1 PUSH4 0xAA755FDC EQ PUSH2 0x307 JUMPI PUSH1 0x0 DUP1 REVERT JUMPDEST DUP1 PUSH4 0x87C82823 EQ PUSH2 0x2A3 JUMPI DUP1 PUSH4 0x8DA5CB5B EQ PUSH2 0x2B1 JUMPI DUP1 PUSH4 0x95D89B41 EQ PUSH2 0x2D9 JUMPI PUSH1 0x0 DUP1 REVERT JUMPDEST DUP1 PUSH4 0x39509351 GT PUSH2 0x145 JUMPI DUP1 PUSH4 0x715018A6 GT PUSH2 0x11F JUMPI DUP1 PUSH4 0x715018A6 EQ PUSH2 0x26B JUMPI DUP1 PUSH4 0x7ECEBE00 EQ PUSH2 0x275 JUMPI DUP1 PUSH4 0x84B0196E EQ PUSH2 0x288 JUMPI PUSH1 0x0 DUP1 REVERT JUMPDEST DUP1 PUSH4 0x39509351 EQ PUSH2 0x21A JUMPI DUP1 PUSH4 0x67605787 EQ PUSH2 0x22D JUMPI DUP1 PUSH4 0x70A08231 EQ PUSH2 0x235 JUMPI PUSH1 0x0 DUP1 REVERT JUMPDEST DUP1 PUSH4 0x23B872DD GT PUSH2 0x176 JUMPI DUP1 PUSH4 0x23B872DD EQ PUSH2 0x1F0 JUMPI DUP1 PUSH4 0x313CE567 EQ PUSH2 0x203 JUMPI DUP1 PUSH4 0x3644E515 EQ PUSH2 0x212 JUMPI PUSH1 0x0 DUP1 REVERT JUMPDEST DUP1 PUSH4 0x6FDDE03 EQ PUSH2 0x19D JUMPI DUP1 PUSH4 0x95EA7B3 EQ PUSH2 0x1BB JUMPI DUP1 PUSH4 0x18160DDD EQ PUSH2 0x1DE JUMPI JUMPDEST PUSH1 0x0 DUP1 REVERT JUMPDEST PUSH2 0x1A5 PUSH2 0x3CE JUMP JUMPDEST PUSH1 0x40 MLOAD PUSH2 0x1B2 SWAP2 SWAP1 PUSH2 0x1ED1 JUMP JUMPDEST PUSH1 0x40 MLOAD DUP1 SWAP2 SUB SWAP1 RETURN JUMPDEST PUSH2 0x1CE PUSH2 0x1C9 CALLDATASIZE PUSH1 0x4 PUSH2 0x1F14 JUMP JUMPDEST PUSH2 0x460 JUMP JUMPDEST PUSH1 0x40 MLOAD SWAP1 ISZERO ISZERO DUP2 MSTORE PUSH1 0x20 ADD PUSH2 0x1B2 JUMP JUMPDEST PUSH1 0x35 SLOAD JUMPDEST PUSH1 0x40 MLOAD SWAP1 DUP2 MSTORE PUSH1 0x20 ADD PUSH2 0x1B2 JUMP JUMPDEST PUSH2 0x1CE PUSH2 0x1FE CALLDATASIZE PUSH1 0x4 PUSH2 0x1F3E JUMP JUMPDEST PUSH2 0x47A JUMP JUMPDEST PUSH1 0x40 MLOAD PUSH1 0x12 DUP2 MSTORE PUSH1 0x20 ADD PUSH2 0x1B2 JUMP JUMPDEST PUSH2 0x1E2 PUSH2 0x49E JUMP JUMPDEST PUSH2 0x1CE PUSH2 0x228 CALLDATASIZE PUSH1 0x4 PUSH2 0x1F14 JUMP JUMPDEST PUSH2 0x4AD JUMP JUMPDEST PUSH2 0x1A5 PUSH2 0x4F9 JUMP JUMPDEST PUSH2 0x1E2 PUSH2 0x243 CALLDATASIZE PUSH1 0x4 PUSH2 0x1F7A JUMP JUMPDEST PUSH20 0xFFFFFFFFFFFFFFFFFFFFFFFFFFFFFFFFFFFFFFFF AND PUSH1 0x0 SWAP1 DUP2 MSTORE PUSH1 0x33 PUSH1 0x20 MSTORE PUSH1 0x40 SWAP1 KECCAK256 SLOAD SWAP1 JUMP JUMPDEST PUSH2 0x273 PUSH2 0x587 JUMP JUMPDEST STOP JUMPDEST PUSH2 0x1E2 PUSH2 0x283 CALLDATASIZE PUSH1 0x4 PUSH2 0x1F7A JUMP JUMPDEST PUSH2 0x59B JUMP JUMPDEST PUSH2 0x290 PUSH2 0x5C6 JUMP JUMPDEST PUSH1 0x40 MLOAD PUSH2 0x1B2 SWAP8 SWAP7 SWAP6 SWAP5 SWAP4 SWAP3 SWAP2 SWAP1 PUSH2 0x1F95 JUMP JUMPDEST PUSH2 0x100 SLOAD PUSH2 0x1CE SWAP1 PUSH1 0xFF AND DUP2 JUMP JUMPDEST PUSH1 0xCC SLOAD PUSH1 0x40 MLOAD PUSH20 0xFFFFFFFFFFFFFFFFFFFFFFFFFFFFFFFFFFFFFFFF SWAP1 SWAP2 AND DUP2 MSTORE PUSH1 0x20 ADD PUSH2 0x1B2 JUMP JUMPDEST PUSH2 0x1A5 PUSH2 0x6A7 JUMP JUMPDEST PUSH2 0x1CE PUSH2 0x2EF CALLDATASIZE PUSH1 0x4 PUSH2 0x1F14 JUMP JUMPDEST PUSH2 0x6B6 JUMP JUMPDEST PUSH2 0x1CE PUSH2 0x302 CALLDATASIZE PUSH1 0x4 PUSH2 0x1F14 JUMP JUMPDEST PUSH2 0x787 JUMP JUMPDEST PUSH2 0x273 PUSH2 0x795 JUMP JUMPDEST PUSH2 0x100 DUP1 SLOAD PUSH2 0x101 SLOAD PUSH1 0x40 DUP1 MLOAD PUSH20 0xFFFFFFFFFFFFFFFFFFFFFFFFFFFFFFFFFFFFFFFF SWAP5 SWAP1 SWAP4 DIV DUP5 AND DUP4 MSTORE SWAP3 AND PUSH1 0x20 DUP3 ADD MSTORE ADD PUSH2 0x1B2 JUMP JUMPDEST PUSH2 0x273 PUSH2 0x354 CALLDATASIZE PUSH1 0x4 PUSH2 0x2057 JUMP JUMPDEST PUSH2 0x7C8 JUMP JUMPDEST PUSH2 0x1E2 PUSH1 0xFE SLOAD DUP2 JUMP JUMPDEST PUSH2 0x1E2 PUSH2 0x370 CALLDATASIZE PUSH1 0x4 PUSH2 0x20CA JUMP JUMPDEST PUSH20 0xFFFFFFFFFFFFFFFFFFFFFFFFFFFFFFFFFFFFFFFF SWAP2 DUP3 AND PUSH1 0x0 SWAP1 DUP2 MSTORE PUSH1 0x34 PUSH1 0x20 SWAP1 DUP2 MSTORE PUSH1 0x40 DUP1 DUP4 KECCAK256 SWAP4 SWAP1 SWAP5 AND DUP3 MSTORE SWAP2 SWAP1 SWAP2 MSTORE KECCAK256 SLOAD SWAP1 JUMP JUMPDEST PUSH2 0x273 PUSH2 0x3B6 CALLDATASIZE PUSH1 0x4 PUSH2 0x21D7 JUMP JUMPDEST PUSH2 0x987 JUMP JUMPDEST PUSH2 0x273 PUSH2 0x3C9 CALLDATASIZE PUSH1 0x4 PUSH2 0x1F7A JUMP JUMPDEST PUSH2 0xBF6 JUMP JUMPDEST PUSH1 0x60 PUSH1 0x36 DUP1 SLOAD PUSH2 0x3DD SWAP1 PUSH2 0x2289 JUMP JUMPDEST DUP1 PUSH1 0x1F ADD PUSH1 0x20 DUP1 SWAP2 DIV MUL PUSH1 0x20 ADD PUSH1 0x40 MLOAD SWAP1 DUP2 ADD PUSH1 0x40 MSTORE DUP1 SWAP3 SWAP2 SWAP1 DUP2 DUP2 MSTORE PUSH1 0x20 ADD DUP3 DUP1 SLOAD PUSH2 0x409 SWAP1 PUSH2 0x2289 JUMP JUMPDEST DUP1 ISZERO PUSH2 0x456 JUMPI DUP1 PUSH1 0x1F LT PUSH2 0x42B JUMPI PUSH2 0x100 DUP1 DUP4 SLOAD DIV MUL DUP4 MSTORE SWAP2 PUSH1 0x20 ADD SWAP2 PUSH2 0x456 JUMP JUMPDEST DUP3 ADD SWAP2 SWAP1 PUSH1 0x0 MSTORE PUSH1 0x20 PUSH1 0x0 KECCAK256 SWAP1 JUMPDEST DUP2 SLOAD DUP2 MSTORE SWAP1 PUSH1 0x1 ADD SWAP1 PUSH1 0x20 ADD DUP1 DUP4 GT PUSH2 0x439 JUMPI DUP3 SWAP1 SUB PUSH1 0x1F AND DUP3 ADD SWAP2 JUMPDEST POP POP POP POP POP SWAP1 POP SWAP1 JUMP JUMPDEST PUSH1 0x0 CALLER PUSH2 0x46E DUP2 DUP6 DUP6 PUSH2 0xCAD JUMP JUMPDEST PUSH1 0x1 SWAP2 POP POP JUMPDEST SWAP3 SWAP2 POP POP JUMP JUMPDEST PUSH1 0x0 CALLER PUSH2 0x488 DUP6 DUP3 DUP6 PUSH2 0xE60 JUMP JUMPDEST PUSH2 0x493 DUP6 DUP6 DUP6 PUSH2 0xF37 JUMP JUMPDEST POP PUSH1 0x1 SWAP5 SWAP4 POP POP POP POP JUMP JUMPDEST PUSH1 0x0 PUSH2 0x4A8 PUSH2 0x11BE JUMP JUMPDEST SWAP1 POP SWAP1 JUMP JUMPDEST CALLER PUSH1 0x0 DUP2 DUP2 MSTORE PUSH1 0x34 PUSH1 0x20 SWAP1 DUP2 MSTORE PUSH1 0x40 DUP1 DUP4 KECCAK256 PUSH20 0xFFFFFFFFFFFFFFFFFFFFFFFFFFFFFFFFFFFFFFFF DUP8 AND DUP5 MSTORE SWAP1 SWAP2 MSTORE DUP2 KECCAK256 SLOAD SWAP1 SWAP2 SWAP1 PUSH2 0x46E SWAP1 DUP3 SWAP1 DUP7 SWAP1 PUSH2 0x4F4 SWAP1 DUP8 SWAP1 PUSH2 0x22D6 JUMP JUMPDEST PUSH2 0xCAD JUMP JUMPDEST PUSH1 0xFF DUP1 SLOAD PUSH2 0x506 SWAP1 PUSH2 0x2289 JUMP JUMPDEST DUP1 PUSH1 0x1F ADD PUSH1 0x20 DUP1 SWAP2 DIV MUL PUSH1 0x20 ADD PUSH1 0x40 MLOAD SWAP1 DUP2 ADD PUSH1 0x40 MSTORE DUP1 SWAP3 SWAP2 SWAP1 DUP2 DUP2 MSTORE PUSH1 0x20 ADD DUP3 DUP1 SLOAD PUSH2 0x532 SWAP1 PUSH2 0x2289 JUMP JUMPDEST DUP1 ISZERO PUSH2 0x57F JUMPI DUP1 PUSH1 0x1F LT PUSH2 0x554 JUMPI PUSH2 0x100 DUP1 DUP4 SLOAD DIV MUL DUP4 MSTORE SWAP2 PUSH1 0x20 ADD SWAP2 PUSH2 0x57F JUMP JUMPDEST DUP3 ADD SWAP2 SWAP1 PUSH1 0x0 MSTORE PUSH1 0x20 PUSH1 0x0 KECCAK256 SWAP1 JUMPDEST DUP2 SLOAD DUP2 MSTORE SWAP1 PUSH1 0x1 ADD SWAP1 PUSH1 0x20 ADD DUP1 DUP4 GT PUSH2 0x562 JUMPI DUP3 SWAP1 SUB PUSH1 0x1F AND DUP3 ADD SWAP2 JUMPDEST POP POP POP POP POP DUP2 JUMP JUMPDEST PUSH2 0x58F PUSH2 0x11C8 JUMP JUMPDEST PUSH2 0x599 PUSH1 0x0 PUSH2 0x1249 JUMP JUMPDEST JUMP JUMPDEST PUSH20 0xFFFFFFFFFFFFFFFFFFFFFFFFFFFFFFFFFFFFFFFF DUP2 AND PUSH1 0x0 SWAP1 DUP2 MSTORE PUSH1 0x99 PUSH1 0x20 MSTORE PUSH1 0x40 DUP2 KECCAK256 SLOAD PUSH2 0x474 JUMP JUMPDEST PUSH1 0x0 PUSH1 0x60 DUP1 PUSH1 0x0 DUP1 PUSH1 0x0 PUSH1 0x60 PUSH1 0x65 SLOAD PUSH1 0x0 DUP1 SHL EQ DUP1 ISZERO PUSH2 0x5E6 JUMPI POP PUSH1 0x66 SLOAD ISZERO JUMPDEST PUSH2 0x651 JUMPI PUSH1 0x40 MLOAD PUSH32 0x8C379A000000000000000000000000000000000000000000000000000000000 DUP2 MSTORE PUSH1 0x20 PUSH1 0x4 DUP3 ADD MSTORE PUSH1 0x15 PUSH1 0x24 DUP3 ADD MSTORE PUSH32 0x4549503731323A20556E696E697469616C697A65640000000000000000000000 PUSH1 0x44 DUP3 ADD MSTORE PUSH1 0x64 ADD JUMPDEST PUSH1 0x40 MLOAD DUP1 SWAP2 SUB SWAP1 REVERT JUMPDEST PUSH2 0x659 PUSH2 0x12C0 JUMP JUMPDEST PUSH2 0x661 PUSH2 0x12CF JUMP JUMPDEST PUSH1 0x40 DUP1 MLOAD PUSH1 0x0 DUP1 DUP3 MSTORE PUSH1 0x20 DUP3 ADD SWAP1 SWAP3 MSTORE PUSH32 0xF00000000000000000000000000000000000000000000000000000000000000 SWAP12 SWAP4 SWAP11 POP SWAP2 SWAP9 POP CHAINID SWAP8 POP ADDRESS SWAP7 POP SWAP5 POP SWAP3 POP SWAP1 POP JUMP JUMPDEST PUSH1 0x60 PUSH1 0x37 DUP1 SLOAD PUSH2 0x3DD SWAP1 PUSH2 0x2289 JUMP JUMPDEST CALLER PUSH1 0x0 DUP2 DUP2 MSTORE PUSH1 0x34 PUSH1 0x20 SWAP1 DUP2 MSTORE PUSH1 0x40 DUP1 DUP4 KECCAK256 PUSH20 0xFFFFFFFFFFFFFFFFFFFFFFFFFFFFFFFFFFFFFFFF DUP8 AND DUP5 MSTORE SWAP1 SWAP2 MSTORE DUP2 KECCAK256 SLOAD SWAP1 SWAP2 SWAP1 DUP4 DUP2 LT ISZERO PUSH2 0x77A JUMPI PUSH1 0x40 MLOAD PUSH32 0x8C379A000000000000000000000000000000000000000000000000000000000 DUP2 MSTORE PUSH1 0x20 PUSH1 0x4 DUP3 ADD MSTORE PUSH1 0x25 PUSH1 0x24 DUP3 ADD MSTORE PUSH32 0x45524332303A2064656372656173656420616C6C6F77616E63652062656C6F77 PUSH1 0x44 DUP3 ADD MSTORE PUSH32 0x207A65726F000000000000000000000000000000000000000000000000000000 PUSH1 0x64 DUP3 ADD MSTORE PUSH1 0x84 ADD PUSH2 0x648 JUMP JUMPDEST PUSH2 0x493 DUP3 DUP7 DUP7 DUP5 SUB PUSH2 0xCAD JUMP JUMPDEST PUSH1 0x0 CALLER PUSH2 0x46E DUP2 DUP6 DUP6 PUSH2 0xF37 JUMP JUMPDEST PUSH2 0x79D PUSH2 0x11C8 JUMP JUMPDEST PUSH2 0x100 DUP1 SLOAD PUSH32 0xFFFFFFFFFFFFFFFFFFFFFFFFFFFFFFFFFFFFFFFFFFFFFFFFFFFFFFFFFFFFFF00 AND SWAP1 SSTORE JUMP JUMPDEST DUP4 TIMESTAMP GT ISZERO PUSH2 0x832 JUMPI PUSH1 0x40 MLOAD PUSH32 0x8C379A000000000000000000000000000000000000000000000000000000000 DUP2 MSTORE PUSH1 0x20 PUSH1 0x4 DUP3 ADD MSTORE PUSH1 0x1D PUSH1 0x24 DUP3 ADD MSTORE PUSH32 0x45524332305065726D69743A206578706972656420646561646C696E65000000 PUSH1 0x44 DUP3 ADD MSTORE PUSH1 0x64 ADD PUSH2 0x648 JUMP JUMPDEST PUSH1 0x0 PUSH32 0x6E71EDAE12B1B97F4D1F60370FEF10105FA2FAAE0126114A169C64845D6126C9 DUP9 DUP9 DUP9 PUSH2 0x861 DUP13 PUSH2 0x12DE JUMP JUMPDEST PUSH1 0x40 DUP1 MLOAD PUSH1 0x20 DUP2 ADD SWAP7 SWAP1 SWAP7 MSTORE PUSH20 0xFFFFFFFFFFFFFFFFFFFFFFFFFFFFFFFFFFFFFFFF SWAP5 DUP6 AND SWAP1 DUP7 ADD MSTORE SWAP3 SWAP1 SWAP2 AND PUSH1 0x60 DUP5 ADD MSTORE PUSH1 0x80 DUP4 ADD MSTORE PUSH1 0xA0 DUP3 ADD MSTORE PUSH1 0xC0 DUP2 ADD DUP7 SWAP1 MSTORE PUSH1 0xE0 ADD PUSH1 0x40 MLOAD PUSH1 0x20 DUP2 DUP4 SUB SUB DUP2 MSTORE SWAP1 PUSH1 0x40 MSTORE DUP1 MLOAD SWAP1 PUSH1 0x20 ADD KECCAK256 SWAP1 POP PUSH1 0x0 PUSH2 0x8C9 DUP3 PUSH2 0x1313 JUMP JUMPDEST SWAP1 POP PUSH1 0x0 PUSH2 0x8D9 DUP3 DUP8 DUP8 DUP8 PUSH2 0x135B JUMP JUMPDEST SWAP1 POP DUP10 PUSH20 0xFFFFFFFFFFFFFFFFFFFFFFFFFFFFFFFFFFFFFFFF AND DUP2 PUSH20 0xFFFFFFFFFFFFFFFFFFFFFFFFFFFFFFFFFFFFFFFF AND EQ PUSH2 0x970 JUMPI PUSH1 0x40 MLOAD PUSH32 0x8C379A000000000000000000000000000000000000000000000000000000000 DUP2 MSTORE PUSH1 0x20 PUSH1 0x4 DUP3 ADD MSTORE PUSH1 0x1E PUSH1 0x24 DUP3 ADD MSTORE PUSH32 0x45524332305065726D69743A20696E76616C6964207369676E61747572650000 PUSH1 0x44 DUP3 ADD MSTORE PUSH1 0x64 ADD PUSH2 0x648 JUMP JUMPDEST PUSH2 0x97B DUP11 DUP11 DUP11 PUSH2 0xCAD JUMP JUMPDEST POP POP POP POP POP POP POP POP POP POP JUMP JUMPDEST PUSH1 0x0 SLOAD PUSH2 0x100 SWAP1 DIV PUSH1 0xFF AND ISZERO DUP1 DUP1 ISZERO PUSH2 0x9A7 JUMPI POP PUSH1 0x0 SLOAD PUSH1 0x1 PUSH1 0xFF SWAP1 SWAP2 AND LT JUMPDEST DUP1 PUSH2 0x9C1 JUMPI POP ADDRESS EXTCODESIZE ISZERO DUP1 ISZERO PUSH2 0x9C1 JUMPI POP PUSH1 0x0 SLOAD PUSH1 0xFF AND PUSH1 0x1 EQ JUMPDEST PUSH2 0xA4D JUMPI PUSH1 0x40 MLOAD PUSH32 0x8C379A000000000000000000000000000000000000000000000000000000000 DUP2 MSTORE PUSH1 0x20 PUSH1 0x4 DUP3 ADD MSTORE PUSH1 0x2E PUSH1 0x24 DUP3 ADD MSTORE PUSH32 0x496E697469616C697A61626C653A20636F6E747261637420697320616C726561 PUSH1 0x44 DUP3 ADD MSTORE PUSH32 0x647920696E697469616C697A6564000000000000000000000000000000000000 PUSH1 0x64 DUP3 ADD MSTORE PUSH1 0x84 ADD PUSH2 0x648 JUMP JUMPDEST PUSH1 0x0 DUP1 SLOAD PUSH32 0xFFFFFFFFFFFFFFFFFFFFFFFFFFFFFFFFFFFFFFFFFFFFFFFFFFFFFFFFFFFFFF00 AND PUSH1 0x1 OR SWAP1 SSTORE DUP1 ISZERO PUSH2 0xAAB JUMPI PUSH1 0x0 DUP1 SLOAD PUSH32 0xFFFFFFFFFFFFFFFFFFFFFFFFFFFFFFFFFFFFFFFFFFFFFFFFFFFFFFFFFFFF00FF AND PUSH2 0x100 OR SWAP1 SSTORE JUMPDEST PUSH2 0xAB5 DUP6 DUP6 PUSH2 0x1383 JUMP JUMPDEST PUSH2 0xABE DUP6 PUSH2 0x1428 JUMP JUMPDEST PUSH2 0xAC6 PUSH2 0x14FE JUMP JUMPDEST PUSH2 0x100 DUP1 SLOAD PUSH32 0xFFFFFFFFFFFFFFFFFFFFFF0000000000000000000000000000000000000000FF AND PUSH20 0xFFFFFFFFFFFFFFFFFFFFFFFFFFFFFFFFFFFFFFFF DUP10 DUP2 AND DUP4 MUL SWAP2 SWAP1 SWAP2 OR SWAP1 SWAP2 SSTORE PUSH2 0x101 DUP1 SLOAD PUSH32 0xFFFFFFFFFFFFFFFFFFFFFFFF0000000000000000000000000000000000000000 AND SWAP2 DUP9 AND SWAP2 SWAP1 SWAP2 OR SWAP1 SSTORE PUSH1 0xFE DUP3 SWAP1 SSTORE PUSH1 0xFF PUSH2 0xB4F DUP5 DUP3 PUSH2 0x2360 JUMP JUMPDEST POP PUSH2 0x100 DUP1 SLOAD PUSH32 0xFFFFFFFFFFFFFFFFFFFFFFFFFFFFFFFFFFFFFFFFFFFFFFFFFFFFFFFFFFFFFF00 AND PUSH1 0x1 OR SWAP1 SSTORE PUSH1 0xFE SLOAD PUSH2 0xB8A SWAP1 CALLER SWAP1 PUSH2 0x159D JUMP JUMPDEST DUP1 ISZERO PUSH2 0xBED JUMPI PUSH1 0x0 DUP1 SLOAD PUSH32 0xFFFFFFFFFFFFFFFFFFFFFFFFFFFFFFFFFFFFFFFFFFFFFFFFFFFFFFFFFFFF00FF AND SWAP1 SSTORE PUSH1 0x40 MLOAD PUSH1 0x1 DUP2 MSTORE PUSH32 0x7F26B83FF96E1F2B6A682F133852F6798A09C465DA95921460CEFB3847402498 SWAP1 PUSH1 0x20 ADD PUSH1 0x40 MLOAD DUP1 SWAP2 SUB SWAP1 LOG1 JUMPDEST POP POP POP POP POP POP POP JUMP JUMPDEST PUSH2 0xBFE PUSH2 0x11C8 JUMP JUMPDEST PUSH20 0xFFFFFFFFFFFFFFFFFFFFFFFFFFFFFFFFFFFFFFFF DUP2 AND PUSH2 0xCA1 JUMPI PUSH1 0x40 MLOAD PUSH32 0x8C379A000000000000000000000000000000000000000000000000000000000 DUP2 MSTORE PUSH1 0x20 PUSH1 0x4 DUP3 ADD MSTORE PUSH1 0x26 PUSH1 0x24 DUP3 ADD MSTORE PUSH32 0x4F776E61626C653A206E6577206F776E657220697320746865207A65726F2061 PUSH1 0x44 DUP3 ADD MSTORE PUSH32 0x6464726573730000000000000000000000000000000000000000000000000000 PUSH1 0x64 DUP3 ADD MSTORE PUSH1 0x84 ADD PUSH2 0x648 JUMP JUMPDEST PUSH2 0xCAA DUP2 PUSH2 0x1249 JUMP JUMPDEST POP JUMP JUMPDEST PUSH20 0xFFFFFFFFFFFFFFFFFFFFFFFFFFFFFFFFFFFFFFFF DUP4 AND PUSH2 0xD4F JUMPI PUSH1 0x40 MLOAD PUSH32 0x8C379A000000000000000000000000000000000000000000000000000000000 DUP2 MSTORE PUSH1 0x20 PUSH1 0x4 DUP3 ADD MSTORE PUSH1 0x24 DUP1 DUP3 ADD MSTORE PUSH32 0x45524332303A20617070726F76652066726F6D20746865207A65726F20616464 PUSH1 0x44 DUP3 ADD MSTORE PUSH32 0x7265737300000000000000000000000000000000000000000000000000000000 PUSH1 0x64 DUP3 ADD MSTORE PUSH1 0x84 ADD PUSH2 0x648 JUMP JUMPDEST PUSH20 0xFFFFFFFFFFFFFFFFFFFFFFFFFFFFFFFFFFFFFFFF DUP3 AND PUSH2 0xDF2 JUMPI PUSH1 0x40 MLOAD PUSH32 0x8C379A000000000000000000000000000000000000000000000000000000000 DUP2 MSTORE PUSH1 0x20 PUSH1 0x4 DUP3 ADD MSTORE PUSH1 0x22 PUSH1 0x24 DUP3 ADD MSTORE PUSH32 0x45524332303A20617070726F766520746F20746865207A65726F206164647265 PUSH1 0x44 DUP3 ADD MSTORE PUSH32 0x7373000000000000000000000000000000000000000000000000000000000000 PUSH1 0x64 DUP3 ADD MSTORE PUSH1 0x84 ADD PUSH2 0x648 JUMP JUMPDEST PUSH20 0xFFFFFFFFFFFFFFFFFFFFFFFFFFFFFFFFFFFFFFFF DUP4 DUP2 AND PUSH1 0x0 DUP2 DUP2 MSTORE PUSH1 0x34 PUSH1 0x20 SWAP1 DUP2 MSTORE PUSH1 0x40 DUP1 DUP4 KECCAK256 SWAP5 DUP8 AND DUP1 DUP5 MSTORE SWAP5 DUP3 MSTORE SWAP2 DUP3 SWAP1 KECCAK256 DUP6 SWAP1 SSTORE SWAP1 MLOAD DUP5 DUP2 MSTORE PUSH32 0x8C5BE1E5EBEC7D5BD14F71427D1E84F3DD0314C0F7B2291E5B200AC8C7C3B925 SWAP2 ADD PUSH1 0x40 MLOAD DUP1 SWAP2 SUB SWAP1 LOG3 POP POP POP JUMP JUMPDEST PUSH20 0xFFFFFFFFFFFFFFFFFFFFFFFFFFFFFFFFFFFFFFFF DUP4 DUP2 AND PUSH1 0x0 SWAP1 DUP2 MSTORE PUSH1 0x34 PUSH1 0x20 SWAP1 DUP2 MSTORE PUSH1 0x40 DUP1 DUP4 KECCAK256 SWAP4 DUP7 AND DUP4 MSTORE SWAP3 SWAP1 MSTORE KECCAK256 SLOAD PUSH32 0xFFFFFFFFFFFFFFFFFFFFFFFFFFFFFFFFFFFFFFFFFFFFFFFFFFFFFFFFFFFFFFFF DUP2 EQ PUSH2 0xF31 JUMPI DUP2 DUP2 LT ISZERO PUSH2 0xF24 JUMPI PUSH1 0x40 MLOAD PUSH32 0x8C379A000000000000000000000000000000000000000000000000000000000 DUP2 MSTORE PUSH1 0x20 PUSH1 0x4 DUP3 ADD MSTORE PUSH1 0x1D PUSH1 0x24 DUP3 ADD MSTORE PUSH32 0x45524332303A20696E73756666696369656E7420616C6C6F77616E6365000000 PUSH1 0x44 DUP3 ADD MSTORE PUSH1 0x64 ADD PUSH2 0x648 JUMP JUMPDEST PUSH2 0xF31 DUP5 DUP5 DUP5 DUP5 SUB PUSH2 0xCAD JUMP JUMPDEST POP POP POP POP JUMP JUMPDEST PUSH20 0xFFFFFFFFFFFFFFFFFFFFFFFFFFFFFFFFFFFFFFFF DUP4 AND PUSH2 0xFDA JUMPI PUSH1 0x40 MLOAD PUSH32 0x8C379A000000000000000000000000000000000000000000000000000000000 DUP2 MSTORE PUSH1 0x20 PUSH1 0x4 DUP3 ADD MSTORE PUSH1 0x25 PUSH1 0x24 DUP3 ADD MSTORE PUSH32 0x45524332303A207472616E736665722066726F6D20746865207A65726F206164 PUSH1 0x44 DUP3 ADD MSTORE PUSH32 0x6472657373000000000000000000000000000000000000000000000000000000 PUSH1 0x64 DUP3 ADD MSTORE PUSH1 0x84 ADD PUSH2 0x648 JUMP JUMPDEST PUSH20 0xFFFFFFFFFFFFFFFFFFFFFFFFFFFFFFFFFFFFFFFF DUP3 AND PUSH2 0x107D JUMPI PUSH1 0x40 MLOAD PUSH32 0x8C379A000000000000000000000000000000000000000000000000000000000 DUP2 MSTORE PUSH1 0x20 PUSH1 0x4 DUP3 ADD MSTORE PUSH1 0x23 PUSH1 0x24 DUP3 ADD MSTORE PUSH32 0x45524332303A207472616E7366657220746F20746865207A65726F2061646472 PUSH1 0x44 DUP3 ADD MSTORE PUSH32 0x6573730000000000000000000000000000000000000000000000000000000000 PUSH1 0x64 DUP3 ADD MSTORE PUSH1 0x84 ADD PUSH2 0x648 JUMP JUMPDEST PUSH2 0x1088 DUP4 DUP4 DUP4 PUSH2 0x16A6 JUMP JUMPDEST PUSH20 0xFFFFFFFFFFFFFFFFFFFFFFFFFFFFFFFFFFFFFFFF DUP4 AND PUSH1 0x0 SWAP1 DUP2 MSTORE PUSH1 0x33 PUSH1 0x20 MSTORE PUSH1 0x40 SWAP1 KECCAK256 SLOAD DUP2 DUP2 LT ISZERO PUSH2 0x113E JUMPI PUSH1 0x40 MLOAD PUSH32 0x8C379A000000000000000000000000000000000000000000000000000000000 DUP2 MSTORE PUSH1 0x20 PUSH1 0x4 DUP3 ADD MSTORE PUSH1 0x26 PUSH1 0x24 DUP3 ADD MSTORE PUSH32 0x45524332303A207472616E7366657220616D6F756E7420657863656564732062 PUSH1 0x44 DUP3 ADD MSTORE PUSH32 0x616C616E63650000000000000000000000000000000000000000000000000000 PUSH1 0x64 DUP3 ADD MSTORE PUSH1 0x84 ADD PUSH2 0x648 JUMP JUMPDEST PUSH20 0xFFFFFFFFFFFFFFFFFFFFFFFFFFFFFFFFFFFFFFFF DUP1 DUP6 AND PUSH1 0x0 DUP2 DUP2 MSTORE PUSH1 0x33 PUSH1 0x20 MSTORE PUSH1 0x40 DUP1 DUP3 KECCAK256 DUP7 DUP7 SUB SWAP1 SSTORE SWAP3 DUP7 AND DUP1 DUP3 MSTORE SWAP1 DUP4 SWAP1 KECCAK256 DUP1 SLOAD DUP7 ADD SWAP1 SSTORE SWAP2 MLOAD PUSH32 0xDDF252AD1BE2C89B69C2B068FC378DAA952BA7F163C4A11628F55A4DF523B3EF SWAP1 PUSH2 0x11AB SWAP1 DUP7 DUP2 MSTORE PUSH1 0x20 ADD SWAP1 JUMP JUMPDEST PUSH1 0x40 MLOAD DUP1 SWAP2 SUB SWAP1 LOG3 PUSH2 0xF31 DUP5 DUP5 DUP5 PUSH2 0x1861 JUMP JUMPDEST PUSH1 0x0 PUSH2 0x4A8 PUSH2 0x18BE JUMP JUMPDEST PUSH1 0xCC SLOAD PUSH20 0xFFFFFFFFFFFFFFFFFFFFFFFFFFFFFFFFFFFFFFFF AND CALLER EQ PUSH2 0x599 JUMPI PUSH1 0x40 MLOAD PUSH32 0x8C379A000000000000000000000000000000000000000000000000000000000 DUP2 MSTORE PUSH1 0x20 PUSH1 0x4 DUP3 ADD DUP2 SWAP1 MSTORE PUSH1 0x24 DUP3 ADD MSTORE PUSH32 0x4F776E61626C653A2063616C6C6572206973206E6F7420746865206F776E6572 PUSH1 0x44 DUP3 ADD MSTORE PUSH1 0x64 ADD PUSH2 0x648 JUMP JUMPDEST PUSH1 0xCC DUP1 SLOAD PUSH20 0xFFFFFFFFFFFFFFFFFFFFFFFFFFFFFFFFFFFFFFFF DUP4 DUP2 AND PUSH32 0xFFFFFFFFFFFFFFFFFFFFFFFF0000000000000000000000000000000000000000 DUP4 AND DUP2 OR SWAP1 SWAP4 SSTORE PUSH1 0x40 MLOAD SWAP2 AND SWAP2 SWAP1 DUP3 SWAP1 PUSH32 0x8BE0079C531659141344CD1FD0A4F28419497F9722A3DAAFE3B4186F6B6457E0 SWAP1 PUSH1 0x0 SWAP1 LOG3 POP POP JUMP JUMPDEST PUSH1 0x60 PUSH1 0x67 DUP1 SLOAD PUSH2 0x3DD SWAP1 PUSH2 0x2289 JUMP JUMPDEST PUSH1 0x60 PUSH1 0x68 DUP1 SLOAD PUSH2 0x3DD SWAP1 PUSH2 0x2289 JUMP JUMPDEST PUSH20 0xFFFFFFFFFFFFFFFFFFFFFFFFFFFFFFFFFFFFFFFF DUP2 AND PUSH1 0x0 SWAP1 DUP2 MSTORE PUSH1 0x99 PUSH1 0x20 MSTORE PUSH1 0x40 SWAP1 KECCAK256 DUP1 SLOAD PUSH1 0x1 DUP2 ADD DUP3 SSTORE SWAP1 JUMPDEST POP SWAP2 SWAP1 POP JUMP JUMPDEST PUSH1 0x0 PUSH2 0x474 PUSH2 0x1320 PUSH2 0x11BE JUMP JUMPDEST DUP4 PUSH1 0x40 MLOAD PUSH32 0x1901000000000000000000000000000000000000000000000000000000000000 DUP2 MSTORE PUSH1 0x2 DUP2 ADD SWAP3 SWAP1 SWAP3 MSTORE PUSH1 0x22 DUP3 ADD MSTORE PUSH1 0x42 SWAP1 KECCAK256 SWAP1 JUMP JUMPDEST PUSH1 0x0 DUP1 PUSH1 0x0 PUSH2 0x136C DUP8 DUP8 DUP8 DUP8 PUSH2 0x1932 JUMP JUMPDEST SWAP2 POP SWAP2 POP PUSH2 0x1379 DUP2 PUSH2 0x1A21 JUMP JUMPDEST POP SWAP6 SWAP5 POP POP POP POP POP JUMP JUMPDEST PUSH1 0x0 SLOAD PUSH2 0x100 SWAP1 DIV PUSH1 0xFF AND PUSH2 0x141A JUMPI PUSH1 0x40 MLOAD PUSH32 0x8C379A000000000000000000000000000000000000000000000000000000000 DUP2 MSTORE PUSH1 0x20 PUSH1 0x4 DUP3 ADD MSTORE PUSH1 0x2B PUSH1 0x24 DUP3 ADD MSTORE PUSH32 0x496E697469616C697A61626C653A20636F6E7472616374206973206E6F742069 PUSH1 0x44 DUP3 ADD MSTORE PUSH32 0x6E697469616C697A696E67000000000000000000000000000000000000000000 PUSH1 0x64 DUP3 ADD MSTORE PUSH1 0x84 ADD PUSH2 0x648 JUMP JUMPDEST PUSH2 0x1424 DUP3 DUP3 PUSH2 0x1BD4 JUMP JUMPDEST POP POP JUMP JUMPDEST PUSH1 0x0 SLOAD PUSH2 0x100 SWAP1 DIV PUSH1 0xFF AND PUSH2 0x14BF JUMPI PUSH1 0x40 MLOAD PUSH32 0x8C379A000000000000000000000000000000000000000000000000000000000 DUP2 MSTORE PUSH1 0x20 PUSH1 0x4 DUP3 ADD MSTORE PUSH1 0x2B PUSH1 0x24 DUP3 ADD MSTORE PUSH32 0x496E697469616C697A61626C653A20636F6E7472616374206973206E6F742069 PUSH1 0x44 DUP3 ADD MSTORE PUSH32 0x6E697469616C697A696E67000000000000000000000000000000000000000000 PUSH1 0x64 DUP3 ADD MSTORE PUSH1 0x84 ADD PUSH2 0x648 JUMP JUMPDEST PUSH2 0xCAA DUP2 PUSH1 0x40 MLOAD DUP1 PUSH1 0x40 ADD PUSH1 0x40 MSTORE DUP1 PUSH1 0x1 DUP2 MSTORE PUSH1 0x20 ADD PUSH32 0x3100000000000000000000000000000000000000000000000000000000000000 DUP2 MSTORE POP PUSH2 0x1C84 JUMP JUMPDEST PUSH1 0x0 SLOAD PUSH2 0x100 SWAP1 DIV PUSH1 0xFF AND PUSH2 0x1595 JUMPI PUSH1 0x40 MLOAD PUSH32 0x8C379A000000000000000000000000000000000000000000000000000000000 DUP2 MSTORE PUSH1 0x20 PUSH1 0x4 DUP3 ADD MSTORE PUSH1 0x2B PUSH1 0x24 DUP3 ADD MSTORE PUSH32 0x496E697469616C697A61626C653A20636F6E7472616374206973206E6F742069 PUSH1 0x44 DUP3 ADD MSTORE PUSH32 0x6E697469616C697A696E67000000000000000000000000000000000000000000 PUSH1 0x64 DUP3 ADD MSTORE PUSH1 0x84 ADD PUSH2 0x648 JUMP JUMPDEST PUSH2 0x599 PUSH2 0x1D43 JUMP JUMPDEST PUSH20 0xFFFFFFFFFFFFFFFFFFFFFFFFFFFFFFFFFFFFFFFF DUP3 AND PUSH2 0x161A JUMPI PUSH1 0x40 MLOAD PUSH32 0x8C379A000000000000000000000000000000000000000000000000000000000 DUP2 MSTORE PUSH1 0x20 PUSH1 0x4 DUP3 ADD MSTORE PUSH1 0x1F PUSH1 0x24 DUP3 ADD MSTORE PUSH32 0x45524332303A206D696E7420746F20746865207A65726F206164647265737300 PUSH1 0x44 DUP3 ADD MSTORE PUSH1 0x64 ADD PUSH2 0x648 JUMP JUMPDEST PUSH2 0x1626 PUSH1 0x0 DUP4 DUP4 PUSH2 0x16A6 JUMP JUMPDEST DUP1 PUSH1 0x35 PUSH1 0x0 DUP3 DUP3 SLOAD PUSH2 0x1638 SWAP2 SWAP1 PUSH2 0x22D6 JUMP JUMPDEST SWAP1 SWAP2 SSTORE POP POP PUSH20 0xFFFFFFFFFFFFFFFFFFFFFFFFFFFFFFFFFFFFFFFF DUP3 AND PUSH1 0x0 DUP2 DUP2 MSTORE PUSH1 0x33 PUSH1 0x20 SWAP1 DUP2 MSTORE PUSH1 0x40 DUP1 DUP4 KECCAK256 DUP1 SLOAD DUP7 ADD SWAP1 SSTORE MLOAD DUP5 DUP2 MSTORE PUSH32 0xDDF252AD1BE2C89B69C2B068FC378DAA952BA7F163C4A11628F55A4DF523B3EF SWAP2 ADD PUSH1 0x40 MLOAD DUP1 SWAP2 SUB SWAP1 LOG3 PUSH2 0x1424 PUSH1 0x0 DUP4 DUP4 PUSH2 0x1861 JUMP JUMPDEST PUSH2 0x100 SLOAD PUSH1 0xFF AND ISZERO PUSH2 0x185C JUMPI PUSH2 0x100 DUP1 SLOAD DIV PUSH20 0xFFFFFFFFFFFFFFFFFFFFFFFFFFFFFFFFFFFFFFFF SWAP1 DUP2 AND SWAP1 DUP5 AND EQ DUP1 PUSH2 0x16FD JUMPI POP PUSH2 0x100 DUP1 SLOAD DIV PUSH20 0xFFFFFFFFFFFFFFFFFFFFFFFFFFFFFFFFFFFFFFFF SWAP1 DUP2 AND SWAP1 DUP4 AND EQ JUMPDEST ISZERO PUSH2 0x178A JUMPI PUSH1 0x40 MLOAD PUSH32 0x8C379A000000000000000000000000000000000000000000000000000000000 DUP2 MSTORE PUSH1 0x20 PUSH1 0x4 DUP3 ADD MSTORE PUSH1 0x36 PUSH1 0x24 DUP3 ADD MSTORE PUSH32 0x546F6B656E3A207472616E7366657220746F2F66726F6D20756E697377617020 PUSH1 0x44 DUP3 ADD MSTORE PUSH32 0x763220706F6F6C206973206E6F7420616C6C6F77656400000000000000000000 PUSH1 0x64 DUP3 ADD MSTORE PUSH1 0x84 ADD PUSH2 0x648 JUMP JUMPDEST PUSH2 0x101 SLOAD PUSH20 0xFFFFFFFFFFFFFFFFFFFFFFFFFFFFFFFFFFFFFFFF DUP5 DUP2 AND SWAP2 AND EQ DUP1 PUSH2 0x17CF JUMPI POP PUSH2 0x101 SLOAD PUSH20 0xFFFFFFFFFFFFFFFFFFFFFFFFFFFFFFFFFFFFFFFF DUP4 DUP2 AND SWAP2 AND EQ JUMPDEST ISZERO PUSH2 0x185C JUMPI PUSH1 0x40 MLOAD PUSH32 0x8C379A000000000000000000000000000000000000000000000000000000000 DUP2 MSTORE PUSH1 0x20 PUSH1 0x4 DUP3 ADD MSTORE PUSH1 0x36 PUSH1 0x24 DUP3 ADD MSTORE PUSH32 0x546F6B656E3A207472616E7366657220746F2F66726F6D20756E697377617020 PUSH1 0x44 DUP3 ADD MSTORE PUSH32 0x763320706F6F6C206973206E6F7420616C6C6F77656400000000000000000000 PUSH1 0x64 DUP3 ADD MSTORE PUSH1 0x84 ADD PUSH2 0x648 JUMP JUMPDEST POP POP POP JUMP JUMPDEST PUSH1 0x40 DUP1 MLOAD PUSH20 0xFFFFFFFFFFFFFFFFFFFFFFFFFFFFFFFFFFFFFFFF DUP1 DUP7 AND DUP3 MSTORE DUP5 AND PUSH1 0x20 DUP3 ADD MSTORE SWAP1 DUP2 ADD DUP3 SWAP1 MSTORE PUSH32 0xC4F02CD43BED595A7C3EE13E0EE1EC639470A7A0F374837EE7B910779D55F5BA SWAP1 PUSH1 0x60 ADD PUSH1 0x40 MLOAD DUP1 SWAP2 SUB SWAP1 LOG1 POP POP POP JUMP JUMPDEST PUSH1 0x0 PUSH32 0x8B73C3C69BB8FE3D512ECC4CF759CC79239F7B179B0FFACAA9A75D522B39400F PUSH2 0x18E9 PUSH2 0x1DE3 JUMP JUMPDEST PUSH2 0x18F1 PUSH2 0x1E3C JUMP JUMPDEST PUSH1 0x40 DUP1 MLOAD PUSH1 0x20 DUP2 ADD SWAP5 SWAP1 SWAP5 MSTORE DUP4 ADD SWAP2 SWAP1 SWAP2 MSTORE PUSH1 0x60 DUP3 ADD MSTORE CHAINID PUSH1 0x80 DUP3 ADD MSTORE ADDRESS PUSH1 0xA0 DUP3 ADD MSTORE PUSH1 0xC0 ADD PUSH1 0x40 MLOAD PUSH1 0x20 DUP2 DUP4 SUB SUB DUP2 MSTORE SWAP1 PUSH1 0x40 MSTORE DUP1 MLOAD SWAP1 PUSH1 0x20 ADD KECCAK256 SWAP1 POP SWAP1 JUMP JUMPDEST PUSH1 0x0 DUP1 PUSH32 0x7FFFFFFFFFFFFFFFFFFFFFFFFFFFFFFF5D576E7357A4501DDFE92F46681B20A0 DUP4 GT ISZERO PUSH2 0x1969 JUMPI POP PUSH1 0x0 SWAP1 POP PUSH1 0x3 PUSH2 0x1A18 JUMP JUMPDEST PUSH1 0x40 DUP1 MLOAD PUSH1 0x0 DUP1 DUP3 MSTORE PUSH1 0x20 DUP3 ADD DUP1 DUP5 MSTORE DUP10 SWAP1 MSTORE PUSH1 0xFF DUP9 AND SWAP3 DUP3 ADD SWAP3 SWAP1 SWAP3 MSTORE PUSH1 0x60 DUP2 ADD DUP7 SWAP1 MSTORE PUSH1 0x80 DUP2 ADD DUP6 SWAP1 MSTORE PUSH1 0x1 SWAP1 PUSH1 0xA0 ADD PUSH1 0x20 PUSH1 0x40 MLOAD PUSH1 0x20 DUP2 SUB SWAP1 DUP1 DUP5 SUB SWAP1 DUP6 GAS STATICCALL ISZERO DUP1 ISZERO PUSH2 0x19BD JUMPI RETURNDATASIZE PUSH1 0x0 DUP1 RETURNDATACOPY RETURNDATASIZE PUSH1 0x0 REVERT JUMPDEST POP POP PUSH1 0x40 MLOAD PUSH32 0xFFFFFFFFFFFFFFFFFFFFFFFFFFFFFFFFFFFFFFFFFFFFFFFFFFFFFFFFFFFFFFE0 ADD MLOAD SWAP2 POP POP PUSH20 0xFFFFFFFFFFFFFFFFFFFFFFFFFFFFFFFFFFFFFFFF DUP2 AND PUSH2 0x1A11 JUMPI PUSH1 0x0 PUSH1 0x1 SWAP3 POP SWAP3 POP POP PUSH2 0x1A18 JUMP JUMPDEST SWAP2 POP PUSH1 0x0 SWAP1 POP JUMPDEST SWAP5 POP SWAP5 SWAP3 POP POP POP JUMP JUMPDEST PUSH1 0x0 DUP2 PUSH1 0x4 DUP2 GT ISZERO PUSH2 0x1A35 JUMPI PUSH2 0x1A35 PUSH2 0x247A JUMP JUMPDEST SUB PUSH2 0x1A3D JUMPI POP JUMP JUMPDEST PUSH1 0x1 DUP2 PUSH1 0x4 DUP2 GT ISZERO PUSH2 0x1A51 JUMPI PUSH2 0x1A51 PUSH2 0x247A JUMP JUMPDEST SUB PUSH2 0x1AB8 JUMPI PUSH1 0x40 MLOAD PUSH32 0x8C379A000000000000000000000000000000000000000000000000000000000 DUP2 MSTORE PUSH1 0x20 PUSH1 0x4 DUP3 ADD MSTORE PUSH1 0x18 PUSH1 0x24 DUP3 ADD MSTORE PUSH32 0x45434453413A20696E76616C6964207369676E61747572650000000000000000 PUSH1 0x44 DUP3 ADD MSTORE PUSH1 0x64 ADD PUSH2 0x648 JUMP JUMPDEST PUSH1 0x2 DUP2 PUSH1 0x4 DUP2 GT ISZERO PUSH2 0x1ACC JUMPI PUSH2 0x1ACC PUSH2 0x247A JUMP JUMPDEST SUB PUSH2 0x1B33 JUMPI PUSH1 0x40 MLOAD PUSH32 0x8C379A000000000000000000000000000000000000000000000000000000000 DUP2 MSTORE PUSH1 0x20 PUSH1 0x4 DUP3 ADD MSTORE PUSH1 0x1F PUSH1 0x24 DUP3 ADD MSTORE PUSH32 0x45434453413A20696E76616C6964207369676E6174757265206C656E67746800 PUSH1 0x44 DUP3 ADD MSTORE PUSH1 0x64 ADD PUSH2 0x648 JUMP JUMPDEST PUSH1 0x3 DUP2 PUSH1 0x4 DUP2 GT ISZERO PUSH2 0x1B47 JUMPI PUSH2 0x1B47 PUSH2 0x247A JUMP JUMPDEST SUB PUSH2 0xCAA JUMPI PUSH1 0x40 MLOAD PUSH32 0x8C379A000000000000000000000000000000000000000000000000000000000 DUP2 MSTORE PUSH1 0x20 PUSH1 0x4 DUP3 ADD MSTORE PUSH1 0x22 PUSH1 0x24 DUP3 ADD MSTORE PUSH32 0x45434453413A20696E76616C6964207369676E6174757265202773272076616C PUSH1 0x44 DUP3 ADD MSTORE PUSH32 0x7565000000000000000000000000000000000000000000000000000000000000 PUSH1 0x64 DUP3 ADD MSTORE PUSH1 0x84 ADD PUSH2 0x648 JUMP JUMPDEST PUSH1 0x0 SLOAD PUSH2 0x100 SWAP1 DIV PUSH1 0xFF AND PUSH2 0x1C6B JUMPI PUSH1 0x40 MLOAD PUSH32 0x8C379A000000000000000000000000000000000000000000000000000000000 DUP2 MSTORE PUSH1 0x20 PUSH1 0x4 DUP3 ADD MSTORE PUSH1 0x2B PUSH1 0x24 DUP3 ADD MSTORE PUSH32 0x496E697469616C697A61626C653A20636F6E7472616374206973206E6F742069 PUSH1 0x44 DUP3 ADD MSTORE PUSH32 0x6E697469616C697A696E67000000000000000000000000000000000000000000 PUSH1 0x64 DUP3 ADD MSTORE PUSH1 0x84 ADD PUSH2 0x648 JUMP JUMPDEST PUSH1 0x36 PUSH2 0x1C77 DUP4 DUP3 PUSH2 0x2360 JUMP JUMPDEST POP PUSH1 0x37 PUSH2 0x185C DUP3 DUP3 PUSH2 0x2360 JUMP JUMPDEST PUSH1 0x0 SLOAD PUSH2 0x100 SWAP1 DIV PUSH1 0xFF AND PUSH2 0x1D1B JUMPI PUSH1 0x40 MLOAD PUSH32 0x8C379A000000000000000000000000000000000000000000000000000000000 DUP2 MSTORE PUSH1 0x20 PUSH1 0x4 DUP3 ADD MSTORE PUSH1 0x2B PUSH1 0x24 DUP3 ADD MSTORE PUSH32 0x496E697469616C697A61626C653A20636F6E7472616374206973206E6F742069 PUSH1 0x44 DUP3 ADD MSTORE PUSH32 0x6E697469616C697A696E67000000000000000000000000000000000000000000 PUSH1 0x64 DUP3 ADD MSTORE PUSH1 0x84 ADD PUSH2 0x648 JUMP JUMPDEST PUSH1 0x67 PUSH2 0x1D27 DUP4 DUP3 PUSH2 0x2360 JUMP JUMPDEST POP PUSH1 0x68 PUSH2 0x1D34 DUP3 DUP3 PUSH2 0x2360 JUMP JUMPDEST POP POP PUSH1 0x0 PUSH1 0x65 DUP2 SWAP1 SSTORE PUSH1 0x66 SSTORE POP JUMP JUMPDEST PUSH1 0x0 SLOAD PUSH2 0x100 SWAP1 DIV PUSH1 0xFF AND PUSH2 0x1DDA JUMPI PUSH1 0x40 MLOAD PUSH32 0x8C379A000000000000000000000000000000000000000000000000000000000 DUP2 MSTORE PUSH1 0x20 PUSH1 0x4 DUP3 ADD MSTORE PUSH1 0x2B PUSH1 0x24 DUP3 ADD MSTORE PUSH32 0x496E697469616C697A61626C653A20636F6E7472616374206973206E6F742069 PUSH1 0x44 DUP3 ADD MSTORE PUSH32 0x6E697469616C697A696E67000000000000000000000000000000000000000000 PUSH1 0x64 DUP3 ADD MSTORE PUSH1 0x84 ADD PUSH2 0x648 JUMP JUMPDEST PUSH2 0x599 CALLER PUSH2 0x1249 JUMP JUMPDEST PUSH1 0x0 DUP1 PUSH2 0x1DEE PUSH2 0x12C0 JUMP JUMPDEST DUP1 MLOAD SWAP1 SWAP2 POP ISZERO PUSH2 0x1E05 JUMPI DUP1 MLOAD PUSH1 0x20 SWAP1 SWAP2 ADD KECCAK256 SWAP2 SWAP1 POP JUMP JUMPDEST PUSH1 0x65 SLOAD DUP1 ISZERO PUSH2 0x1E14 JUMPI SWAP3 SWAP2 POP POP JUMP JUMPDEST PUSH32 0xC5D2460186F7233C927E7DB2DCC703C0E500B653CA82273B7BFAD8045D85A470 SWAP3 POP POP POP SWAP1 JUMP JUMPDEST PUSH1 0x0 DUP1 PUSH2 0x1E47 PUSH2 0x12CF JUMP JUMPDEST DUP1 MLOAD SWAP1 SWAP2 POP ISZERO PUSH2 0x1E5E JUMPI DUP1 MLOAD PUSH1 0x20 SWAP1 SWAP2 ADD KECCAK256 SWAP2 SWAP1 POP JUMP JUMPDEST PUSH1 0x66 SLOAD DUP1 ISZERO PUSH2 0x1E14 JUMPI SWAP3 SWAP2 POP POP JUMP JUMPDEST PUSH1 0x0 DUP2 MLOAD DUP1 DUP5 MSTORE PUSH1 0x0 JUMPDEST DUP2 DUP2 LT ISZERO PUSH2 0x1E93 JUMPI PUSH1 0x20 DUP2 DUP6 ADD DUP2 ADD MLOAD DUP7 DUP4 ADD DUP3 ADD MSTORE ADD PUSH2 0x1E77 JUMP JUMPDEST POP PUSH1 0x0 PUSH1 0x20 DUP3 DUP7 ADD ADD MSTORE PUSH1 0x20 PUSH32 0xFFFFFFFFFFFFFFFFFFFFFFFFFFFFFFFFFFFFFFFFFFFFFFFFFFFFFFFFFFFFFFE0 PUSH1 0x1F DUP4 ADD AND DUP6 ADD ADD SWAP2 POP POP SWAP3 SWAP2 POP POP JUMP JUMPDEST PUSH1 0x20 DUP2 MSTORE PUSH1 0x0 PUSH2 0x1EE4 PUSH1 0x20 DUP4 ADD DUP5 PUSH2 0x1E6D JUMP JUMPDEST SWAP4 SWAP3 POP POP POP JUMP JUMPDEST DUP1 CALLDATALOAD PUSH20 0xFFFFFFFFFFFFFFFFFFFFFFFFFFFFFFFFFFFFFFFF DUP2 AND DUP2 EQ PUSH2 0x1F0F JUMPI PUSH1 0x0 DUP1 REVERT JUMPDEST SWAP2 SWAP1 POP JUMP JUMPDEST PUSH1 0x0 DUP1 PUSH1 0x40 DUP4 DUP6 SUB SLT ISZERO PUSH2 0x1F27 JUMPI PUSH1 0x0 DUP1 REVERT JUMPDEST PUSH2 0x1F30 DUP4 PUSH2 0x1EEB JUMP JUMPDEST SWAP5 PUSH1 0x20 SWAP4 SWAP1 SWAP4 ADD CALLDATALOAD SWAP4 POP POP POP JUMP JUMPDEST PUSH1 0x0 DUP1 PUSH1 0x0 PUSH1 0x60 DUP5 DUP7 SUB SLT ISZERO PUSH2 0x1F53 JUMPI PUSH1 0x0 DUP1 REVERT JUMPDEST PUSH2 0x1F5C DUP5 PUSH2 0x1EEB JUMP JUMPDEST SWAP3 POP PUSH2 0x1F6A PUSH1 0x20 DUP6 ADD PUSH2 0x1EEB JUMP JUMPDEST SWAP2 POP PUSH1 0x40 DUP5 ADD CALLDATALOAD SWAP1 POP SWAP3 POP SWAP3 POP SWAP3 JUMP JUMPDEST PUSH1 0x0 PUSH1 0x20 DUP3 DUP5 SUB SLT ISZERO PUSH2 0x1F8C JUMPI PUSH1 0x0 DUP1 REVERT JUMPDEST PUSH2 0x1EE4 DUP3 PUSH2 0x1EEB JUMP JUMPDEST PUSH32 0xFF00000000000000000000000000000000000000000000000000000000000000 DUP9 AND DUP2 MSTORE PUSH1 0x0 PUSH1 0x20 PUSH1 0xE0 PUSH1 0x20 DUP5 ADD MSTORE PUSH2 0x1FD2 PUSH1 0xE0 DUP5 ADD DUP11 PUSH2 0x1E6D JUMP JUMPDEST DUP4 DUP2 SUB PUSH1 0x40 DUP6 ADD MSTORE PUSH2 0x1FE4 DUP2 DUP11 PUSH2 0x1E6D JUMP JUMPDEST PUSH1 0x60 DUP6 ADD DUP10 SWAP1 MSTORE PUSH20 0xFFFFFFFFFFFFFFFFFFFFFFFFFFFFFFFFFFFFFFFF DUP9 AND PUSH1 0x80 DUP7 ADD MSTORE PUSH1 0xA0 DUP6 ADD DUP8 SWAP1 MSTORE DUP5 DUP2 SUB PUSH1 0xC0 DUP7 ADD MSTORE DUP6 MLOAD DUP1 DUP3 MSTORE PUSH1 0x20 DUP1 DUP9 ADD SWAP4 POP SWAP1 SWAP2 ADD SWAP1 PUSH1 0x0 JUMPDEST DUP2 DUP2 LT ISZERO PUSH2 0x2045 JUMPI DUP4 MLOAD DUP4 MSTORE SWAP3 DUP5 ADD SWAP3 SWAP2 DUP5 ADD SWAP2 PUSH1 0x1 ADD PUSH2 0x2029 JUMP JUMPDEST POP SWAP1 SWAP13 SWAP12 POP POP POP POP POP POP POP POP POP POP POP POP JUMP JUMPDEST PUSH1 0x0 DUP1 PUSH1 0x0 DUP1 PUSH1 0x0 DUP1 PUSH1 0x0 PUSH1 0xE0 DUP9 DUP11 SUB SLT ISZERO PUSH2 0x2072 JUMPI PUSH1 0x0 DUP1 REVERT JUMPDEST PUSH2 0x207B DUP9 PUSH2 0x1EEB JUMP JUMPDEST SWAP7 POP PUSH2 0x2089 PUSH1 0x20 DUP10 ADD PUSH2 0x1EEB JUMP JUMPDEST SWAP6 POP PUSH1 0x40 DUP9 ADD CALLDATALOAD SWAP5 POP PUSH1 0x60 DUP9 ADD CALLDATALOAD SWAP4 POP PUSH1 0x80 DUP9 ADD CALLDATALOAD PUSH1 0xFF DUP2 AND DUP2 EQ PUSH2 0x20AD JUMPI PUSH1 0x0 DUP1 REVERT JUMPDEST SWAP7 SWAP10 SWAP6 SWAP9 POP SWAP4 SWAP7 SWAP3 SWAP6 SWAP5 PUSH1 0xA0 DUP5 ADD CALLDATALOAD SWAP5 POP PUSH1 0xC0 SWAP1 SWAP4 ADD CALLDATALOAD SWAP3 SWAP2 POP POP JUMP JUMPDEST PUSH1 0x0 DUP1 PUSH1 0x40 DUP4 DUP6 SUB SLT ISZERO PUSH2 0x20DD JUMPI PUSH1 0x0 DUP1 REVERT JUMPDEST PUSH2 0x20E6 DUP4 PUSH2 0x1EEB JUMP JUMPDEST SWAP2 POP PUSH2 0x20F4 PUSH1 0x20 DUP5 ADD PUSH2 0x1EEB JUMP JUMPDEST SWAP1 POP SWAP3 POP SWAP3 SWAP1 POP JUMP JUMPDEST PUSH32 0x4E487B7100000000000000000000000000000000000000000000000000000000 PUSH1 0x0 MSTORE PUSH1 0x41 PUSH1 0x4 MSTORE PUSH1 0x24 PUSH1 0x0 REVERT JUMPDEST PUSH1 0x0 DUP3 PUSH1 0x1F DUP4 ADD SLT PUSH2 0x213D JUMPI PUSH1 0x0 DUP1 REVERT JUMPDEST DUP2 CALLDATALOAD PUSH8 0xFFFFFFFFFFFFFFFF DUP1 DUP3 GT ISZERO PUSH2 0x2158 JUMPI PUSH2 0x2158 PUSH2 0x20FD JUMP JUMPDEST PUSH1 0x40 MLOAD PUSH1 0x1F DUP4 ADD PUSH32 0xFFFFFFFFFFFFFFFFFFFFFFFFFFFFFFFFFFFFFFFFFFFFFFFFFFFFFFFFFFFFFFE0 SWAP1 DUP2 AND PUSH1 0x3F ADD AND DUP2 ADD SWAP1 DUP3 DUP3 GT DUP2 DUP4 LT OR ISZERO PUSH2 0x219E JUMPI PUSH2 0x219E PUSH2 0x20FD JUMP JUMPDEST DUP2 PUSH1 0x40 MSTORE DUP4 DUP2 MSTORE DUP7 PUSH1 0x20 DUP6 DUP9 ADD ADD GT ISZERO PUSH2 0x21B7 JUMPI PUSH1 0x0 DUP1 REVERT JUMPDEST DUP4 PUSH1 0x20 DUP8 ADD PUSH1 0x20 DUP4 ADD CALLDATACOPY PUSH1 0x0 PUSH1 0x20 DUP6 DUP4 ADD ADD MSTORE DUP1 SWAP5 POP POP POP POP POP SWAP3 SWAP2 POP POP JUMP JUMPDEST PUSH1 0x0 DUP1 PUSH1 0x0 DUP1 PUSH1 0x0 DUP1 PUSH1 0xC0 DUP8 DUP10 SUB SLT ISZERO PUSH2 0x21F0 JUMPI PUSH1 0x0 DUP1 REVERT JUMPDEST PUSH2 0x21F9 DUP8 PUSH2 0x1EEB JUMP JUMPDEST SWAP6 POP PUSH2 0x2207 PUSH1 0x20 DUP9 ADD PUSH2 0x1EEB JUMP JUMPDEST SWAP5 POP PUSH1 0x40 DUP8 ADD CALLDATALOAD PUSH8 0xFFFFFFFFFFFFFFFF DUP1 DUP3 GT ISZERO PUSH2 0x2224 JUMPI PUSH1 0x0 DUP1 REVERT JUMPDEST PUSH2 0x2230 DUP11 DUP4 DUP12 ADD PUSH2 0x212C JUMP JUMPDEST SWAP6 POP PUSH1 0x60 DUP10 ADD CALLDATALOAD SWAP2 POP DUP1 DUP3 GT ISZERO PUSH2 0x2246 JUMPI PUSH1 0x0 DUP1 REVERT JUMPDEST PUSH2 0x2252 DUP11 DUP4 DUP12 ADD PUSH2 0x212C JUMP JUMPDEST SWAP5 POP PUSH1 0x80 DUP10 ADD CALLDATALOAD SWAP2 POP DUP1 DUP3 GT ISZERO PUSH2 0x2268 JUMPI PUSH1 0x0 DUP1 REVERT JUMPDEST POP PUSH2 0x2275 DUP10 DUP3 DUP11 ADD PUSH2 0x212C JUMP JUMPDEST SWAP3 POP POP PUSH1 0xA0 DUP8 ADD CALLDATALOAD SWAP1 POP SWAP3 SWAP6 POP SWAP3 SWAP6 POP SWAP3 SWAP6 JUMP JUMPDEST PUSH1 0x1 DUP2 DUP2 SHR SWAP1 DUP3 AND DUP1 PUSH2 0x229D JUMPI PUSH1 0x7F DUP3 AND SWAP2 POP JUMPDEST PUSH1 0x20 DUP3 LT DUP2 SUB PUSH2 0x130D JUMPI PUSH32 0x4E487B7100000000000000000000000000000000000000000000000000000000 PUSH1 0x0 MSTORE PUSH1 0x22 PUSH1 0x4 MSTORE PUSH1 0x24 PUSH1 0x0 REVERT JUMPDEST DUP1 DUP3 ADD DUP1 DUP3 GT ISZERO PUSH2 0x474 JUMPI PUSH32 0x4E487B7100000000000000000000000000000000000000000000000000000000 PUSH1 0x0 MSTORE PUSH1 0x11 PUSH1 0x4 MSTORE PUSH1 0x24 PUSH1 0x0 REVERT JUMPDEST PUSH1 0x1F DUP3 GT ISZERO PUSH2 0x185C JUMPI PUSH1 0x0 DUP2 PUSH1 0x0 MSTORE PUSH1 0x20 PUSH1 0x0 KECCAK256 PUSH1 0x1F DUP6 ADD PUSH1 0x5 SHR DUP2 ADD PUSH1 0x20 DUP7 LT ISZERO PUSH2 0x2339 JUMPI POP DUP1 JUMPDEST PUSH1 0x1F DUP6 ADD PUSH1 0x5 SHR DUP3 ADD SWAP2 POP JUMPDEST DUP2 DUP2 LT ISZERO PUSH2 0x2358 JUMPI DUP3 DUP2 SSTORE PUSH1 0x1 ADD PUSH2 0x2345 JUMP JUMPDEST POP POP POP POP POP POP JUMP JUMPDEST DUP2 MLOAD PUSH8 0xFFFFFFFFFFFFFFFF DUP2 GT ISZERO PUSH2 0x237A JUMPI PUSH2 0x237A PUSH2 0x20FD JUMP JUMPDEST PUSH2 0x238E DUP2 PUSH2 0x2388 DUP5 SLOAD PUSH2 0x2289 JUMP JUMPDEST DUP5 PUSH2 0x2310 JUMP JUMPDEST PUSH1 0x20 DUP1 PUSH1 0x1F DUP4 GT PUSH1 0x1 DUP2 EQ PUSH2 0x23E1 JUMPI PUSH1 0x0 DUP5 ISZERO PUSH2 0x23AB JUMPI POP DUP6 DUP4 ADD MLOAD JUMPDEST PUSH32 0xFFFFFFFFFFFFFFFFFFFFFFFFFFFFFFFFFFFFFFFFFFFFFFFFFFFFFFFFFFFFFFFF PUSH1 0x3 DUP7 SWAP1 SHL SHR NOT AND PUSH1 0x1 DUP6 SWAP1 SHL OR DUP6 SSTORE PUSH2 0x2358 JUMP JUMPDEST PUSH1 0x0 DUP6 DUP2 MSTORE PUSH1 0x20 DUP2 KECCAK256 PUSH32 0xFFFFFFFFFFFFFFFFFFFFFFFFFFFFFFFFFFFFFFFFFFFFFFFFFFFFFFFFFFFFFFE0 DUP7 AND SWAP2 JUMPDEST DUP3 DUP2 LT ISZERO PUSH2 0x242E JUMPI DUP9 DUP7 ADD MLOAD DUP3 SSTORE SWAP5 DUP5 ADD SWAP5 PUSH1 0x1 SWAP1 SWAP2 ADD SWAP1 DUP5 ADD PUSH2 0x240F JUMP JUMPDEST POP DUP6 DUP3 LT ISZERO PUSH2 0x246A JUMPI DUP8 DUP6 ADD MLOAD PUSH32 0xFFFFFFFFFFFFFFFFFFFFFFFFFFFFFFFFFFFFFFFFFFFFFFFFFFFFFFFFFFFFFFFF PUSH1 0x3 DUP9 SWAP1 SHL PUSH1 0xF8 AND SHR NOT AND DUP2 SSTORE JUMPDEST POP POP POP POP POP PUSH1 0x1 SWAP1 DUP2 SHL ADD SWAP1 SSTORE POP JUMP JUMPDEST PUSH32 0x4E487B7100000000000000000000000000000000000000000000000000000000 PUSH1 0x0 MSTORE PUSH1 0x21 PUSH1 0x4 MSTORE PUSH1 0x24 PUSH1 0x0 REVERT INVALID LOG2 PUSH5 0x6970667358 0x22 SLT KECCAK256 0xDE 0xBB 0xE8 0xD9 EQ BALANCE SWAP11 SWAP15 EXP 0xBC DUP8 0xE3 PUSH6 0x18CD16F3B585 0xD3 SWAP11 EXTCODESIZE JUMP 0xB6 0x4F COINBASE 0xA7 0x26 MSIZE 0xD8 0xB3 BYTE PUSH5 0x736F6C6343 STOP ADDMOD XOR STOP CALLER "
				},
				"gasEstimates": {
					"creation": {
						"codeDepositCost": "1887800",
						"executionCost": "1990",
						"totalCost": "1889790"
					},
					"external": {
						"DOMAIN_SEPARATOR()": "infinite",
						"allowance(address,address)": "infinite",
						"approve(address,uint256)": "24626",
						"balanceOf(address)": "2603",
						"decimals()": "245",
						"decreaseAllowance(address,uint256)": "26885",
						"eip712Domain()": "infinite",
						"increaseAllowance(address,uint256)": "infinite",
						"initialize(address,address,string,string,string,uint256)": "infinite",
						"maxSupply()": "2384",
						"metaURI()": "infinite",
						"name()": "infinite",
						"nonces(address)": "2614",
						"owner()": "2357",
						"permit(address,address,uint256,uint256,uint8,bytes32,bytes32)": "infinite",
						"pools()": "4472",
						"removeTransferConstraints()": "26600",
						"renounceOwnership()": "infinite",
						"symbol()": "infinite",
						"totalSupply()": "2372",
						"transfer(address,uint256)": "63464",
						"transferConstraints()": "2356",
						"transferFrom(address,address,uint256)": "infinite",
						"transferOwnership(address)": "28361"
					},
					"internal": {
						"_afterTokenTransfer(address,address,uint256)": "infinite",
						"_beforeTokenTransfer(address,address,uint256)": "infinite"
					}
				},
				"methodIdentifiers": {
					"DOMAIN_SEPARATOR()": "3644e515",
					"allowance(address,address)": "dd62ed3e",
					"approve(address,uint256)": "095ea7b3",
					"balanceOf(address)": "70a08231",
					"decimals()": "313ce567",
					"decreaseAllowance(address,uint256)": "a457c2d7",
					"eip712Domain()": "84b0196e",
					"increaseAllowance(address,uint256)": "39509351",
					"initialize(address,address,string,string,string,uint256)": "ded96d48",
					"maxSupply()": "d5abeb01",
					"metaURI()": "67605787",
					"name()": "06fdde03",
					"nonces(address)": "7ecebe00",
					"owner()": "8da5cb5b",
					"permit(address,address,uint256,uint256,uint8,bytes32,bytes32)": "d505accf",
					"pools()": "c5c51dca",
					"removeTransferConstraints()": "aa755fdc",
					"renounceOwnership()": "715018a6",
					"symbol()": "95d89b41",
					"totalSupply()": "18160ddd",
					"transfer(address,uint256)": "a9059cbb",
					"transferConstraints()": "87c82823",
					"transferFrom(address,address,uint256)": "23b872dd",
					"transferOwnership(address)": "f2fde38b"
				}
			},
			"storageLayout": {
				"storage": [
					{
						"astId": 1911,
						"contract": "TokenV2_Flattened.sol:TokenV2",
						"label": "_initialized",
						"offset": 0,
						"slot": "0",
						"type": "t_uint8"
					},
					{
						"astId": 1914,
						"contract": "TokenV2_Flattened.sol:TokenV2",
						"label": "_initializing",
						"offset": 1,
						"slot": "0",
						"type": "t_bool"
					},
					{
						"astId": 2119,
						"contract": "TokenV2_Flattened.sol:TokenV2",
						"label": "__gap",
						"offset": 0,
						"slot": "1",
						"type": "t_array(t_uint256)50_storage"
					},
					{
						"astId": 2231,
						"contract": "TokenV2_Flattened.sol:TokenV2",
						"label": "_balances",
						"offset": 0,
						"slot": "51",
						"type": "t_mapping(t_address,t_uint256)"
					},
					{
						"astId": 2237,
						"contract": "TokenV2_Flattened.sol:TokenV2",
						"label": "_allowances",
						"offset": 0,
						"slot": "52",
						"type": "t_mapping(t_address,t_mapping(t_address,t_uint256))"
					},
					{
						"astId": 2239,
						"contract": "TokenV2_Flattened.sol:TokenV2",
						"label": "_totalSupply",
						"offset": 0,
						"slot": "53",
						"type": "t_uint256"
					},
					{
						"astId": 2241,
						"contract": "TokenV2_Flattened.sol:TokenV2",
						"label": "_name",
						"offset": 0,
						"slot": "54",
						"type": "t_string_storage"
					},
					{
						"astId": 2243,
						"contract": "TokenV2_Flattened.sol:TokenV2",
						"label": "_symbol",
						"offset": 0,
						"slot": "55",
						"type": "t_string_storage"
					},
					{
						"astId": 2823,
						"contract": "TokenV2_Flattened.sol:TokenV2",
						"label": "__gap",
						"offset": 0,
						"slot": "56",
						"type": "t_array(t_uint256)45_storage"
					},
					{
						"astId": 2943,
						"contract": "TokenV2_Flattened.sol:TokenV2",
						"label": "_hashedName",
						"offset": 0,
						"slot": "101",
						"type": "t_bytes32"
					},
					{
						"astId": 2946,
						"contract": "TokenV2_Flattened.sol:TokenV2",
						"label": "_hashedVersion",
						"offset": 0,
						"slot": "102",
						"type": "t_bytes32"
					},
					{
						"astId": 2948,
						"contract": "TokenV2_Flattened.sol:TokenV2",
						"label": "_name",
						"offset": 0,
						"slot": "103",
						"type": "t_string_storage"
					},
					{
						"astId": 2950,
						"contract": "TokenV2_Flattened.sol:TokenV2",
						"label": "_version",
						"offset": 0,
						"slot": "104",
						"type": "t_string_storage"
					},
					{
						"astId": 3208,
						"contract": "TokenV2_Flattened.sol:TokenV2",
						"label": "__gap",
						"offset": 0,
						"slot": "105",
						"type": "t_array(t_uint256)48_storage"
					},
					{
						"astId": 3227,
						"contract": "TokenV2_Flattened.sol:TokenV2",
						"label": "_nonces",
						"offset": 0,
						"slot": "153",
						"type": "t_mapping(t_address,t_struct(Counter)2828_storage)"
					},
					{
						"astId": 3235,
						"contract": "TokenV2_Flattened.sol:TokenV2",
						"label": "_PERMIT_TYPEHASH_DEPRECATED_SLOT",
						"offset": 0,
						"slot": "154",
						"type": "t_bytes32"
					},
					{
						"astId": 3391,
						"contract": "TokenV2_Flattened.sol:TokenV2",
						"label": "__gap",
						"offset": 0,
						"slot": "155",
						"type": "t_array(t_uint256)49_storage"
					},
					{
						"astId": 3399,
						"contract": "TokenV2_Flattened.sol:TokenV2",
						"label": "_owner",
						"offset": 0,
						"slot": "204",
						"type": "t_address"
					},
					{
						"astId": 3519,
						"contract": "TokenV2_Flattened.sol:TokenV2",
						"label": "__gap",
						"offset": 0,
						"slot": "205",
						"type": "t_array(t_uint256)49_storage"
					},
					{
						"astId": 3582,
						"contract": "TokenV2_Flattened.sol:TokenV2",
						"label": "maxSupply",
						"offset": 0,
						"slot": "254",
						"type": "t_uint256"
					},
					{
						"astId": 3585,
						"contract": "TokenV2_Flattened.sol:TokenV2",
						"label": "metaURI",
						"offset": 0,
						"slot": "255",
						"type": "t_string_storage"
					},
					{
						"astId": 3588,
						"contract": "TokenV2_Flattened.sol:TokenV2",
						"label": "transferConstraints",
						"offset": 0,
						"slot": "256",
						"type": "t_bool"
					},
					{
						"astId": 3591,
						"contract": "TokenV2_Flattened.sol:TokenV2",
						"label": "uniswapV2Pool",
						"offset": 1,
						"slot": "256",
						"type": "t_address"
					},
					{
						"astId": 3594,
						"contract": "TokenV2_Flattened.sol:TokenV2",
						"label": "uniswapV3Pool",
						"offset": 0,
						"slot": "257",
						"type": "t_address"
					}
				],
				"types": {
					"t_address": {
						"encoding": "inplace",
						"label": "address",
						"numberOfBytes": "20"
					},
					"t_array(t_uint256)45_storage": {
						"base": "t_uint256",
						"encoding": "inplace",
						"label": "uint256[45]",
						"numberOfBytes": "1440"
					},
					"t_array(t_uint256)48_storage": {
						"base": "t_uint256",
						"encoding": "inplace",
						"label": "uint256[48]",
						"numberOfBytes": "1536"
					},
					"t_array(t_uint256)49_storage": {
						"base": "t_uint256",
						"encoding": "inplace",
						"label": "uint256[49]",
						"numberOfBytes": "1568"
					},
					"t_array(t_uint256)50_storage": {
						"base": "t_uint256",
						"encoding": "inplace",
						"label": "uint256[50]",
						"numberOfBytes": "1600"
					},
					"t_bool": {
						"encoding": "inplace",
						"label": "bool",
						"numberOfBytes": "1"
					},
					"t_bytes32": {
						"encoding": "inplace",
						"label": "bytes32",
						"numberOfBytes": "32"
					},
					"t_mapping(t_address,t_mapping(t_address,t_uint256))": {
						"encoding": "mapping",
						"key": "t_address",
						"label": "mapping(address => mapping(address => uint256))",
						"numberOfBytes": "32",
						"value": "t_mapping(t_address,t_uint256)"
					},
					"t_mapping(t_address,t_struct(Counter)2828_storage)": {
						"encoding": "mapping",
						"key": "t_address",
						"label": "mapping(address => struct CountersUpgradeable.Counter)",
						"numberOfBytes": "32",
						"value": "t_struct(Counter)2828_storage"
					},
					"t_mapping(t_address,t_uint256)": {
						"encoding": "mapping",
						"key": "t_address",
						"label": "mapping(address => uint256)",
						"numberOfBytes": "32",
						"value": "t_uint256"
					},
					"t_string_storage": {
						"encoding": "bytes",
						"label": "string",
						"numberOfBytes": "32"
					},
					"t_struct(Counter)2828_storage": {
						"encoding": "inplace",
						"label": "struct CountersUpgradeable.Counter",
						"members": [
							{
								"astId": 2827,
								"contract": "TokenV2_Flattened.sol:TokenV2",
								"label": "_value",
								"offset": 0,
								"slot": "0",
								"type": "t_uint256"
							}
						],
						"numberOfBytes": "32"
					},
					"t_uint256": {
						"encoding": "inplace",
						"label": "uint256",
						"numberOfBytes": "32"
					},
					"t_uint8": {
						"encoding": "inplace",
						"label": "uint8",
						"numberOfBytes": "1"
					}
				}
			},
			"userdoc": {
				"events": {
					"TransferFlapToken(address,address,uint256)": {
						"notice": "the same as the ERC20 Transfer event, we intentionally duplicate it here This would make the indexer easier to index our transfer event only. To save gas, we remove indexed from the from and to"
					}
				},
				"kind": "user",
				"methods": {
					"maxSupply()": {
						"notice": "The max supply of the token"
					},
					"metaURI()": {
						"notice": "URI for the token metadata"
					},
					"pools()": {
						"notice": "the predicted pool address for uniswap v2 & v3"
					},
					"removeTransferConstraints()": {
						"notice": "Remove the transferring constraints of the token"
					},
					"transferConstraints()": {
						"notice": "If true, transferring to uniswap v2/v3 pool is not allowed"
					}
				},
				"notice": "Token with max supply and metaURI",
				"version": 1
			}
		}
	}
}