{
	"ProxyDeployer.sol": {
		"InitEncoder": {
			"abi": [
				{
					"inputs": [
						{
							"internalType": "address",
							"name": "_v2Pool",
							"type": "address"
						},
						{
							"internalType": "address",
							"name": "_v3Pool",
							"type": "address"
						},
						{
							"internalType": "string",
							"name": "name_",
							"type": "string"
						},
						{
							"internalType": "string",
							"name": "symbol_",
							"type": "string"
						},
						{
							"internalType": "string",
							"name": "meta_",
							"type": "string"
						},
						{
							"internalType": "uint256",
							"name": "maxSupply_",
							"type": "uint256"
						}
					],
					"name": "encodeInit",
					"outputs": [
						{
							"internalType": "bytes",
							"name": "",
							"type": "bytes"
						}
					],
					"stateMutability": "pure",
					"type": "function"
				}
			],
			"devdoc": {
				"details": "Helper contract to encode the initialize() calldata for TokenV2 Deploy this, call encodeInit() with your parameters, then use the returned bytes as the _data argument for ERC1967Proxy",
				"kind": "dev",
				"methods": {},
				"version": 1
			},
			"evm": {
				"assembly": "    /* \"ProxyDeployer.sol\":3162:3694  contract InitEncoder {... */\n  mstore(0x40, 0x80)\n  callvalue\n  dup1\n  iszero\n  tag_1\n  jumpi\n  0x00\n  dup1\n  revert\ntag_1:\n  pop\n  dataSize(sub_0)\n  dup1\n  dataOffset(sub_0)\n  0x00\n  codecopy\n  0x00\n  return\nstop\n\nsub_0: assembly {\n        /* \"ProxyDeployer.sol\":3162:3694  contract InitEncoder {... */\n      mstore(0x40, 0x80)\n      callvalue\n      dup1\n      iszero\n      tag_1\n      jumpi\n      0x00\n      dup1\n      revert\n    tag_1:\n      pop\n      jumpi(tag_2, lt(calldatasize, 0x04))\n      shr(0xe0, calldataload(0x00))\n      dup1\n      0x720b338a\n      eq\n      tag_3\n      jumpi\n    tag_2:\n      0x00\n      dup1\n      revert\n        /* \"ProxyDeployer.sol\":3190:3691  function encodeInit(... */\n    tag_3:\n      tag_4\n      tag_5\n      calldatasize\n      0x04\n      tag_6\n      jump\t// in\n    tag_5:\n      tag_7\n      jump\t// in\n    tag_4:\n      mload(0x40)\n      tag_8\n      swap2\n      swap1\n      tag_9\n      jump\t// in\n    tag_8:\n      mload(0x40)\n      dup1\n      swap2\n      sub\n      swap1\n      return\n    tag_7:\n        /* \"ProxyDeployer.sol\":3413:3425  bytes memory */\n      0x60\n        /* \"ProxyDeployer.sol\":3556:3563  _v2Pool */\n      dup7\n        /* \"ProxyDeployer.sol\":3578:3585  _v3Pool */\n      dup7\n        /* \"ProxyDeployer.sol\":3600:3605  name_ */\n      dup7\n        /* \"ProxyDeployer.sol\":3620:3627  symbol_ */\n      dup7\n        /* \"ProxyDeployer.sol\":3642:3647  meta_ */\n      dup7\n        /* \"ProxyDeployer.sol\":3662:3672  maxSupply_ */\n      dup7\n        /* \"ProxyDeployer.sol\":3445:3683  abi.encodeWithSignature(... */\n      add(0x24, mload(0x40))\n      tag_11\n      swap7\n      swap6\n      swap5\n      swap4\n      swap3\n      swap2\n      swap1\n      tag_12\n      jump\t// in\n    tag_11:\n      0x40\n      dup1\n      mload\n      0xffffffffffffffffffffffffffffffffffffffffffffffffffffffffffffffe0\n      dup2\n      dup5\n      sub\n      add\n      dup2\n      mstore\n      swap2\n      swap1\n      mstore\n      0x20\n      dup2\n      add\n      dup1\n      mload\n      0xffffffffffffffffffffffffffffffffffffffffffffffffffffffff\n      and\n      0xded96d4800000000000000000000000000000000000000000000000000000000\n      or\n      swap1\n      mstore\n      swap1\n      pop\n        /* \"ProxyDeployer.sol\":3190:3691  function encodeInit(... */\n      swap7\n      swap6\n      pop\n      pop\n      pop\n      pop\n      pop\n      pop\n      jump\t// out\n        /* \"#utility.yul\":14:210   */\n    tag_13:\n        /* \"#utility.yul\":82:102   */\n      dup1\n      calldataload\n        /* \"#utility.yul\":142:184   */\n      0xffffffffffffffffffffffffffffffffffffffff\n        /* \"#utility.yul\":131:185   */\n      dup2\n      and\n        /* \"#utility.yul\":121:186   */\n      dup2\n      eq\n        /* \"#utility.yul\":111:204   */\n      tag_19\n      jumpi\n        /* \"#utility.yul\":200:201   */\n      0x00\n        /* \"#utility.yul\":197:198   */\n      dup1\n        /* \"#utility.yul\":190:202   */\n      revert\n        /* \"#utility.yul\":111:204   */\n    tag_19:\n        /* \"#utility.yul\":14:210   */\n      swap2\n      swap1\n      pop\n      jump\t// out\n        /* \"#utility.yul\":215:399   */\n    tag_14:\n        /* \"#utility.yul\":267:344   */\n      0x4e487b7100000000000000000000000000000000000000000000000000000000\n        /* \"#utility.yul\":264:265   */\n      0x00\n        /* \"#utility.yul\":257:345   */\n      mstore\n        /* \"#utility.yul\":364:368   */\n      0x41\n        /* \"#utility.yul\":361:362   */\n      0x04\n        /* \"#utility.yul\":354:369   */\n      mstore\n        /* \"#utility.yul\":388:392   */\n      0x24\n        /* \"#utility.yul\":385:386   */\n      0x00\n        /* \"#utility.yul\":378:393   */\n      revert\n        /* \"#utility.yul\":404:1182   */\n    tag_15:\n        /* \"#utility.yul\":447:452   */\n      0x00\n        /* \"#utility.yul\":500:503   */\n      dup3\n        /* \"#utility.yul\":493:497   */\n      0x1f\n        /* \"#utility.yul\":485:491   */\n      dup4\n        /* \"#utility.yul\":481:498   */\n      add\n        /* \"#utility.yul\":477:504   */\n      slt\n        /* \"#utility.yul\":467:522   */\n      tag_22\n      jumpi\n        /* \"#utility.yul\":518:519   */\n      0x00\n        /* \"#utility.yul\":515:516   */\n      dup1\n        /* \"#utility.yul\":508:520   */\n      revert\n        /* \"#utility.yul\":467:522   */\n    tag_22:\n        /* \"#utility.yul\":554:560   */\n      dup2\n        /* \"#utility.yul\":541:561   */\n      calldataload\n        /* \"#utility.yul\":580:598   */\n      0xffffffffffffffff\n        /* \"#utility.yul\":617:619   */\n      dup1\n        /* \"#utility.yul\":613:615   */\n      dup3\n        /* \"#utility.yul\":610:620   */\n      gt\n        /* \"#utility.yul\":607:643   */\n      iszero\n      tag_24\n      jumpi\n        /* \"#utility.yul\":623:641   */\n      tag_24\n      tag_14\n      jump\t// in\n    tag_24:\n        /* \"#utility.yul\":757:759   */\n      0x40\n        /* \"#utility.yul\":751:760   */\n      mload\n        /* \"#utility.yul\":819:823   */\n      0x1f\n        /* \"#utility.yul\":811:824   */\n      dup4\n      add\n        /* \"#utility.yul\":662:728   */\n      0xffffffffffffffffffffffffffffffffffffffffffffffffffffffffffffffe0\n        /* \"#utility.yul\":807:829   */\n      swap1\n      dup2\n      and\n        /* \"#utility.yul\":831:833   */\n      0x3f\n        /* \"#utility.yul\":803:834   */\n      add\n        /* \"#utility.yul\":799:839   */\n      and\n        /* \"#utility.yul\":787:840   */\n      dup2\n      add\n      swap1\n        /* \"#utility.yul\":855:873   */\n      dup3\n      dup3\n      gt\n        /* \"#utility.yul\":875:897   */\n      dup2\n      dup4\n      lt\n        /* \"#utility.yul\":852:898   */\n      or\n        /* \"#utility.yul\":849:921   */\n      iszero\n      tag_26\n      jumpi\n        /* \"#utility.yul\":901:919   */\n      tag_26\n      tag_14\n      jump\t// in\n    tag_26:\n        /* \"#utility.yul\":941:951   */\n      dup2\n        /* \"#utility.yul\":937:939   */\n      0x40\n        /* \"#utility.yul\":930:952   */\n      mstore\n        /* \"#utility.yul\":976:978   */\n      dup4\n        /* \"#utility.yul\":968:974   */\n      dup2\n        /* \"#utility.yul\":961:979   */\n      mstore\n        /* \"#utility.yul\":1022:1025   */\n      dup7\n        /* \"#utility.yul\":1015:1019   */\n      0x20\n        /* \"#utility.yul\":1010:1012   */\n      dup6\n        /* \"#utility.yul\":1002:1008   */\n      dup9\n        /* \"#utility.yul\":998:1013   */\n      add\n        /* \"#utility.yul\":994:1020   */\n      add\n        /* \"#utility.yul\":991:1026   */\n      gt\n        /* \"#utility.yul\":988:1043   */\n      iszero\n      tag_27\n      jumpi\n        /* \"#utility.yul\":1039:1040   */\n      0x00\n        /* \"#utility.yul\":1036:1037   */\n      dup1\n        /* \"#utility.yul\":1029:1041   */\n      revert\n        /* \"#utility.yul\":988:1043   */\n    tag_27:\n        /* \"#utility.yul\":1103:1105   */\n      dup4\n        /* \"#utility.yul\":1096:1100   */\n      0x20\n        /* \"#utility.yul\":1088:1094   */\n      dup8\n        /* \"#utility.yul\":1084:1101   */\n      add\n        /* \"#utility.yul\":1077:1081   */\n      0x20\n        /* \"#utility.yul\":1069:1075   */\n      dup4\n        /* \"#utility.yul\":1065:1082   */\n      add\n        /* \"#utility.yul\":1052:1106   */\n      calldatacopy\n        /* \"#utility.yul\":1150:1151   */\n      0x00\n        /* \"#utility.yul\":1143:1147   */\n      0x20\n        /* \"#utility.yul\":1138:1140   */\n      dup6\n        /* \"#utility.yul\":1130:1136   */\n      dup4\n        /* \"#utility.yul\":1126:1141   */\n      add\n        /* \"#utility.yul\":1122:1148   */\n      add\n        /* \"#utility.yul\":1115:1152   */\n      mstore\n        /* \"#utility.yul\":1170:1176   */\n      dup1\n        /* \"#utility.yul\":1161:1176   */\n      swap5\n      pop\n      pop\n      pop\n      pop\n      pop\n        /* \"#utility.yul\":404:1182   */\n      swap3\n      swap2\n      pop\n      pop\n      jump\t// out\n        /* \"#utility.yul\":1187:2149   */\n    tag_6:\n        /* \"#utility.yul\":1321:1327   */\n      0x00\n        /* \"#utility.yul\":1329:1335   */\n      dup1\n        /* \"#utility.yul\":1337:1343   */\n      0x00\n        /* \"#utility.yul\":1345:1351   */\n      dup1\n        /* \"#utility.yul\":1353:1359   */\n      0x00\n        /* \"#utility.yul\":1361:1367   */\n      dup1\n        /* \"#utility.yul\":1414:1417   */\n      0xc0\n        /* \"#utility.yul\":1402:1411   */\n      dup8\n        /* \"#utility.yul\":1393:1400   */\n      dup10\n        /* \"#utility.yul\":1389:1412   */\n      sub\n        /* \"#utility.yul\":1385:1418   */\n      slt\n        /* \"#utility.yul\":1382:1435   */\n      iszero\n      tag_29\n      jumpi\n        /* \"#utility.yul\":1431:1432   */\n      0x00\n        /* \"#utility.yul\":1428:1429   */\n      dup1\n        /* \"#utility.yul\":1421:1433   */\n      revert\n        /* \"#utility.yul\":1382:1435   */\n    tag_29:\n        /* \"#utility.yul\":1454:1483   */\n      tag_30\n        /* \"#utility.yul\":1473:1482   */\n      dup8\n        /* \"#utility.yul\":1454:1483   */\n      tag_13\n      jump\t// in\n    tag_30:\n        /* \"#utility.yul\":1444:1483   */\n      swap6\n      pop\n        /* \"#utility.yul\":1502:1540   */\n      tag_31\n        /* \"#utility.yul\":1536:1538   */\n      0x20\n        /* \"#utility.yul\":1525:1534   */\n      dup9\n        /* \"#utility.yul\":1521:1539   */\n      add\n        /* \"#utility.yul\":1502:1540   */\n      tag_13\n      jump\t// in\n    tag_31:\n        /* \"#utility.yul\":1492:1540   */\n      swap5\n      pop\n        /* \"#utility.yul\":1591:1593   */\n      0x40\n        /* \"#utility.yul\":1580:1589   */\n      dup8\n        /* \"#utility.yul\":1576:1594   */\n      add\n        /* \"#utility.yul\":1563:1595   */\n      calldataload\n        /* \"#utility.yul\":1614:1632   */\n      0xffffffffffffffff\n        /* \"#utility.yul\":1655:1657   */\n      dup1\n        /* \"#utility.yul\":1647:1653   */\n      dup3\n        /* \"#utility.yul\":1644:1658   */\n      gt\n        /* \"#utility.yul\":1641:1675   */\n      iszero\n      tag_32\n      jumpi\n        /* \"#utility.yul\":1671:1672   */\n      0x00\n        /* \"#utility.yul\":1668:1669   */\n      dup1\n        /* \"#utility.yul\":1661:1673   */\n      revert\n        /* \"#utility.yul\":1641:1675   */\n    tag_32:\n        /* \"#utility.yul\":1694:1744   */\n      tag_33\n        /* \"#utility.yul\":1736:1743   */\n      dup11\n        /* \"#utility.yul\":1727:1733   */\n      dup4\n        /* \"#utility.yul\":1716:1725   */\n      dup12\n        /* \"#utility.yul\":1712:1734   */\n      add\n        /* \"#utility.yul\":1694:1744   */\n      tag_15\n      jump\t// in\n    tag_33:\n        /* \"#utility.yul\":1684:1744   */\n      swap6\n      pop\n        /* \"#utility.yul\":1797:1799   */\n      0x60\n        /* \"#utility.yul\":1786:1795   */\n      dup10\n        /* \"#utility.yul\":1782:1800   */\n      add\n        /* \"#utility.yul\":1769:1801   */\n      calldataload\n        /* \"#utility.yul\":1753:1801   */\n      swap2\n      pop\n        /* \"#utility.yul\":1826:1828   */\n      dup1\n        /* \"#utility.yul\":1816:1824   */\n      dup3\n        /* \"#utility.yul\":1813:1829   */\n      gt\n        /* \"#utility.yul\":1810:1846   */\n      iszero\n      tag_34\n      jumpi\n        /* \"#utility.yul\":1842:1843   */\n      0x00\n        /* \"#utility.yul\":1839:1840   */\n      dup1\n        /* \"#utility.yul\":1832:1844   */\n      revert\n        /* \"#utility.yul\":1810:1846   */\n    tag_34:\n        /* \"#utility.yul\":1865:1917   */\n      tag_35\n        /* \"#utility.yul\":1909:1916   */\n      dup11\n        /* \"#utility.yul\":1898:1906   */\n      dup4\n        /* \"#utility.yul\":1887:1896   */\n      dup12\n        /* \"#utility.yul\":1883:1907   */\n      add\n        /* \"#utility.yul\":1865:1917   */\n      tag_15\n      jump\t// in\n    tag_35:\n        /* \"#utility.yul\":1855:1917   */\n      swap5\n      pop\n        /* \"#utility.yul\":1970:1973   */\n      0x80\n        /* \"#utility.yul\":1959:1968   */\n      dup10\n        /* \"#utility.yul\":1955:1974   */\n      add\n        /* \"#utility.yul\":1942:1975   */\n      calldataload\n        /* \"#utility.yul\":1926:1975   */\n      swap2\n      pop\n        /* \"#utility.yul\":2000:2002   */\n      dup1\n        /* \"#utility.yul\":1990:1998   */\n      dup3\n        /* \"#utility.yul\":1987:2003   */\n      gt\n        /* \"#utility.yul\":1984:2020   */\n      iszero\n      tag_36\n      jumpi\n        /* \"#utility.yul\":2016:2017   */\n      0x00\n        /* \"#utility.yul\":2013:2014   */\n      dup1\n        /* \"#utility.yul\":2006:2018   */\n      revert\n        /* \"#utility.yul\":1984:2020   */\n    tag_36:\n      pop\n        /* \"#utility.yul\":2039:2091   */\n      tag_37\n        /* \"#utility.yul\":2083:2090   */\n      dup10\n        /* \"#utility.yul\":2072:2080   */\n      dup3\n        /* \"#utility.yul\":2061:2070   */\n      dup11\n        /* \"#utility.yul\":2057:2081   */\n      add\n        /* \"#utility.yul\":2039:2091   */\n      tag_15\n      jump\t// in\n    tag_37:\n        /* \"#utility.yul\":2029:2091   */\n      swap3\n      pop\n      pop\n        /* \"#utility.yul\":2138:2141   */\n      0xa0\n        /* \"#utility.yul\":2127:2136   */\n      dup8\n        /* \"#utility.yul\":2123:2142   */\n      add\n        /* \"#utility.yul\":2110:2143   */\n      calldataload\n        /* \"#utility.yul\":2100:2143   */\n      swap1\n      pop\n        /* \"#utility.yul\":1187:2149   */\n      swap3\n      swap6\n      pop\n      swap3\n      swap6\n      pop\n      swap3\n      swap6\n      jump\t// out\n        /* \"#utility.yul\":2154:2635   */\n    tag_16:\n        /* \"#utility.yul\":2195:2198   */\n      0x00\n        /* \"#utility.yul\":2233:2238   */\n      dup2\n        /* \"#utility.yul\":2227:2239   */\n      mload\n        /* \"#utility.yul\":2260:2266   */\n      dup1\n        /* \"#utility.yul\":2255:2258   */\n      dup5\n        /* \"#utility.yul\":2248:2267   */\n      mstore\n        /* \"#utility.yul\":2285:2286   */\n      0x00\n        /* \"#utility.yul\":2295:2457   */\n    tag_39:\n        /* \"#utility.yul\":2309:2315   */\n      dup2\n        /* \"#utility.yul\":2306:2307   */\n      dup2\n        /* \"#utility.yul\":2303:2316   */\n      lt\n        /* \"#utility.yul\":2295:2457   */\n      iszero\n      tag_41\n      jumpi\n        /* \"#utility.yul\":2371:2375   */\n      0x20\n        /* \"#utility.yul\":2427:2440   */\n      dup2\n      dup6\n      add\n        /* \"#utility.yul\":2423:2445   */\n      dup2\n      add\n        /* \"#utility.yul\":2417:2446   */\n      mload\n        /* \"#utility.yul\":2399:2410   */\n      dup7\n      dup4\n      add\n        /* \"#utility.yul\":2395:2415   */\n      dup3\n      add\n        /* \"#utility.yul\":2388:2447   */\n      mstore\n        /* \"#utility.yul\":2324:2336   */\n      add\n        /* \"#utility.yul\":2295:2457   */\n      jump(tag_39)\n    tag_41:\n        /* \"#utility.yul\":2299:2302   */\n      pop\n        /* \"#utility.yul\":2502:2503   */\n      0x00\n        /* \"#utility.yul\":2495:2499   */\n      0x20\n        /* \"#utility.yul\":2486:2492   */\n      dup3\n        /* \"#utility.yul\":2481:2484   */\n      dup7\n        /* \"#utility.yul\":2477:2493   */\n      add\n        /* \"#utility.yul\":2473:2500   */\n      add\n        /* \"#utility.yul\":2466:2504   */\n      mstore\n        /* \"#utility.yul\":2624:2628   */\n      0x20\n        /* \"#utility.yul\":2554:2620   */\n      0xffffffffffffffffffffffffffffffffffffffffffffffffffffffffffffffe0\n        /* \"#utility.yul\":2549:2551   */\n      0x1f\n        /* \"#utility.yul\":2541:2547   */\n      dup4\n        /* \"#utility.yul\":2537:2552   */\n      add\n        /* \"#utility.yul\":2533:2621   */\n      and\n        /* \"#utility.yul\":2528:2531   */\n      dup6\n        /* \"#utility.yul\":2524:2622   */\n      add\n        /* \"#utility.yul\":2520:2629   */\n      add\n        /* \"#utility.yul\":2513:2629   */\n      swap2\n      pop\n      pop\n        /* \"#utility.yul\":2154:2635   */\n      swap3\n      swap2\n      pop\n      pop\n      jump\t// out\n        /* \"#utility.yul\":2640:2857   */\n    tag_9:\n        /* \"#utility.yul\":2787:2789   */\n      0x20\n        /* \"#utility.yul\":2776:2785   */\n      dup2\n        /* \"#utility.yul\":2769:2790   */\n      mstore\n        /* \"#utility.yul\":2750:2754   */\n      0x00\n        /* \"#utility.yul\":2807:2851   */\n      tag_43\n        /* \"#utility.yul\":2847:2849   */\n      0x20\n        /* \"#utility.yul\":2836:2845   */\n      dup4\n        /* \"#utility.yul\":2832:2850   */\n      add\n        /* \"#utility.yul\":2824:2830   */\n      dup5\n        /* \"#utility.yul\":2807:2851   */\n      tag_16\n      jump\t// in\n    tag_43:\n        /* \"#utility.yul\":2799:2851   */\n      swap4\n        /* \"#utility.yul\":2640:2857   */\n      swap3\n      pop\n      pop\n      pop\n      jump\t// out\n        /* \"#utility.yul\":2862:3701   */\n    tag_12:\n        /* \"#utility.yul\":3154:3158   */\n      0x00\n        /* \"#utility.yul\":3183:3225   */\n      0xffffffffffffffffffffffffffffffffffffffff\n        /* \"#utility.yul\":3264:3266   */\n      dup1\n        /* \"#utility.yul\":3256:3262   */\n      dup10\n        /* \"#utility.yul\":3252:3267   */\n      and\n        /* \"#utility.yul\":3241:3250   */\n      dup4\n        /* \"#utility.yul\":3234:3268   */\n      mstore\n        /* \"#utility.yul\":3316:3318   */\n      dup1\n        /* \"#utility.yul\":3308:3314   */\n      dup9\n        /* \"#utility.yul\":3304:3319   */\n      and\n        /* \"#utility.yul\":3299:3301   */\n      0x20\n        /* \"#utility.yul\":3288:3297   */\n      dup5\n        /* \"#utility.yul\":3284:3302   */\n      add\n        /* \"#utility.yul\":3277:3320   */\n      mstore\n      pop\n        /* \"#utility.yul\":3356:3359   */\n      0xc0\n        /* \"#utility.yul\":3351:3353   */\n      0x40\n        /* \"#utility.yul\":3340:3349   */\n      dup4\n        /* \"#utility.yul\":3336:3354   */\n      add\n        /* \"#utility.yul\":3329:3360   */\n      mstore\n        /* \"#utility.yul\":3383:3428   */\n      tag_45\n        /* \"#utility.yul\":3423:3426   */\n      0xc0\n        /* \"#utility.yul\":3412:3421   */\n      dup4\n        /* \"#utility.yul\":3408:3427   */\n      add\n        /* \"#utility.yul\":3400:3406   */\n      dup8\n        /* \"#utility.yul\":3383:3428   */\n      tag_16\n      jump\t// in\n    tag_45:\n        /* \"#utility.yul\":3476:3485   */\n      dup3\n        /* \"#utility.yul\":3468:3474   */\n      dup2\n        /* \"#utility.yul\":3464:3486   */\n      sub\n        /* \"#utility.yul\":3459:3461   */\n      0x60\n        /* \"#utility.yul\":3448:3457   */\n      dup5\n        /* \"#utility.yul\":3444:3462   */\n      add\n        /* \"#utility.yul\":3437:3487   */\n      mstore\n        /* \"#utility.yul\":3510:3542   */\n      tag_46\n        /* \"#utility.yul\":3535:3541   */\n      dup2\n        /* \"#utility.yul\":3527:3533   */\n      dup8\n        /* \"#utility.yul\":3510:3542   */\n      tag_16\n      jump\t// in\n    tag_46:\n        /* \"#utility.yul\":3496:3542   */\n      swap1\n      pop\n        /* \"#utility.yul\":3591:3600   */\n      dup3\n        /* \"#utility.yul\":3583:3589   */\n      dup2\n        /* \"#utility.yul\":3579:3601   */\n      sub\n        /* \"#utility.yul\":3573:3576   */\n      0x80\n        /* \"#utility.yul\":3562:3571   */\n      dup5\n        /* \"#utility.yul\":3558:3577   */\n      add\n        /* \"#utility.yul\":3551:3602   */\n      mstore\n        /* \"#utility.yul\":3619:3651   */\n      tag_47\n        /* \"#utility.yul\":3644:3650   */\n      dup2\n        /* \"#utility.yul\":3636:3642   */\n      dup7\n        /* \"#utility.yul\":3619:3651   */\n      tag_16\n      jump\t// in\n    tag_47:\n        /* \"#utility.yul\":3611:3651   */\n      swap2\n      pop\n      pop\n        /* \"#utility.yul\":3688:3694   */\n      dup3\n        /* \"#utility.yul\":3682:3685   */\n      0xa0\n        /* \"#utility.yul\":3671:3680   */\n      dup4\n        /* \"#utility.yul\":3667:3686   */\n      add\n        /* \"#utility.yul\":3660:3695   */\n      mstore\n        /* \"#utility.yul\":2862:3701   */\n      swap8\n      swap7\n      pop\n      pop\n      pop\n      pop\n      pop\n      pop\n      pop\n      jump\t// out\n\n    auxdata: 0xa2646970667358221220cab91177c919f8052dfce5599b9a47664c1bff574787d80e09ea838a8f7a790a64736f6c63430008180033\n}\n",
				"bytecode": {
					"linkReferences": {},
					"object": "608060405234801561001057600080fd5b506103d4806100206000396000f3fe608060405234801561001057600080fd5b506004361061002b5760003560e01c8063720b338a14610030575b600080fd5b61004361003e3660046101fb565b610059565b6040516100509190610311565b60405180910390f35b60608686868686866040516024016100769695949392919061032b565b604080517fffffffffffffffffffffffffffffffffffffffffffffffffffffffffffffffe08184030181529190526020810180517bffffffffffffffffffffffffffffffffffffffffffffffffffffffff167fded96d480000000000000000000000000000000000000000000000000000000017905290509695505050505050565b803573ffffffffffffffffffffffffffffffffffffffff8116811461011c57600080fd5b919050565b7f4e487b7100000000000000000000000000000000000000000000000000000000600052604160045260246000fd5b600082601f83011261016157600080fd5b813567ffffffffffffffff8082111561017c5761017c610121565b604051601f83017fffffffffffffffffffffffffffffffffffffffffffffffffffffffffffffffe0908116603f011681019082821181831017156101c2576101c2610121565b816040528381528660208588010111156101db57600080fd5b836020870160208301376000602085830101528094505050505092915050565b60008060008060008060c0878903121561021457600080fd5b61021d876100f8565b955061022b602088016100f8565b9450604087013567ffffffffffffffff8082111561024857600080fd5b6102548a838b01610150565b9550606089013591508082111561026a57600080fd5b6102768a838b01610150565b9450608089013591508082111561028c57600080fd5b5061029989828a01610150565b92505060a087013590509295509295509295565b6000815180845260005b818110156102d3576020818501810151868301820152016102b7565b5060006020828601015260207fffffffffffffffffffffffffffffffffffffffffffffffffffffffffffffffe0601f83011685010191505092915050565b60208152600061032460208301846102ad565b9392505050565b600073ffffffffffffffffffffffffffffffffffffffff808916835280881660208401525060c0604083015261036460c08301876102ad565b828103606084015261037681876102ad565b9050828103608084015261038a81866102ad565b9150508260a083015297965050505050505056fea2646970667358221220cab91177c919f8052dfce5599b9a47664c1bff574787d80e09ea838a8f7a790a64736f6c63430008180033",
					"opcodes": "PUSH1 0x80 PUSH1 0x40 MSTORE CALLVALUE DUP1 ISZERO PUSH2 0x10 JUMPI PUSH1 0x0 DUP1 REVERT JUMPDEST POP PUSH2 0x3D4 DUP1 PUSH2 0x20 PUSH1 0x0 CODECOPY PUSH1 0x0 RETURN INVALID PUSH1 0x80 PUSH1 0x40 MSTORE CALLVALUE DUP1 ISZERO PUSH2 0x10 JUMPI PUSH1 0x0 DUP1 REVERT JUMPDEST POP PUSH1 0x4 CALLDATASIZE LT PUSH2 0x2B JUMPI PUSH1 0x0 CALLDATALOAD PUSH1 0xE0 SHR DUP1 PUSH4 0x720B338A EQ PUSH2 0x30 JUMPI JUMPDEST PUSH1 0x0 DUP1 REVERT JUMPDEST PUSH2 0x43 PUSH2 0x3E CALLDATASIZE PUSH1 0x4 PUSH2 0x1FB JUMP JUMPDEST PUSH2 0x59 JUMP JUMPDEST PUSH1 0x40 MLOAD PUSH2 0x50 SWAP2 SWAP1 PUSH2 0x311 JUMP JUMPDEST PUSH1 0x40 MLOAD DUP1 SWAP2 SUB SWAP1 RETURN JUMPDEST PUSH1 0x60 DUP7 DUP7 DUP7 DUP7 DUP7 DUP7 PUSH1 0x40 MLOAD PUSH1 0x24 ADD PUSH2 0x76 SWAP7 SWAP6 SWAP5 SWAP4 SWAP3 SWAP2 SWAP1 PUSH2 0x32B JUMP JUMPDEST PUSH1 0x40 DUP1 MLOAD PUSH32 0xFFFFFFFFFFFFFFFFFFFFFFFFFFFFFFFFFFFFFFFFFFFFFFFFFFFFFFFFFFFFFFE0 DUP2 DUP5 SUB ADD DUP2 MSTORE SWAP2 SWAP1 MSTORE PUSH1 0x20 DUP2 ADD DUP1 MLOAD PUSH28 0xFFFFFFFFFFFFFFFFFFFFFFFFFFFFFFFFFFFFFFFFFFFFFFFFFFFFFFFF AND PUSH32 0xDED96D4800000000000000000000000000000000000000000000000000000000 OR SWAP1 MSTORE SWAP1 POP SWAP7 SWAP6 POP POP POP POP POP POP JUMP JUMPDEST DUP1 CALLDATALOAD PUSH20 0xFFFFFFFFFFFFFFFFFFFFFFFFFFFFFFFFFFFFFFFF DUP2 AND DUP2 EQ PUSH2 0x11C JUMPI PUSH1 0x0 DUP1 REVERT JUMPDEST SWAP2 SWAP1 POP JUMP JUMPDEST PUSH32 0x4E487B7100000000000000000000000000000000000000000000000000000000 PUSH1 0x0 MSTORE PUSH1 0x41 PUSH1 0x4 MSTORE PUSH1 0x24 PUSH1 0x0 REVERT JUMPDEST PUSH1 0x0 DUP3 PUSH1 0x1F DUP4 ADD SLT PUSH2 0x161 JUMPI PUSH1 0x0 DUP1 REVERT JUMPDEST DUP2 CALLDATALOAD PUSH8 0xFFFFFFFFFFFFFFFF DUP1 DUP3 GT ISZERO PUSH2 0x17C JUMPI PUSH2 0x17C PUSH2 0x121 JUMP JUMPDEST PUSH1 0x40 MLOAD PUSH1 0x1F DUP4 ADD PUSH32 0xFFFFFFFFFFFFFFFFFFFFFFFFFFFFFFFFFFFFFFFFFFFFFFFFFFFFFFFFFFFFFFE0 SWAP1 DUP2 AND PUSH1 0x3F ADD AND DUP2 ADD SWAP1 DUP3 DUP3 GT DUP2 DUP4 LT OR ISZERO PUSH2 0x1C2 JUMPI PUSH2 0x1C2 PUSH2 0x121 JUMP JUMPDEST DUP2 PUSH1 0x40 MSTORE DUP4 DUP2 MSTORE DUP7 PUSH1 0x20 DUP6 DUP9 ADD ADD GT ISZERO PUSH2 0x1DB JUMPI PUSH1 0x0 DUP1 REVERT JUMPDEST DUP4 PUSH1 0x20 DUP8 ADD PUSH1 0x20 DUP4 ADD CALLDATACOPY PUSH1 0x0 PUSH1 0x20 DUP6 DUP4 ADD ADD MSTORE DUP1 SWAP5 POP POP POP POP POP SWAP3 SWAP2 POP POP JUMP JUMPDEST PUSH1 0x0 DUP1 PUSH1 0x0 DUP1 PUSH1 0x0 DUP1 PUSH1 0xC0 DUP8 DUP10 SUB SLT ISZERO PUSH2 0x214 JUMPI PUSH1 0x0 DUP1 REVERT JUMPDEST PUSH2 0x21D DUP8 PUSH2 0xF8 JUMP JUMPDEST SWAP6 POP PUSH2 0x22B PUSH1 0x20 DUP9 ADD PUSH2 0xF8 JUMP JUMPDEST SWAP5 POP PUSH1 0x40 DUP8 ADD CALLDATALOAD PUSH8 0xFFFFFFFFFFFFFFFF DUP1 DUP3 GT ISZERO PUSH2 0x248 JUMPI PUSH1 0x0 DUP1 REVERT JUMPDEST PUSH2 0x254 DUP11 DUP4 DUP12 ADD PUSH2 0x150 JUMP JUMPDEST SWAP6 POP PUSH1 0x60 DUP10 ADD CALLDATALOAD SWAP2 POP DUP1 DUP3 GT ISZERO PUSH2 0x26A JUMPI PUSH1 0x0 DUP1 REVERT JUMPDEST PUSH2 0x276 DUP11 DUP4 DUP12 ADD PUSH2 0x150 JUMP JUMPDEST SWAP5 POP PUSH1 0x80 DUP10 ADD CALLDATALOAD SWAP2 POP DUP1 DUP3 GT ISZERO PUSH2 0x28C JUMPI PUSH1 0x0 DUP1 REVERT JUMPDEST POP PUSH2 0x299 DUP10 DUP3 DUP11 ADD PUSH2 0x150 JUMP JUMPDEST SWAP3 POP POP PUSH1 0xA0 DUP8 ADD CALLDATALOAD SWAP1 POP SWAP3 SWAP6 POP SWAP3 SWAP6 POP SWAP3 SWAP6 JUMP JUMPDEST PUSH1 0x0 DUP2 MLOAD DUP1 DUP5 MSTORE PUSH1 0x0 JUMPDEST DUP2 DUP2 LT ISZERO PUSH2 0x2D3 JUMPI PUSH1 0x20 DUP2 DUP6 ADD DUP2 ADD MLOAD DUP7 DUP4 ADD DUP3 ADD MSTORE ADD PUSH2 0x2B7 JUMP JUMPDEST POP PUSH1 0x0 PUSH1 0x20 DUP3 DUP7 ADD ADD MSTORE PUSH1 0x20 PUSH32 0xFFFFFFFFFFFFFFFFFFFFFFFFFFFFFFFFFFFFFFFFFFFFFFFFFFFFFFFFFFFFFFE0 PUSH1 0x1F DUP4 ADD AND DUP6 ADD ADD SWAP2 POP POP SWAP3 SWAP2 POP POP JUMP JUMPDEST PUSH1 0x20 DUP2 MSTORE PUSH1 0x0 PUSH2 0x324 PUSH1 0x20 DUP4 ADD DUP5 PUSH2 0x2AD JUMP JUMPDEST SWAP4 SWAP3 POP POP POP JUMP JUMPDEST PUSH1 0x0 PUSH20 0xFFFFFFFFFFFFFFFFFFFFFFFFFFFFFFFFFFFFFFFF DUP1 DUP10 AND DUP4 MSTORE DUP1 DUP9 AND PUSH1 0x20 DUP5 ADD MSTORE POP PUSH1 0xC0 PUSH1 0x40 DUP4 ADD MSTORE PUSH2 0x364 PUSH1 0xC0 DUP4 ADD DUP8 PUSH2 0x2AD JUMP JUMPDEST DUP3 DUP2 SUB PUSH1 0x60 DUP5 ADD MSTORE PUSH2 0x376 DUP2 DUP8 PUSH2 0x2AD JUMP JUMPDEST SWAP1 POP DUP3 DUP2 SUB PUSH1 0x80 DUP5 ADD MSTORE PUSH2 0x38A DUP2 DUP7 PUSH2 0x2AD JUMP JUMPDEST SWAP2 POP POP DUP3 PUSH1 0xA0 DUP4 ADD MSTORE SWAP8 SWAP7 POP POP POP POP POP POP POP JUMP INVALID LOG2 PUSH5 0x6970667358 0x22 SLT KECCAK256 0xCA 0xB9 GT PUSH24 0xC919F8052DFCE5599B9A47664C1BFF574787D80E09EA838A DUP16 PUSH27 0x790A64736F6C634300081800330000000000000000000000000000 "
				},
				"gasEstimates": {
					"creation": {
						"codeDepositCost": "196000",
						"executionCost": "238",
						"totalCost": "196238"
					},
					"external": {
						"encodeInit(address,address,string,string,string,uint256)": "infinite"
					}
				},
				"methodIdentifiers": {
					"encodeInit(address,address,string,string,string,uint256)": "720b338a"
				}
			},
			"storageLayout": {
				"storage": [],
				"types": null
			},
			"userdoc": {
				"kind": "user",
				"methods": {},
				"version": 1
			}
		}
	}
}